{
  "transactions": [
    {
      "hash": "0x700dfd5b50839e78b04118cdeab8a6c89e8893c1e6de0b0b00fc3c82ed25f8b9",
      "transactionType": "CALL",
      "contractName": null,
      "contractAddress": "0x8FDE145B1289a99C6B15f363309d3cc9276c0b16",
      "function": "changeAsset(address,uint8,uint8,address)",
      "arguments": [
        "0xC98F51755976811c1D71d895DA2A73b46Dfbc918",
        "18",
        "50",
        "0x99E354BA3D62259140a7f148E6848a30acF39c29"
      ],
      "transaction": {
        "from": "0xDDC9b558908E28279147D441BF626D4E3e5A5163",
        "to": "0x8FDE145B1289a99C6B15f363309d3cc9276c0b16",
        "gas": "0xf236",
        "value": "0x0",
        "input": "0xe3024f2b000000000000000000000000c98f51755976811c1d71d895da2a73b46dfbc9180000000000000000000000000000000000000000000000000000000000000012000000000000000000000000000000000000000000000000000000000000003200000000000000000000000099e354ba3d62259140a7f148e6848a30acf39c29",
        "nonce": "0x5c",
        "chainId": "0xaa36a7"
      },
      "additionalContracts": [],
      "isFixedGasLimit": false
    },
    {
      "hash": "0x3c6d69dab9b1d6d4586326901d7fde0b9c2a94fe7e055a59a2a662cb29a7e0fe",
      "transactionType": "CALL",
      "contractName": null,
      "contractAddress": "0x8FDE145B1289a99C6B15f363309d3cc9276c0b16",
      "function": "changeAsset(address,uint8,uint8,address)",
      "arguments": [
        "0x4F12d4e3FE59Ad54f7e9704B71467eB368b2F498",
        "18",
        "75",
        "0xD3a9443a0948D6c7a56F7aDB3363b60a72945166"
      ],
      "transaction": {
        "from": "0xDDC9b558908E28279147D441BF626D4E3e5A5163",
        "to": "0x8FDE145B1289a99C6B15f363309d3cc9276c0b16",
        "gas": "0xf236",
        "value": "0x0",
        "input": "0xe3024f2b0000000000000000000000004f12d4e3fe59ad54f7e9704b71467eb368b2f4980000000000000000000000000000000000000000000000000000000000000012000000000000000000000000000000000000000000000000000000000000004b000000000000000000000000d3a9443a0948d6c7a56f7adb3363b60a72945166",
        "nonce": "0x5d",
        "chainId": "0xaa36a7"
      },
      "additionalContracts": [],
      "isFixedGasLimit": false
    },
    {
      "hash": "0xfc65c875aed2f7de9bed981d76c71b9f3fc0709b8015f524353a43cae04e54ee",
      "transactionType": "CALL",
      "contractName": null,
      "contractAddress": "0x8FDE145B1289a99C6B15f363309d3cc9276c0b16",
      "function": "changeAsset(address,uint8,uint8,address)",
      "arguments": [
        "0x5Fd341Ba92C4F6e6B7778Ba303D8B1EBd36A9cA0",
        "18",
        "25",
        "0x5a773d04fbf4de670E195dBE710d630ae4CF81E2"
      ],
      "transaction": {
        "from": "0xDDC9b558908E28279147D441BF626D4E3e5A5163",
        "to": "0x8FDE145B1289a99C6B15f363309d3cc9276c0b16",
        "gas": "0xd3ff",
        "value": "0x0",
        "input": "0xe3024f2b0000000000000000000000005fd341ba92c4f6e6b7778ba303d8b1ebd36a9ca0000000000000000000000000000000000000000000000000000000000000001200000000000000000000000000000000000000000000000000000000000000190000000000000000000000005a773d04fbf4de670e195dbe710d630ae4cf81e2",
        "nonce": "0x5e",
        "chainId": "0xaa36a7"
      },
      "additionalContracts": [],
      "isFixedGasLimit": false
    },
    {
      "hash": "0x898a830e83548bc7be5549f6765a5346ce6527d002e0b7c33d34a839078de870",
      "transactionType": "CALL",
      "contractName": null,
      "contractAddress": "0x8FDE145B1289a99C6B15f363309d3cc9276c0b16",
      "function": "changeAsset(address,uint8,uint8,address)",
      "arguments": [
        "0x63c9C938be90E0692840E310e917aF1De40e314B",
        "18",
        "50",
        "0x6662cBF86b2d15a46D031457737300D0363aD342"
      ],
      "transaction": {
        "from": "0xDDC9b558908E28279147D441BF626D4E3e5A5163",
        "to": "0x8FDE145B1289a99C6B15f363309d3cc9276c0b16",
        "gas": "0xf226",
        "value": "0x0",
        "input": "0xe3024f2b00000000000000000000000063c9c938be90e0692840e310e917af1de40e314b000000000000000000000000000000000000000000000000000000000000001200000000000000000000000000000000000000000000000000000000000000320000000000000000000000006662cbf86b2d15a46d031457737300d0363ad342",
        "nonce": "0x5f",
        "chainId": "0xaa36a7"
      },
      "additionalContracts": [],
      "isFixedGasLimit": false
    }
  ],
  "receipts": [
    {
      "status": "0x1",
      "cumulativeGasUsed": "0x15ace77",
      "logs": [
        {
          "address": "0x8FDE145B1289a99C6B15f363309d3cc9276c0b16",
          "topics": [
            "0x81d8f2ab57d328daf9b412be01ea957254525442e8a76a9396ba827a26c5819e",
            "0x000000000000000000000000c98f51755976811c1d71d895da2a73b46dfbc918"
          ],
          "data": "0x00000000000000000000000000000000000000000000000000000000000000190000000000000000000000000000000000000000000000000000000000000032",
          "blockHash": "0xcfe2c1e32f37ab631f2fc0a8a444f254a1ca9a8f00abda7b3e8665952c867334",
          "blockNumber": "0x6d9f36",
          "transactionHash": "0x700dfd5b50839e78b04118cdeab8a6c89e8893c1e6de0b0b00fc3c82ed25f8b9",
          "transactionIndex": "0x103",
          "logIndex": "0xb2",
          "removed": false
        },
        {
          "address": "0x8FDE145B1289a99C6B15f363309d3cc9276c0b16",
          "topics": [
            "0x83e6290fd71fb89de26d8cee1d86ad3930533a74f5c87f033ac92bf860f3dd8c",
            "0x000000000000000000000000c98f51755976811c1d71d895da2a73b46dfbc918"
          ],
          "data": "0x00000000000000000000000000000000000000000000000000000000000000120000000000000000000000000000000000000000000000000000000000000032",
          "blockHash": "0xcfe2c1e32f37ab631f2fc0a8a444f254a1ca9a8f00abda7b3e8665952c867334",
          "blockNumber": "0x6d9f36",
          "transactionHash": "0x700dfd5b50839e78b04118cdeab8a6c89e8893c1e6de0b0b00fc3c82ed25f8b9",
          "transactionIndex": "0x103",
          "logIndex": "0xb3",
          "removed": false
        }
      ],
      "logsBloom": "0x00000000000000000000000000000000000008000000000000000000000000000000000000000000000000000000000000020000800040000000000000000000000000000000000000000000000000000080000000000000000000000000000000000000000000040000000000000000000000000000000800000000000000000000000000000000008000000000000000000000000000000000000000000000000000000000000000000000000000000000000000000001040000000000000000000000000000000000000000000000000000000000000000000000000000000000000000000000000000000400000000000000000000000000000000080000",
      "type": "0x2",
      "transactionHash": "0x700dfd5b50839e78b04118cdeab8a6c89e8893c1e6de0b0b00fc3c82ed25f8b9",
      "transactionIndex": "0x103",
      "blockHash": "0xcfe2c1e32f37ab631f2fc0a8a444f254a1ca9a8f00abda7b3e8665952c867334",
      "blockNumber": "0x6d9f36",
      "gasUsed": "0xaf5c",
      "effectiveGasPrice": "0x9b7387c8",
      "from": "0xDDC9b558908E28279147D441BF626D4E3e5A5163",
      "to": "0x8FDE145B1289a99C6B15f363309d3cc9276c0b16",
      "contractAddress": null
    },
    {
      "status": "0x1",
      "cumulativeGasUsed": "0x3a4abd",
      "logs": [
        {
          "address": "0x8FDE145B1289a99C6B15f363309d3cc9276c0b16",
          "topics": [
            "0x81d8f2ab57d328daf9b412be01ea957254525442e8a76a9396ba827a26c5819e",
            "0x0000000000000000000000004f12d4e3fe59ad54f7e9704b71467eb368b2f498"
          ],
          "data": "0x0000000000000000000000000000000000000000000000000000000000000019000000000000000000000000000000000000000000000000000000000000004b",
          "blockHash": "0xa1f78b84fdd0b55b852b36bc9542c22b238f4b45095099d41b6f8a1baf633ef5",
          "blockNumber": "0x6d9f37",
          "transactionHash": "0x3c6d69dab9b1d6d4586326901d7fde0b9c2a94fe7e055a59a2a662cb29a7e0fe",
          "transactionIndex": "0x38",
          "logIndex": "0x2b",
          "removed": false
        },
        {
          "address": "0x8FDE145B1289a99C6B15f363309d3cc9276c0b16",
          "topics": [
            "0x83e6290fd71fb89de26d8cee1d86ad3930533a74f5c87f033ac92bf860f3dd8c",
            "0x0000000000000000000000004f12d4e3fe59ad54f7e9704b71467eb368b2f498"
          ],
          "data": "0x0000000000000000000000000000000000000000000000000000000000000012000000000000000000000000000000000000000000000000000000000000004b",
          "blockHash": "0xa1f78b84fdd0b55b852b36bc9542c22b238f4b45095099d41b6f8a1baf633ef5",
          "blockNumber": "0x6d9f37",
          "transactionHash": "0x3c6d69dab9b1d6d4586326901d7fde0b9c2a94fe7e055a59a2a662cb29a7e0fe",
          "transactionIndex": "0x38",
          "logIndex": "0x2c",
          "removed": false
        }
      ],
      "logsBloom": "0x0000000000000000000000000000000000000800000000000000000000000000000000000000000000000000000000000002000080000000000000000000000000000000000000000000000000000000008000000000000000000000000000000000000000000004000000000000000000000000000000080000000000000000000000000000000000000000000000000000000000000000000000000000000000000000000000000000000000000000000000000000000104000000000000000000000020000000c000000000000000000000000000000000000000000000000000000000000000000000000000000000000000000000000000000000080000",
      "type": "0x2",
      "transactionHash": "0x3c6d69dab9b1d6d4586326901d7fde0b9c2a94fe7e055a59a2a662cb29a7e0fe",
      "transactionIndex": "0x38",
      "blockHash": "0xa1f78b84fdd0b55b852b36bc9542c22b238f4b45095099d41b6f8a1baf633ef5",
      "blockNumber": "0x6d9f37",
      "gasUsed": "0xaf5c",
      "effectiveGasPrice": "0xa5757ba4",
      "from": "0xDDC9b558908E28279147D441BF626D4E3e5A5163",
      "to": "0x8FDE145B1289a99C6B15f363309d3cc9276c0b16",
      "contractAddress": null
    },
    {
      "status": "0x1",
      "cumulativeGasUsed": "0x5ecf78",
      "logs": [
        {
          "address": "0x8FDE145B1289a99C6B15f363309d3cc9276c0b16",
          "topics": [
            "0x81d8f2ab57d328daf9b412be01ea957254525442e8a76a9396ba827a26c5819e",
            "0x0000000000000000000000005fd341ba92c4f6e6b7778ba303d8b1ebd36a9ca0"
          ],
          "data": "0x00000000000000000000000000000000000000000000000000000000000000190000000000000000000000000000000000000000000000000000000000000019",
          "blockHash": "0xa1f78b84fdd0b55b852b36bc9542c22b238f4b45095099d41b6f8a1baf633ef5",
          "blockNumber": "0x6d9f37",
          "transactionHash": "0xfc65c875aed2f7de9bed981d76c71b9f3fc0709b8015f524353a43cae04e54ee",
          "transactionIndex": "0x76",
          "logIndex": "0x3a",
          "removed": false
        },
        {
          "address": "0x8FDE145B1289a99C6B15f363309d3cc9276c0b16",
          "topics": [
            "0x83e6290fd71fb89de26d8cee1d86ad3930533a74f5c87f033ac92bf860f3dd8c",
            "0x0000000000000000000000005fd341ba92c4f6e6b7778ba303d8b1ebd36a9ca0"
          ],
          "data": "0x00000000000000000000000000000000000000000000000000000000000000120000000000000000000000000000000000000000000000000000000000000019",
          "blockHash": "0xa1f78b84fdd0b55b852b36bc9542c22b238f4b45095099d41b6f8a1baf633ef5",
          "blockNumber": "0x6d9f37",
          "transactionHash": "0xfc65c875aed2f7de9bed981d76c71b9f3fc0709b8015f524353a43cae04e54ee",
          "transactionIndex": "0x76",
          "logIndex": "0x3b",
          "removed": false
        }
      ],
      "logsBloom": "0x00000000000000000000000000000000000008000000000000000000000000000000000000000000000000000400000000020000800000000000000000000000000000000000000000000000000000000080000000000000000000000000000000000000000000040000000000000000000000000000000800000000000000000000000000000000000000000000000000000000000000000000000004000000000000000000000000000000000000000000000000000001040000000000000000000000000000000000000000000000000000000000000000000000000000000000000000000000000000000000000000000000000000000000000000084000",
      "type": "0x2",
      "transactionHash": "0xfc65c875aed2f7de9bed981d76c71b9f3fc0709b8015f524353a43cae04e54ee",
      "transactionIndex": "0x76",
      "blockHash": "0xa1f78b84fdd0b55b852b36bc9542c22b238f4b45095099d41b6f8a1baf633ef5",
      "blockNumber": "0x6d9f37",
      "gasUsed": "0x997c",
      "effectiveGasPrice": "0xa5757ba4",
      "from": "0xDDC9b558908E28279147D441BF626D4E3e5A5163",
      "to": "0x8FDE145B1289a99C6B15f363309d3cc9276c0b16",
      "contractAddress": null
    },
    {
      "status": "0x1",
      "cumulativeGasUsed": "0x5f7ec8",
      "logs": [
        {
          "address": "0x8FDE145B1289a99C6B15f363309d3cc9276c0b16",
          "topics": [
            "0x81d8f2ab57d328daf9b412be01ea957254525442e8a76a9396ba827a26c5819e",
            "0x00000000000000000000000063c9c938be90e0692840e310e917af1de40e314b"
          ],
          "data": "0x00000000000000000000000000000000000000000000000000000000000000190000000000000000000000000000000000000000000000000000000000000032",
          "blockHash": "0xa1f78b84fdd0b55b852b36bc9542c22b238f4b45095099d41b6f8a1baf633ef5",
          "blockNumber": "0x6d9f37",
          "transactionHash": "0x898a830e83548bc7be5549f6765a5346ce6527d002e0b7c33d34a839078de870",
          "transactionIndex": "0x77",
          "logIndex": "0x3c",
          "removed": false
        },
        {
          "address": "0x8FDE145B1289a99C6B15f363309d3cc9276c0b16",
          "topics": [
            "0x83e6290fd71fb89de26d8cee1d86ad3930533a74f5c87f033ac92bf860f3dd8c",
            "0x00000000000000000000000063c9c938be90e0692840e310e917af1de40e314b"
          ],
          "data": "0x00000000000000000000000000000000000000000000000000000000000000120000000000000000000000000000000000000000000000000000000000000032",
          "blockHash": "0xa1f78b84fdd0b55b852b36bc9542c22b238f4b45095099d41b6f8a1baf633ef5",
          "blockNumber": "0x6d9f37",
          "transactionHash": "0x898a830e83548bc7be5549f6765a5346ce6527d002e0b7c33d34a839078de870",
          "transactionIndex": "0x77",
          "logIndex": "0x3d",
          "removed": false
        }
      ],
      "logsBloom": "0x00000000000000000010000000000000000008000000000000000000000000000000000000000000000000000000000000020000800000000000000000000000000000000000000000000000000000000080000000000000000000000000000000000000000000040000000000000000000000000000000800000000000000000000000000000000000000000000000000000000000000000000000000000000000000000000000000000000000000000000000000000001040000000000000000000000000000000000000000000000000000000000000000000000000000400000000000000000000000008000000000000000000000000000000000080000",
      "type": "0x2",
      "transactionHash": "0x898a830e83548bc7be5549f6765a5346ce6527d002e0b7c33d34a839078de870",
      "transactionIndex": "0x77",
      "blockHash": "0xa1f78b84fdd0b55b852b36bc9542c22b238f4b45095099d41b6f8a1baf633ef5",
      "blockNumber": "0x6d9f37",
      "gasUsed": "0xaf50",
      "effectiveGasPrice": "0xa5757ba4",
      "from": "0xDDC9b558908E28279147D441BF626D4E3e5A5163",
      "to": "0x8FDE145B1289a99C6B15f363309d3cc9276c0b16",
      "contractAddress": null
    }
  ],
  "libraries": [],
  "pending": [],
  "returns": {},
  "timestamp": 1732982129,
  "chain": 11155111,
  "commit": "7a5242a"
}