{
  "transactions": [
    {
      "hash": "0xee4f29ea93b493717f3bd89b3d738140b5b3a43b2e598a505832a3fc48c3b35e",
      "transactionType": "CALL",
      "contractName": null,
      "contractAddress": "0x1Db5962360f7Ee0e42beB8cA4aF624f98863CD34",
      "function": "changeAsset(address,uint8,uint32,address)",
      "arguments": [
        "0xC98F51755976811c1D71d895DA2A73b46Dfbc918",
        "18",
        "375",
        "0xE70b046176625938e5706e56366347D91EF32947"
      ],
      "transaction": {
        "from": "0xDDC9b558908E28279147D441BF626D4E3e5A5163",
        "to": "0x1Db5962360f7Ee0e42beB8cA4aF624f98863CD34",
        "gas": "0xeff4",
        "value": "0x0",
        "input": "0xaee3fee7000000000000000000000000c98f51755976811c1d71d895da2a73b46dfbc91800000000000000000000000000000000000000000000000000000000000000120000000000000000000000000000000000000000000000000000000000000177000000000000000000000000e70b046176625938e5706e56366347d91ef32947",
        "nonce": "0x90",
        "chainId": "0xaa36a7"
      },
      "additionalContracts": [],
      "isFixedGasLimit": false
    },
    {
      "hash": "0x96e93048e53b6c08468cc1720d6b0325a142fe54a249b7168ddeff1618feb251",
      "transactionType": "CALL",
      "contractName": null,
      "contractAddress": "0x1Db5962360f7Ee0e42beB8cA4aF624f98863CD34",
      "function": "changeAsset(address,uint8,uint32,address)",
      "arguments": [
        "0x4F12d4e3FE59Ad54f7e9704B71467eB368b2F498",
        "18",
        "250",
        "0x1c5403308419f1AFA0Cc2362Ec4b2Bc559a24e30"
      ],
      "transaction": {
        "from": "0xDDC9b558908E28279147D441BF626D4E3e5A5163",
        "to": "0x1Db5962360f7Ee0e42beB8cA4aF624f98863CD34",
        "gas": "0xe28f",
        "value": "0x0",
        "input": "0xaee3fee70000000000000000000000004f12d4e3fe59ad54f7e9704b71467eb368b2f498000000000000000000000000000000000000000000000000000000000000001200000000000000000000000000000000000000000000000000000000000000fa0000000000000000000000001c5403308419f1afa0cc2362ec4b2bc559a24e30",
        "nonce": "0x91",
        "chainId": "0xaa36a7"
      },
      "additionalContracts": [],
      "isFixedGasLimit": false
    },
    {
      "hash": "0x9243b525a6787fe1904128f68e1612e8f2a0c0264987fa66e58dbfa9eff08804",
      "transactionType": "CALL",
      "contractName": null,
      "contractAddress": "0x1Db5962360f7Ee0e42beB8cA4aF624f98863CD34",
      "function": "changeAsset(address,uint8,uint32,address)",
      "arguments": [
        "0x5Fd341Ba92C4F6e6B7778Ba303D8B1EBd36A9cA0",
        "18",
        "125",
        "0x36eAE36E832EdbC439Da7D1FA02Fba0dA9Dd70a6"
      ],
      "transaction": {
        "from": "0xDDC9b558908E28279147D441BF626D4E3e5A5163",
        "to": "0x1Db5962360f7Ee0e42beB8cA4aF624f98863CD34",
        "gas": "0xe28f",
        "value": "0x0",
        "input": "0xaee3fee70000000000000000000000005fd341ba92c4f6e6b7778ba303d8b1ebd36a9ca00000000000000000000000000000000000000000000000000000000000000012000000000000000000000000000000000000000000000000000000000000007d00000000000000000000000036eae36e832edbc439da7d1fa02fba0da9dd70a6",
        "nonce": "0x92",
        "chainId": "0xaa36a7"
      },
      "additionalContracts": [],
      "isFixedGasLimit": false
    },
    {
      "hash": "0x4d9674aa2d5fc1c021092e32185d47038c5646edaecceeac8f0e7001593946d2",
      "transactionType": "CALL",
      "contractName": null,
      "contractAddress": "0x1Db5962360f7Ee0e42beB8cA4aF624f98863CD34",
      "function": "changeAsset(address,uint8,uint32,address)",
      "arguments": [
        "0x63c9C938be90E0692840E310e917aF1De40e314B",
        "18",
        "250",
        "0xb9C3D3c25c68b0070Dbee8deCDFDC96157ad3a3C"
      ],
      "transaction": {
        "from": "0xDDC9b558908E28279147D441BF626D4E3e5A5163",
        "to": "0x1Db5962360f7Ee0e42beB8cA4aF624f98863CD34",
        "gas": "0xe28f",
        "value": "0x0",
        "input": "0xaee3fee700000000000000000000000063c9c938be90e0692840e310e917af1de40e314b000000000000000000000000000000000000000000000000000000000000001200000000000000000000000000000000000000000000000000000000000000fa000000000000000000000000b9c3d3c25c68b0070dbee8decdfdc96157ad3a3c",
        "nonce": "0x93",
        "chainId": "0xaa36a7"
      },
      "additionalContracts": [],
      "isFixedGasLimit": false
    }
  ],
  "receipts": [
    {
      "status": "0x1",
      "cumulativeGasUsed": "0xb1881f",
      "logs": [
        {
          "address": "0x1Db5962360f7Ee0e42beB8cA4aF624f98863CD34",
          "topics": [
            "0xfe53ad22d287601d2ed917d8aedf4a9bf6f948833c8b55fbc07d8a4e1cdd7789",
            "0x000000000000000000000000c98f51755976811c1d71d895da2a73b46dfbc918"
          ],
          "data": "0x00000000000000000000000000000000000000000000000000000000000001770000000000000000000000000000000000000000000000000000000000000177",
          "blockHash": "0xf34e8b33b7be8c238cc61dcdf862258d02d360ac73f9e79fa69621570dc36b43",
          "blockNumber": "0x6dd149",
          "transactionHash": "0xee4f29ea93b493717f3bd89b3d738140b5b3a43b2e598a505832a3fc48c3b35e",
          "transactionIndex": "0x66",
          "logIndex": "0xe8",
          "removed": false
        },
        {
          "address": "0x1Db5962360f7Ee0e42beB8cA4aF624f98863CD34",
          "topics": [
            "0xd19afa6a62432ff0578526c79ab25d5e83049cfd7c7dade58cb858714dc0df03",
            "0x000000000000000000000000c98f51755976811c1d71d895da2a73b46dfbc918"
          ],
          "data": "0x00000000000000000000000000000000000000000000000000000000000000120000000000000000000000000000000000000000000000000000000000000177",
          "blockHash": "0xf34e8b33b7be8c238cc61dcdf862258d02d360ac73f9e79fa69621570dc36b43",
          "blockNumber": "0x6dd149",
          "transactionHash": "0xee4f29ea93b493717f3bd89b3d738140b5b3a43b2e598a505832a3fc48c3b35e",
          "transactionIndex": "0x66",
          "logIndex": "0xe9",
          "removed": false
        }
      ],
      "logsBloom": "0x00000000000000000000000000000000000000100000000000000000000010000000000000000000000200000000000000000000000040000000000000000000000000000000000000000000000000000000000000000000000000000000000000000000000000000000000200000000000000000000000000000000000000000000000001000002008200000000000000000800000000000000000000000000000000000000000000000000000000000000000000000000000000000000000000000000000000000000000000000000000000000000000000000000000000000000000000000000000000400400000000000000000000000000000000000000",
      "type": "0x2",
      "transactionHash": "0xee4f29ea93b493717f3bd89b3d738140b5b3a43b2e598a505832a3fc48c3b35e",
      "transactionIndex": "0x66",
      "blockHash": "0xf34e8b33b7be8c238cc61dcdf862258d02d360ac73f9e79fa69621570dc36b43",
      "blockNumber": "0x6dd149",
      "gasUsed": "0xa413",
      "effectiveGasPrice": "0x2078a23f8",
      "from": "0xDDC9b558908E28279147D441BF626D4E3e5A5163",
      "to": "0x1Db5962360f7Ee0e42beB8cA4aF624f98863CD34",
      "contractAddress": null
    },
    {
      "status": "0x1",
      "cumulativeGasUsed": "0xb392c6",
      "logs": [
        {
          "address": "0x1Db5962360f7Ee0e42beB8cA4aF624f98863CD34",
          "topics": [
            "0xfe53ad22d287601d2ed917d8aedf4a9bf6f948833c8b55fbc07d8a4e1cdd7789",
            "0x0000000000000000000000004f12d4e3fe59ad54f7e9704b71467eb368b2f498"
          ],
          "data": "0x00000000000000000000000000000000000000000000000000000000000000fa00000000000000000000000000000000000000000000000000000000000000fa",
          "blockHash": "0xf34e8b33b7be8c238cc61dcdf862258d02d360ac73f9e79fa69621570dc36b43",
          "blockNumber": "0x6dd149",
          "transactionHash": "0x96e93048e53b6c08468cc1720d6b0325a142fe54a249b7168ddeff1618feb251",
          "transactionIndex": "0x6b",
          "logIndex": "0xea",
          "removed": false
        },
        {
          "address": "0x1Db5962360f7Ee0e42beB8cA4aF624f98863CD34",
          "topics": [
            "0xd19afa6a62432ff0578526c79ab25d5e83049cfd7c7dade58cb858714dc0df03",
            "0x0000000000000000000000004f12d4e3fe59ad54f7e9704b71467eb368b2f498"
          ],
          "data": "0x000000000000000000000000000000000000000000000000000000000000001200000000000000000000000000000000000000000000000000000000000000fa",
          "blockHash": "0xf34e8b33b7be8c238cc61dcdf862258d02d360ac73f9e79fa69621570dc36b43",
          "blockNumber": "0x6dd149",
          "transactionHash": "0x96e93048e53b6c08468cc1720d6b0325a142fe54a249b7168ddeff1618feb251",
          "transactionIndex": "0x6b",
          "logIndex": "0xeb",
          "removed": false
        }
      ],
      "logsBloom": "0x0000000000000000000000000000000000000010000000000000000000001000000000000000000000020000000000000000000000000000000000000000000000000000000000000000000000000000000000000000000000000000000000000000000000000000000000020000000000000000000000000000000000000000000000000100000200020000000000000000080000000000000000000000000000000000000000000000000000000000000000000000000000000000000000000000000020000000c000000000000000000000000000000000000000000000000000000000000000000000400000000000000000000000000000000000000000",
      "type": "0x2",
      "transactionHash": "0x96e93048e53b6c08468cc1720d6b0325a142fe54a249b7168ddeff1618feb251",
      "transactionIndex": "0x6b",
      "blockHash": "0xf34e8b33b7be8c238cc61dcdf862258d02d360ac73f9e79fa69621570dc36b43",
      "blockNumber": "0x6dd149",
      "gasUsed": "0xa407",
      "effectiveGasPrice": "0x2078a23f8",
      "from": "0xDDC9b558908E28279147D441BF626D4E3e5A5163",
      "to": "0x1Db5962360f7Ee0e42beB8cA4aF624f98863CD34",
      "contractAddress": null
    },
    {
      "status": "0x1",
      "cumulativeGasUsed": "0xc45d21",
      "logs": [
        {
          "address": "0x1Db5962360f7Ee0e42beB8cA4aF624f98863CD34",
          "topics": [
            "0xfe53ad22d287601d2ed917d8aedf4a9bf6f948833c8b55fbc07d8a4e1cdd7789",
            "0x0000000000000000000000005fd341ba92c4f6e6b7778ba303d8b1ebd36a9ca0"
          ],
          "data": "0x000000000000000000000000000000000000000000000000000000000000007d000000000000000000000000000000000000000000000000000000000000007d",
          "blockHash": "0xf34e8b33b7be8c238cc61dcdf862258d02d360ac73f9e79fa69621570dc36b43",
          "blockNumber": "0x6dd149",
          "transactionHash": "0x9243b525a6787fe1904128f68e1612e8f2a0c0264987fa66e58dbfa9eff08804",
          "transactionIndex": "0x88",
          "logIndex": "0xfb",
          "removed": false
        },
        {
          "address": "0x1Db5962360f7Ee0e42beB8cA4aF624f98863CD34",
          "topics": [
            "0xd19afa6a62432ff0578526c79ab25d5e83049cfd7c7dade58cb858714dc0df03",
            "0x0000000000000000000000005fd341ba92c4f6e6b7778ba303d8b1ebd36a9ca0"
          ],
          "data": "0x0000000000000000000000000000000000000000000000000000000000000012000000000000000000000000000000000000000000000000000000000000007d",
          "blockHash": "0xf34e8b33b7be8c238cc61dcdf862258d02d360ac73f9e79fa69621570dc36b43",
          "blockNumber": "0x6dd149",
          "transactionHash": "0x9243b525a6787fe1904128f68e1612e8f2a0c0264987fa66e58dbfa9eff08804",
          "transactionIndex": "0x88",
          "logIndex": "0xfc",
          "removed": false
        }
      ],
      "logsBloom": "0x00000000000000000000000000000000000000100000000000000000000010000000000000000000000200000400000000000000000000000000000000000000000000000000000000000000000000000000000000000000000000000000000000000000000000000000000200000000000000000000000000000000000000000000000001000002000200000000000000000800000000000000000004000000000000000000000000000000000000000000000000000000000000000000000000000000000000000000000000000000000000000000000000000000000000000000000000000000000000400000000000000000000000000000000000004000",
      "type": "0x2",
      "transactionHash": "0x9243b525a6787fe1904128f68e1612e8f2a0c0264987fa66e58dbfa9eff08804",
      "transactionIndex": "0x88",
      "blockHash": "0xf34e8b33b7be8c238cc61dcdf862258d02d360ac73f9e79fa69621570dc36b43",
      "blockNumber": "0x6dd149",
      "gasUsed": "0xa407",
      "effectiveGasPrice": "0x2078a23f8",
      "from": "0xDDC9b558908E28279147D441BF626D4E3e5A5163",
      "to": "0x1Db5962360f7Ee0e42beB8cA4aF624f98863CD34",
      "contractAddress": null
    },
    {
      "status": "0x1",
      "cumulativeGasUsed": "0xc50128",
      "logs": [
        {
          "address": "0x1Db5962360f7Ee0e42beB8cA4aF624f98863CD34",
          "topics": [
            "0xfe53ad22d287601d2ed917d8aedf4a9bf6f948833c8b55fbc07d8a4e1cdd7789",
            "0x00000000000000000000000063c9c938be90e0692840e310e917af1de40e314b"
          ],
          "data": "0x00000000000000000000000000000000000000000000000000000000000000fa00000000000000000000000000000000000000000000000000000000000000fa",
          "blockHash": "0xf34e8b33b7be8c238cc61dcdf862258d02d360ac73f9e79fa69621570dc36b43",
          "blockNumber": "0x6dd149",
          "transactionHash": "0x4d9674aa2d5fc1c021092e32185d47038c5646edaecceeac8f0e7001593946d2",
          "transactionIndex": "0x89",
          "logIndex": "0xfd",
          "removed": false
        },
        {
          "address": "0x1Db5962360f7Ee0e42beB8cA4aF624f98863CD34",
          "topics": [
            "0xd19afa6a62432ff0578526c79ab25d5e83049cfd7c7dade58cb858714dc0df03",
            "0x00000000000000000000000063c9c938be90e0692840e310e917af1de40e314b"
          ],
          "data": "0x000000000000000000000000000000000000000000000000000000000000001200000000000000000000000000000000000000000000000000000000000000fa",
          "blockHash": "0xf34e8b33b7be8c238cc61dcdf862258d02d360ac73f9e79fa69621570dc36b43",
          "blockNumber": "0x6dd149",
          "transactionHash": "0x4d9674aa2d5fc1c021092e32185d47038c5646edaecceeac8f0e7001593946d2",
          "transactionIndex": "0x89",
          "logIndex": "0xfe",
          "removed": false
        }
      ],
      "logsBloom": "0x00000000000000000010000000000000000000100000000000000000000010000000000000000000000200000000000000000000000000000000000000000000000000000000000000000000000000000000000000000000000000000000000000000000000000000000000200000000000000000000000000000000000000000000000001000002000200000000000000000800000000000000000000000000000000000000000000000000000000000000000000000000000000000000000000000000000000000000000000000000000000000000000000000000000000400000000000000000000000408000000000000000000000000000000000000000",
      "type": "0x2",
      "transactionHash": "0x4d9674aa2d5fc1c021092e32185d47038c5646edaecceeac8f0e7001593946d2",
      "transactionIndex": "0x89",
      "blockHash": "0xf34e8b33b7be8c238cc61dcdf862258d02d360ac73f9e79fa69621570dc36b43",
      "blockNumber": "0x6dd149",
      "gasUsed": "0xa407",
      "effectiveGasPrice": "0x2078a23f8",
      "from": "0xDDC9b558908E28279147D441BF626D4E3e5A5163",
      "to": "0x1Db5962360f7Ee0e42beB8cA4aF624f98863CD34",
      "contractAddress": null
    }
  ],
  "libraries": [],
  "pending": [],
  "returns": {},
  "timestamp": 1733154698,
  "chain": 11155111,
  "commit": "a8f0c2e"
}