{
  "transactions": [
    {
      "hash": "0x2f82b0ab8a6e4111e875db4370d14e8bab292d4a7b345b2c2548bac386be09a1",
      "transactionType": "CALL",
      "contractName": null,
      "contractAddress": "0x8FDE145B1289a99C6B15f363309d3cc9276c0b16",
      "function": "changeAsset(address,uint8,uint8,address)",
      "arguments": [
        "0xC98F51755976811c1D71d895DA2A73b46Dfbc918",
        "18",
        "25",
        "0x99E354BA3D62259140a7f148E6848a30acF39c29"
      ],
      "transaction": {
        "from": "0xDDC9b558908E28279147D441BF626D4E3e5A5163",
        "to": "0x8FDE145B1289a99C6B15f363309d3cc9276c0b16",
        "gas": "0xe2fc",
        "value": "0x0",
        "input": "0xe3024f2b000000000000000000000000c98f51755976811c1d71d895da2a73b46dfbc9180000000000000000000000000000000000000000000000000000000000000012000000000000000000000000000000000000000000000000000000000000001900000000000000000000000099e354ba3d62259140a7f148e6848a30acf39c29",
        "nonce": "0x55",
        "chainId": "0xaa36a7"
      },
      "additionalContracts": [],
      "isFixedGasLimit": false
    },
    {
      "hash": "0xc825c983817417cd263331c8391cf13adc4227bafca9b1c15b4b89bc5432b8fa",
      "transactionType": "CALL",
      "contractName": null,
      "contractAddress": "0x8FDE145B1289a99C6B15f363309d3cc9276c0b16",
      "function": "changeAsset(address,uint8,uint8,address)",
      "arguments": [
        "0x4F12d4e3FE59Ad54f7e9704B71467eB368b2F498",
        "18",
        "25",
        "0xD3a9443a0948D6c7a56F7aDB3363b60a72945166"
      ],
      "transaction": {
        "from": "0xDDC9b558908E28279147D441BF626D4E3e5A5163",
        "to": "0x8FDE145B1289a99C6B15f363309d3cc9276c0b16",
        "gas": "0xd3e1",
        "value": "0x0",
        "input": "0xe3024f2b0000000000000000000000004f12d4e3fe59ad54f7e9704b71467eb368b2f49800000000000000000000000000000000000000000000000000000000000000120000000000000000000000000000000000000000000000000000000000000019000000000000000000000000d3a9443a0948d6c7a56f7adb3363b60a72945166",
        "nonce": "0x56",
        "chainId": "0xaa36a7"
      },
      "additionalContracts": [],
      "isFixedGasLimit": false
    },
    {
      "hash": "0x5811898905ebf8489b09d028a53cb36735d59092e119ae941b38308dfeecbe5e",
      "transactionType": "CALL",
      "contractName": null,
      "contractAddress": "0x8FDE145B1289a99C6B15f363309d3cc9276c0b16",
      "function": "changeAsset(address,uint8,uint8,address)",
      "arguments": [
        "0x5Fd341Ba92C4F6e6B7778Ba303D8B1EBd36A9cA0",
        "18",
        "25",
        "0x5a773d04fbf4de670E195dBE710d630ae4CF81E2"
      ],
      "transaction": {
        "from": "0xDDC9b558908E28279147D441BF626D4E3e5A5163",
        "to": "0x8FDE145B1289a99C6B15f363309d3cc9276c0b16",
        "gas": "0xe2fc",
        "value": "0x0",
        "input": "0xe3024f2b0000000000000000000000005fd341ba92c4f6e6b7778ba303d8b1ebd36a9ca0000000000000000000000000000000000000000000000000000000000000001200000000000000000000000000000000000000000000000000000000000000190000000000000000000000005a773d04fbf4de670e195dbe710d630ae4cf81e2",
        "nonce": "0x57",
        "chainId": "0xaa36a7"
      },
      "additionalContracts": [],
      "isFixedGasLimit": false
    },
    {
      "hash": "0x8a957616d97db11b6a1998bc6b5a5fd68de7e81229b1f8ca0af88cbe36ed9596",
      "transactionType": "CALL",
      "contractName": null,
      "contractAddress": "0x8FDE145B1289a99C6B15f363309d3cc9276c0b16",
      "function": "changeAsset(address,uint8,uint8,address)",
      "arguments": [
        "0x63c9C938be90E0692840E310e917aF1De40e314B",
        "18",
        "25",
        "0x6662cBF86b2d15a46D031457737300D0363aD342"
      ],
      "transaction": {
        "from": "0xDDC9b558908E28279147D441BF626D4E3e5A5163",
        "to": "0x8FDE145B1289a99C6B15f363309d3cc9276c0b16",
        "gas": "0xe046",
        "value": "0x0",
        "input": "0xe3024f2b00000000000000000000000063c9c938be90e0692840e310e917af1de40e314b000000000000000000000000000000000000000000000000000000000000001200000000000000000000000000000000000000000000000000000000000000190000000000000000000000006662cbf86b2d15a46d031457737300d0363ad342",
        "nonce": "0x58",
        "chainId": "0xaa36a7"
      },
      "additionalContracts": [],
      "isFixedGasLimit": false
    }
  ],
  "receipts": [
    {
      "status": "0x1",
      "cumulativeGasUsed": "0xbee787",
      "logs": [
        {
          "address": "0x8FDE145B1289a99C6B15f363309d3cc9276c0b16",
          "topics": [
            "0x81d8f2ab57d328daf9b412be01ea957254525442e8a76a9396ba827a26c5819e",
            "0x000000000000000000000000c98f51755976811c1d71d895da2a73b46dfbc918"
          ],
          "data": "0x00000000000000000000000000000000000000000000000000000000000000190000000000000000000000000000000000000000000000000000000000000019",
          "blockHash": "0x1e34a665c76d53861cb17c457bf5fa16b66405f930c02aca19712ce54184cc45",
          "blockNumber": "0x6d87ce",
          "transactionHash": "0x2f82b0ab8a6e4111e875db4370d14e8bab292d4a7b345b2c2548bac386be09a1",
          "transactionIndex": "0xb6",
          "logIndex": "0x9c",
          "removed": false
        },
        {
          "address": "0x8FDE145B1289a99C6B15f363309d3cc9276c0b16",
          "topics": [
            "0x83e6290fd71fb89de26d8cee1d86ad3930533a74f5c87f033ac92bf860f3dd8c",
            "0x000000000000000000000000c98f51755976811c1d71d895da2a73b46dfbc918"
          ],
          "data": "0x00000000000000000000000000000000000000000000000000000000000000120000000000000000000000000000000000000000000000000000000000000019",
          "blockHash": "0x1e34a665c76d53861cb17c457bf5fa16b66405f930c02aca19712ce54184cc45",
          "blockNumber": "0x6d87ce",
          "transactionHash": "0x2f82b0ab8a6e4111e875db4370d14e8bab292d4a7b345b2c2548bac386be09a1",
          "transactionIndex": "0xb6",
          "logIndex": "0x9d",
          "removed": false
        }
      ],
      "logsBloom": "0x00000000000000000000000000000000000008000000000000000000000000000000000000000000000000000000000000020000800040000000000000000000000000000000000000000000000000000080000000000000000000000000000000000000000000040000000000000000000000000000000800000000000000000000000000000000008000000000000000000000000000000000000000000000000000000000000000000000000000000000000000000001040000000000000000000000000000000000000000000000000000000000000000000000000000000000000000000000000000000400000000000000000000000000000000080000",
      "type": "0x2",
      "transactionHash": "0x2f82b0ab8a6e4111e875db4370d14e8bab292d4a7b345b2c2548bac386be09a1",
      "transactionIndex": "0xb6",
      "blockHash": "0x1e34a665c76d53861cb17c457bf5fa16b66405f930c02aca19712ce54184cc45",
      "blockNumber": "0x6d87ce",
      "gasUsed": "0xa456",
      "effectiveGasPrice": "0x113f33bb1",
      "from": "0xDDC9b558908E28279147D441BF626D4E3e5A5163",
      "to": "0x8FDE145B1289a99C6B15f363309d3cc9276c0b16",
      "contractAddress": null
    },
    {
      "status": "0x1",
      "cumulativeGasUsed": "0xbf80ed",
      "logs": [
        {
          "address": "0x8FDE145B1289a99C6B15f363309d3cc9276c0b16",
          "topics": [
            "0x81d8f2ab57d328daf9b412be01ea957254525442e8a76a9396ba827a26c5819e",
            "0x0000000000000000000000004f12d4e3fe59ad54f7e9704b71467eb368b2f498"
          ],
          "data": "0x00000000000000000000000000000000000000000000000000000000000000190000000000000000000000000000000000000000000000000000000000000019",
          "blockHash": "0x1e34a665c76d53861cb17c457bf5fa16b66405f930c02aca19712ce54184cc45",
          "blockNumber": "0x6d87ce",
          "transactionHash": "0xc825c983817417cd263331c8391cf13adc4227bafca9b1c15b4b89bc5432b8fa",
          "transactionIndex": "0xb7",
          "logIndex": "0x9e",
          "removed": false
        },
        {
          "address": "0x8FDE145B1289a99C6B15f363309d3cc9276c0b16",
          "topics": [
            "0x83e6290fd71fb89de26d8cee1d86ad3930533a74f5c87f033ac92bf860f3dd8c",
            "0x0000000000000000000000004f12d4e3fe59ad54f7e9704b71467eb368b2f498"
          ],
          "data": "0x00000000000000000000000000000000000000000000000000000000000000120000000000000000000000000000000000000000000000000000000000000019",
          "blockHash": "0x1e34a665c76d53861cb17c457bf5fa16b66405f930c02aca19712ce54184cc45",
          "blockNumber": "0x6d87ce",
          "transactionHash": "0xc825c983817417cd263331c8391cf13adc4227bafca9b1c15b4b89bc5432b8fa",
          "transactionIndex": "0xb7",
          "logIndex": "0x9f",
          "removed": false
        }
      ],
      "logsBloom": "0x0000000000000000000000000000000000000800000000000000000000000000000000000000000000000000000000000002000080000000000000000000000000000000000000000000000000000000008000000000000000000000000000000000000000000004000000000000000000000000000000080000000000000000000000000000000000000000000000000000000000000000000000000000000000000000000000000000000000000000000000000000000104000000000000000000000020000000c000000000000000000000000000000000000000000000000000000000000000000000000000000000000000000000000000000000080000",
      "type": "0x2",
      "transactionHash": "0xc825c983817417cd263331c8391cf13adc4227bafca9b1c15b4b89bc5432b8fa",
      "transactionIndex": "0xb7",
      "blockHash": "0x1e34a665c76d53861cb17c457bf5fa16b66405f930c02aca19712ce54184cc45",
      "blockNumber": "0x6d87ce",
      "gasUsed": "0x9966",
      "effectiveGasPrice": "0x113f33bb1",
      "from": "0xDDC9b558908E28279147D441BF626D4E3e5A5163",
      "to": "0x8FDE145B1289a99C6B15f363309d3cc9276c0b16",
      "contractAddress": null
    },
    {
      "status": "0x1",
      "cumulativeGasUsed": "0xc07eeb",
      "logs": [
        {
          "address": "0x8FDE145B1289a99C6B15f363309d3cc9276c0b16",
          "topics": [
            "0x81d8f2ab57d328daf9b412be01ea957254525442e8a76a9396ba827a26c5819e",
            "0x0000000000000000000000005fd341ba92c4f6e6b7778ba303d8b1ebd36a9ca0"
          ],
          "data": "0x00000000000000000000000000000000000000000000000000000000000000190000000000000000000000000000000000000000000000000000000000000019",
          "blockHash": "0x1e34a665c76d53861cb17c457bf5fa16b66405f930c02aca19712ce54184cc45",
          "blockNumber": "0x6d87ce",
          "transactionHash": "0x5811898905ebf8489b09d028a53cb36735d59092e119ae941b38308dfeecbe5e",
          "transactionIndex": "0xb9",
          "logIndex": "0xa0",
          "removed": false
        },
        {
          "address": "0x8FDE145B1289a99C6B15f363309d3cc9276c0b16",
          "topics": [
            "0x83e6290fd71fb89de26d8cee1d86ad3930533a74f5c87f033ac92bf860f3dd8c",
            "0x0000000000000000000000005fd341ba92c4f6e6b7778ba303d8b1ebd36a9ca0"
          ],
          "data": "0x00000000000000000000000000000000000000000000000000000000000000120000000000000000000000000000000000000000000000000000000000000019",
          "blockHash": "0x1e34a665c76d53861cb17c457bf5fa16b66405f930c02aca19712ce54184cc45",
          "blockNumber": "0x6d87ce",
          "transactionHash": "0x5811898905ebf8489b09d028a53cb36735d59092e119ae941b38308dfeecbe5e",
          "transactionIndex": "0xb9",
          "logIndex": "0xa1",
          "removed": false
        }
      ],
      "logsBloom": "0x00000000000000000000000000000000000008000000000000000000000000000000000000000000000000000400000000020000800000000000000000000000000000000000000000000000000000000080000000000000000000000000000000000000000000040000000000000000000000000000000800000000000000000000000000000000000000000000000000000000000000000000000004000000000000000000000000000000000000000000000000000001040000000000000000000000000000000000000000000000000000000000000000000000000000000000000000000000000000000000000000000000000000000000000000084000",
      "type": "0x2",
      "transactionHash": "0x5811898905ebf8489b09d028a53cb36735d59092e119ae941b38308dfeecbe5e",
      "transactionIndex": "0xb9",
      "blockHash": "0x1e34a665c76d53861cb17c457bf5fa16b66405f930c02aca19712ce54184cc45",
      "blockNumber": "0x6d87ce",
      "gasUsed": "0xa456",
      "effectiveGasPrice": "0x113f33bb1",
      "from": "0xDDC9b558908E28279147D441BF626D4E3e5A5163",
      "to": "0x8FDE145B1289a99C6B15f363309d3cc9276c0b16",
      "contractAddress": null
    },
    {
      "status": "0x1",
      "cumulativeGasUsed": "0xc11845",
      "logs": [
        {
          "address": "0x8FDE145B1289a99C6B15f363309d3cc9276c0b16",
          "topics": [
            "0x81d8f2ab57d328daf9b412be01ea957254525442e8a76a9396ba827a26c5819e",
            "0x00000000000000000000000063c9c938be90e0692840e310e917af1de40e314b"
          ],
          "data": "0x00000000000000000000000000000000000000000000000000000000000000190000000000000000000000000000000000000000000000000000000000000019",
          "blockHash": "0x1e34a665c76d53861cb17c457bf5fa16b66405f930c02aca19712ce54184cc45",
          "blockNumber": "0x6d87ce",
          "transactionHash": "0x8a957616d97db11b6a1998bc6b5a5fd68de7e81229b1f8ca0af88cbe36ed9596",
          "transactionIndex": "0xba",
          "logIndex": "0xa2",
          "removed": false
        },
        {
          "address": "0x8FDE145B1289a99C6B15f363309d3cc9276c0b16",
          "topics": [
            "0x83e6290fd71fb89de26d8cee1d86ad3930533a74f5c87f033ac92bf860f3dd8c",
            "0x00000000000000000000000063c9c938be90e0692840e310e917af1de40e314b"
          ],
          "data": "0x00000000000000000000000000000000000000000000000000000000000000120000000000000000000000000000000000000000000000000000000000000019",
          "blockHash": "0x1e34a665c76d53861cb17c457bf5fa16b66405f930c02aca19712ce54184cc45",
          "blockNumber": "0x6d87ce",
          "transactionHash": "0x8a957616d97db11b6a1998bc6b5a5fd68de7e81229b1f8ca0af88cbe36ed9596",
          "transactionIndex": "0xba",
          "logIndex": "0xa3",
          "removed": false
        }
      ],
      "logsBloom": "0x00000000000000000010000000000000000008000000000000000000000000000000000000000000000000000000000000020000800000000000000000000000000000000000000000000000000000000080000000000000000000000000000000000000000000040000000000000000000000000000000800000000000000000000000000000000000000000000000000000000000000000000000000000000000000000000000000000000000000000000000000000001040000000000000000000000000000000000000000000000000000000000000000000000000000400000000000000000000000008000000000000000000000000000000000080000",
      "type": "0x2",
      "transactionHash": "0x8a957616d97db11b6a1998bc6b5a5fd68de7e81229b1f8ca0af88cbe36ed9596",
      "transactionIndex": "0xba",
      "blockHash": "0x1e34a665c76d53861cb17c457bf5fa16b66405f930c02aca19712ce54184cc45",
      "blockNumber": "0x6d87ce",
      "gasUsed": "0x995a",
      "effectiveGasPrice": "0x113f33bb1",
      "from": "0xDDC9b558908E28279147D441BF626D4E3e5A5163",
      "to": "0x8FDE145B1289a99C6B15f363309d3cc9276c0b16",
      "contractAddress": null
    }
  ],
  "libraries": [],
  "pending": [],
  "returns": {},
  "timestamp": 1732901413,
  "chain": 11155111,
  "commit": "7a5242a"
}