{
  "transactions": [
    {
      "hash": "0x3a1fef9369c4c2fd26b488283493b11c109dabb201e7cb1cf18f882cbac0cdb0",
      "transactionType": "CALL",
      "contractName": null,
      "contractAddress": "0x8FDE145B1289a99C6B15f363309d3cc9276c0b16",
      "function": "setOracleRouter(address)",
      "arguments": [
        "0x8f86bFc69a9A8bfEceB81f02B8A34327a785b58b"
      ],
      "transaction": {
        "from": "0xDDC9b558908E28279147D441BF626D4E3e5A5163",
        "to": "0x8FDE145B1289a99C6B15f363309d3cc9276c0b16",
        "gas": "0x12b0b",
        "value": "0x0",
        "input": "0x4d69ee0e0000000000000000000000008f86bfc69a9a8bfeceb81f02b8a34327a785b58b",
        "nonce": "0x18",
        "chainId": "0xaa36a7"
      },
      "additionalContracts": [],
      "isFixedGasLimit": false
    },
    {
      "hash": "0xad5785e424831d08b4189094b3ebda77fc8d499b14ba117ccd83634ea5c58511",
      "transactionType": "CALL",
      "contractName": null,
      "contractAddress": "0x8f86bFc69a9A8bfEceB81f02B8A34327a785b58b",
      "function": "addFeed(address,address,uint256,uint8)",
      "arguments": [
        "0x4F12d4e3FE59Ad54f7e9704B71467eB368b2F498",
        "0x14866185B1962B63C3Ea9E03Bc1da838bab34C19",
        "86400",
        "8"
      ],
      "transaction": {
        "from": "0xDDC9b558908E28279147D441BF626D4E3e5A5163",
        "to": "0x8f86bFc69a9A8bfEceB81f02B8A34327a785b58b",
        "gas": "0x1bc31",
        "value": "0x0",
        "input": "0xe81668fc0000000000000000000000004f12d4e3fe59ad54f7e9704b71467eb368b2f49800000000000000000000000014866185b1962b63c3ea9e03bc1da838bab34c1900000000000000000000000000000000000000000000000000000000000151800000000000000000000000000000000000000000000000000000000000000008",
        "nonce": "0x19",
        "chainId": "0xaa36a7"
      },
      "additionalContracts": [],
      "isFixedGasLimit": false
    },
    {
      "hash": "0xa5786c4fe3ad3792c38c8177d31e75b98a2b352a4c7ee5903e45b826ac7aa819",
      "transactionType": "CALL",
      "contractName": null,
      "contractAddress": "0x8f86bFc69a9A8bfEceB81f02B8A34327a785b58b",
      "function": "addFeed(address,address,uint256,uint8)",
      "arguments": [
        "0xC98F51755976811c1D71d895DA2A73b46Dfbc918",
        "0xA2F78ab2355fe2f984D808B5CeE7FD0A93D5270E",
        "86400",
        "8"
      ],
      "transaction": {
        "from": "0xDDC9b558908E28279147D441BF626D4E3e5A5163",
        "to": "0x8f86bFc69a9A8bfEceB81f02B8A34327a785b58b",
        "gas": "0x1bc31",
        "value": "0x0",
        "input": "0xe81668fc000000000000000000000000c98f51755976811c1d71d895da2a73b46dfbc918000000000000000000000000a2f78ab2355fe2f984d808b5cee7fd0a93d5270e00000000000000000000000000000000000000000000000000000000000151800000000000000000000000000000000000000000000000000000000000000008",
        "nonce": "0x1a",
        "chainId": "0xaa36a7"
      },
      "additionalContracts": [],
      "isFixedGasLimit": false
    },
    {
      "hash": "0x1873c195e530ec3b59e1cba6d94199638cb10c6013943e87e1d14087761f9186",
      "transactionType": "CALL",
      "contractName": null,
      "contractAddress": "0x8f86bFc69a9A8bfEceB81f02B8A34327a785b58b",
      "function": "addFeed(address,address,uint256,uint8)",
      "arguments": [
        "0x5Fd341Ba92C4F6e6B7778Ba303D8B1EBd36A9cA0",
        "0x55ec7c3ed0d7CB5DF4d3d8bfEd2ecaf28b4638fb",
        "86400",
        "8"
      ],
      "transaction": {
        "from": "0xDDC9b558908E28279147D441BF626D4E3e5A5163",
        "to": "0x8f86bFc69a9A8bfEceB81f02B8A34327a785b58b",
        "gas": "0x1a328",
        "value": "0x0",
        "input": "0xe81668fc0000000000000000000000005fd341ba92c4f6e6b7778ba303d8b1ebd36a9ca000000000000000000000000055ec7c3ed0d7cb5df4d3d8bfed2ecaf28b4638fb00000000000000000000000000000000000000000000000000000000000151800000000000000000000000000000000000000000000000000000000000000008",
        "nonce": "0x1b",
        "chainId": "0xaa36a7"
      },
      "additionalContracts": [],
      "isFixedGasLimit": false
    },
    {
      "hash": "0xddd9ace78e5d78e7ae4aebe266e4bb27227f5e0fa7cda14fab38c231122497d3",
      "transactionType": "CALL",
      "contractName": null,
      "contractAddress": "0x8f86bFc69a9A8bfEceB81f02B8A34327a785b58b",
      "function": "addFeed(address,address,uint256,uint8)",
      "arguments": [
        "0x63c9C938be90E0692840E310e917aF1De40e314B",
        "0x6f7be09227d98Ce1Df812d5Bc745c0c775507E92",
        "86400",
        "8"
      ],
      "transaction": {
        "from": "0xDDC9b558908E28279147D441BF626D4E3e5A5163",
        "to": "0x8f86bFc69a9A8bfEceB81f02B8A34327a785b58b",
        "gas": "0x1a328",
        "value": "0x0",
        "input": "0xe81668fc00000000000000000000000063c9c938be90e0692840e310e917af1de40e314b0000000000000000000000006f7be09227d98ce1df812d5bc745c0c775507e9200000000000000000000000000000000000000000000000000000000000151800000000000000000000000000000000000000000000000000000000000000008",
        "nonce": "0x1c",
        "chainId": "0xaa36a7"
      },
      "additionalContracts": [],
      "isFixedGasLimit": false
    },
    {
      "hash": "0x2978256ee810dad5109231fa52bc675d12dafcf5a91dc45142f1c8bb9e21a72a",
      "transactionType": "CALL",
      "contractName": null,
      "contractAddress": "0x8FDE145B1289a99C6B15f363309d3cc9276c0b16",
      "function": "setAsset(address,uint8,uint8,address)",
      "arguments": [
        "0xC98F51755976811c1D71d895DA2A73b46Dfbc918",
        "6",
        "25",
        "0x0000000000000000000000000000000000000000"
      ],
      "transaction": {
        "from": "0xDDC9b558908E28279147D441BF626D4E3e5A5163",
        "to": "0x8FDE145B1289a99C6B15f363309d3cc9276c0b16",
        "gas": "0x29813",
        "value": "0x0",
        "input": "0x4d6008bc000000000000000000000000c98f51755976811c1d71d895da2a73b46dfbc918000000000000000000000000000000000000000000000000000000000000000600000000000000000000000000000000000000000000000000000000000000190000000000000000000000000000000000000000000000000000000000000000",
        "nonce": "0x1d",
        "chainId": "0xaa36a7"
      },
      "additionalContracts": [],
      "isFixedGasLimit": false
    },
    {
      "hash": "0x4955b8a7874f9ea6f2cb6c2f9554fc2ba3749ce70af07510d219c62dc1025740",
      "transactionType": "CALL",
      "contractName": null,
      "contractAddress": "0x8FDE145B1289a99C6B15f363309d3cc9276c0b16",
      "function": "setAsset(address,uint8,uint8,address)",
      "arguments": [
        "0x4F12d4e3FE59Ad54f7e9704B71467eB368b2F498",
        "18",
        "25",
        "0x0000000000000000000000000000000000000000"
      ],
      "transaction": {
        "from": "0xDDC9b558908E28279147D441BF626D4E3e5A5163",
        "to": "0x8FDE145B1289a99C6B15f363309d3cc9276c0b16",
        "gas": "0x1df8d",
        "value": "0x0",
        "input": "0x4d6008bc0000000000000000000000004f12d4e3fe59ad54f7e9704b71467eb368b2f498000000000000000000000000000000000000000000000000000000000000001200000000000000000000000000000000000000000000000000000000000000190000000000000000000000000000000000000000000000000000000000000000",
        "nonce": "0x1e",
        "chainId": "0xaa36a7"
      },
      "additionalContracts": [],
      "isFixedGasLimit": false
    },
    {
      "hash": "0x6452768e236fa742a787f2659e835d10d83059761c028f9f414f369f8f6b4fda",
      "transactionType": "CALL",
      "contractName": null,
      "contractAddress": "0x8FDE145B1289a99C6B15f363309d3cc9276c0b16",
      "function": "setAsset(address,uint8,uint8,address)",
      "arguments": [
        "0x5Fd341Ba92C4F6e6B7778Ba303D8B1EBd36A9cA0",
        "6",
        "25",
        "0x0000000000000000000000000000000000000000"
      ],
      "transaction": {
        "from": "0xDDC9b558908E28279147D441BF626D4E3e5A5163",
        "to": "0x8FDE145B1289a99C6B15f363309d3cc9276c0b16",
        "gas": "0x1df8d",
        "value": "0x0",
        "input": "0x4d6008bc0000000000000000000000005fd341ba92c4f6e6b7778ba303d8b1ebd36a9ca0000000000000000000000000000000000000000000000000000000000000000600000000000000000000000000000000000000000000000000000000000000190000000000000000000000000000000000000000000000000000000000000000",
        "nonce": "0x1f",
        "chainId": "0xaa36a7"
      },
      "additionalContracts": [],
      "isFixedGasLimit": false
    },
    {
      "hash": "0x9084d3935c6c366e67bffef8be90c059606dabd1a578212d136912c28d647fd8",
      "transactionType": "CALL",
      "contractName": null,
      "contractAddress": "0x8FDE145B1289a99C6B15f363309d3cc9276c0b16",
      "function": "setAsset(address,uint8,uint8,address)",
      "arguments": [
        "0x63c9C938be90E0692840E310e917aF1De40e314B",
        "18",
        "25",
        "0x0000000000000000000000000000000000000000"
      ],
      "transaction": {
        "from": "0xDDC9b558908E28279147D441BF626D4E3e5A5163",
        "to": "0x8FDE145B1289a99C6B15f363309d3cc9276c0b16",
        "gas": "0x1df8d",
        "value": "0x0",
        "input": "0x4d6008bc00000000000000000000000063c9c938be90e0692840e310e917af1de40e314b000000000000000000000000000000000000000000000000000000000000001200000000000000000000000000000000000000000000000000000000000000190000000000000000000000000000000000000000000000000000000000000000",
        "nonce": "0x20",
        "chainId": "0xaa36a7"
      },
      "additionalContracts": [],
      "isFixedGasLimit": false
    }
  ],
  "receipts": [
    {
      "status": "0x1",
      "cumulativeGasUsed": "0x15fa7c8",
      "logs": [
        {
          "address": "0x8FDE145B1289a99C6B15f363309d3cc9276c0b16",
          "topics": [
            "0xb12580e226e25bbb446909adeb7b42f7dd51fc77e9b58f14f321016cbd68c16a",
            "0x0000000000000000000000008f86bfc69a9a8bfeceb81f02b8a34327a785b58b"
          ],
          "data": "0x",
          "blockHash": "0x794d1b093aace22e90f79c4e6a81cc517479d4c5bb5f972ed17541cdd9d13215",
          "blockNumber": "0x6d0deb",
          "transactionHash": "0x3a1fef9369c4c2fd26b488283493b11c109dabb201e7cb1cf18f882cbac0cdb0",
          "transactionIndex": "0x2d1",
          "logIndex": "0x4e",
          "removed": false
        }
      ],
      "logsBloom": "0x00000000000000000000000000000000000000000000000000000000000000000000000000000000000000000000000000000000000000000000000000000000000000000000000000000000000000000000000000000000000000000000000001000000000000040000000000000000000000000000000a00000000000000000000000000000000000000000000000000000000002000000000000000000000000000000000000000000000000000000000000000000010040000000000000000000000000000000000000000000000000000800000200000000000000000000000000000000000000000000000000000000000000000000000000000000000",
      "type": "0x2",
      "transactionHash": "0x3a1fef9369c4c2fd26b488283493b11c109dabb201e7cb1cf18f882cbac0cdb0",
      "transactionIndex": "0x2d1",
      "blockHash": "0x794d1b093aace22e90f79c4e6a81cc517479d4c5bb5f972ed17541cdd9d13215",
      "blockNumber": "0x6d0deb",
      "gasUsed": "0xcc7a",
      "effectiveGasPrice": "0x101cb465a",
      "from": "0xDDC9b558908E28279147D441BF626D4E3e5A5163",
      "to": "0x8FDE145B1289a99C6B15f363309d3cc9276c0b16",
      "contractAddress": null
    },
    {
      "status": "0x1",
      "cumulativeGasUsed": "0x162f195",
      "logs": [],
      "logsBloom": "0x00000000000000000000000000000000000000000000000000000000000000000000000000000000000000000000000000000000000000000000000000000000000000000000000000000000000000000000000000000000000000000000000000000000000000000000000000000000000000000000000000000000000000000000000000000000000000000000000000000000000000000000000000000000000000000000000000000000000000000000000000000000000000000000000000000000000000000000000000000000000000000000000000000000000000000000000000000000000000000000000000000000000000000000000000000000",
      "type": "0x2",
      "transactionHash": "0xad5785e424831d08b4189094b3ebda77fc8d499b14ba117ccd83634ea5c58511",
      "transactionIndex": "0x2d8",
      "blockHash": "0x794d1b093aace22e90f79c4e6a81cc517479d4c5bb5f972ed17541cdd9d13215",
      "blockNumber": "0x6d0deb",
      "gasUsed": "0x12fb9",
      "effectiveGasPrice": "0x101cb465a",
      "from": "0xDDC9b558908E28279147D441BF626D4E3e5A5163",
      "to": "0x8f86bFc69a9A8bfEceB81f02B8A34327a785b58b",
      "contractAddress": null
    },
    {
      "status": "0x1",
      "cumulativeGasUsed": "0x170bcee",
      "logs": [],
      "logsBloom": "0x00000000000000000000000000000000000000000000000000000000000000000000000000000000000000000000000000000000000000000000000000000000000000000000000000000000000000000000000000000000000000000000000000000000000000000000000000000000000000000000000000000000000000000000000000000000000000000000000000000000000000000000000000000000000000000000000000000000000000000000000000000000000000000000000000000000000000000000000000000000000000000000000000000000000000000000000000000000000000000000000000000000000000000000000000000000",
      "type": "0x2",
      "transactionHash": "0xa5786c4fe3ad3792c38c8177d31e75b98a2b352a4c7ee5903e45b826ac7aa819",
      "transactionIndex": "0x2fd",
      "blockHash": "0x794d1b093aace22e90f79c4e6a81cc517479d4c5bb5f972ed17541cdd9d13215",
      "blockNumber": "0x6d0deb",
      "gasUsed": "0x12fb9",
      "effectiveGasPrice": "0x101cb465a",
      "from": "0xDDC9b558908E28279147D441BF626D4E3e5A5163",
      "to": "0x8f86bFc69a9A8bfEceB81f02B8A34327a785b58b",
      "contractAddress": null
    },
    {
      "status": "0x1",
      "cumulativeGasUsed": "0x171ec65",
      "logs": [],
      "logsBloom": "0x00000000000000000000000000000000000000000000000000000000000000000000000000000000000000000000000000000000000000000000000000000000000000000000000000000000000000000000000000000000000000000000000000000000000000000000000000000000000000000000000000000000000000000000000000000000000000000000000000000000000000000000000000000000000000000000000000000000000000000000000000000000000000000000000000000000000000000000000000000000000000000000000000000000000000000000000000000000000000000000000000000000000000000000000000000000",
      "type": "0x2",
      "transactionHash": "0x1873c195e530ec3b59e1cba6d94199638cb10c6013943e87e1d14087761f9186",
      "transactionIndex": "0x2fe",
      "blockHash": "0x794d1b093aace22e90f79c4e6a81cc517479d4c5bb5f972ed17541cdd9d13215",
      "blockNumber": "0x6d0deb",
      "gasUsed": "0x12f77",
      "effectiveGasPrice": "0x101cb465a",
      "from": "0xDDC9b558908E28279147D441BF626D4E3e5A5163",
      "to": "0x8f86bFc69a9A8bfEceB81f02B8A34327a785b58b",
      "contractAddress": null
    },
    {
      "status": "0x1",
      "cumulativeGasUsed": "0x1731bdc",
      "logs": [],
      "logsBloom": "0x00000000000000000000000000000000000000000000000000000000000000000000000000000000000000000000000000000000000000000000000000000000000000000000000000000000000000000000000000000000000000000000000000000000000000000000000000000000000000000000000000000000000000000000000000000000000000000000000000000000000000000000000000000000000000000000000000000000000000000000000000000000000000000000000000000000000000000000000000000000000000000000000000000000000000000000000000000000000000000000000000000000000000000000000000000000",
      "type": "0x2",
      "transactionHash": "0xddd9ace78e5d78e7ae4aebe266e4bb27227f5e0fa7cda14fab38c231122497d3",
      "transactionIndex": "0x2ff",
      "blockHash": "0x794d1b093aace22e90f79c4e6a81cc517479d4c5bb5f972ed17541cdd9d13215",
      "blockNumber": "0x6d0deb",
      "gasUsed": "0x12f77",
      "effectiveGasPrice": "0x101cb465a",
      "from": "0xDDC9b558908E28279147D441BF626D4E3e5A5163",
      "to": "0x8f86bFc69a9A8bfEceB81f02B8A34327a785b58b",
      "contractAddress": null
    },
    {
      "status": "0x1",
      "cumulativeGasUsed": "0x174fca4",
      "logs": [
        {
          "address": "0x8FDE145B1289a99C6B15f363309d3cc9276c0b16",
          "topics": [
            "0x81d8f2ab57d328daf9b412be01ea957254525442e8a76a9396ba827a26c5819e",
            "0x000000000000000000000000c98f51755976811c1d71d895da2a73b46dfbc918"
          ],
          "data": "0x00000000000000000000000000000000000000000000000000000000000000000000000000000000000000000000000000000000000000000000000000000019",
          "blockHash": "0x794d1b093aace22e90f79c4e6a81cc517479d4c5bb5f972ed17541cdd9d13215",
          "blockNumber": "0x6d0deb",
          "transactionHash": "0x2978256ee810dad5109231fa52bc675d12dafcf5a91dc45142f1c8bb9e21a72a",
          "transactionIndex": "0x300",
          "logIndex": "0x4f",
          "removed": false
        },
        {
          "address": "0x8FDE145B1289a99C6B15f363309d3cc9276c0b16",
          "topics": [
            "0xf08bc43f75af7913db7e4ca1a6a71163e4bcf63300c7a2c6d027b7f3f34f150c",
            "0x000000000000000000000000c98f51755976811c1d71d895da2a73b46dfbc918"
          ],
          "data": "0x00000000000000000000000000000000000000000000000000000000000000060000000000000000000000000000000000000000000000000000000000000019",
          "blockHash": "0x794d1b093aace22e90f79c4e6a81cc517479d4c5bb5f972ed17541cdd9d13215",
          "blockNumber": "0x6d0deb",
          "transactionHash": "0x2978256ee810dad5109231fa52bc675d12dafcf5a91dc45142f1c8bb9e21a72a",
          "transactionIndex": "0x300",
          "logIndex": "0x50",
          "removed": false
        }
      ],
      "logsBloom": "0x00000000000000000000000000000000000008000000000000000000000000000000000000000000000000000000000000000000000040000000000000000000000000000000000000000000000000000080000000000000000000000000000000000000000000040000000000000000000000000000000800000000000000000000800000000000008000000000000000000000000000000000000000000000000000000000000000000000000000000000000000000001040000000000000000000000000100000000000000000000000000000000010000000000000000000000000000000000000000000400000000000000000000000000000000000000",
      "type": "0x2",
      "transactionHash": "0x2978256ee810dad5109231fa52bc675d12dafcf5a91dc45142f1c8bb9e21a72a",
      "transactionIndex": "0x300",
      "blockHash": "0x794d1b093aace22e90f79c4e6a81cc517479d4c5bb5f972ed17541cdd9d13215",
      "blockNumber": "0x6d0deb",
      "gasUsed": "0x1e0c8",
      "effectiveGasPrice": "0x101cb465a",
      "from": "0xDDC9b558908E28279147D441BF626D4E3e5A5163",
      "to": "0x8FDE145B1289a99C6B15f363309d3cc9276c0b16",
      "contractAddress": null
    },
    {
      "status": "0x1",
      "cumulativeGasUsed": "0x17657d4",
      "logs": [
        {
          "address": "0x8FDE145B1289a99C6B15f363309d3cc9276c0b16",
          "topics": [
            "0x81d8f2ab57d328daf9b412be01ea957254525442e8a76a9396ba827a26c5819e",
            "0x0000000000000000000000004f12d4e3fe59ad54f7e9704b71467eb368b2f498"
          ],
          "data": "0x00000000000000000000000000000000000000000000000000000000000000000000000000000000000000000000000000000000000000000000000000000019",
          "blockHash": "0x794d1b093aace22e90f79c4e6a81cc517479d4c5bb5f972ed17541cdd9d13215",
          "blockNumber": "0x6d0deb",
          "transactionHash": "0x4955b8a7874f9ea6f2cb6c2f9554fc2ba3749ce70af07510d219c62dc1025740",
          "transactionIndex": "0x301",
          "logIndex": "0x51",
          "removed": false
        },
        {
          "address": "0x8FDE145B1289a99C6B15f363309d3cc9276c0b16",
          "topics": [
            "0xf08bc43f75af7913db7e4ca1a6a71163e4bcf63300c7a2c6d027b7f3f34f150c",
            "0x0000000000000000000000004f12d4e3fe59ad54f7e9704b71467eb368b2f498"
          ],
          "data": "0x00000000000000000000000000000000000000000000000000000000000000120000000000000000000000000000000000000000000000000000000000000019",
          "blockHash": "0x794d1b093aace22e90f79c4e6a81cc517479d4c5bb5f972ed17541cdd9d13215",
          "blockNumber": "0x6d0deb",
          "transactionHash": "0x4955b8a7874f9ea6f2cb6c2f9554fc2ba3749ce70af07510d219c62dc1025740",
          "transactionIndex": "0x301",
          "logIndex": "0x52",
          "removed": false
        }
      ],
      "logsBloom": "0x0000000000000000000000000000000000000800000000000000000000000000000000000000000000000000000000000000000000000000000000000000000000000000000000000000000000000000008000000000000000000000000000000000000000000004000000000000000000000000000000080000000000000000000080000000000000000000000000000000000000000000000000000000000000000000000000000000000000000000000000000000000104000000000000000000000020010000c000000000000000000000000000010000000000000000000000000000000000000000000000000000000000000000000000000000000000",
      "type": "0x2",
      "transactionHash": "0x4955b8a7874f9ea6f2cb6c2f9554fc2ba3749ce70af07510d219c62dc1025740",
      "transactionIndex": "0x301",
      "blockHash": "0x794d1b093aace22e90f79c4e6a81cc517479d4c5bb5f972ed17541cdd9d13215",
      "blockNumber": "0x6d0deb",
      "gasUsed": "0x15b30",
      "effectiveGasPrice": "0x101cb465a",
      "from": "0xDDC9b558908E28279147D441BF626D4E3e5A5163",
      "to": "0x8FDE145B1289a99C6B15f363309d3cc9276c0b16",
      "contractAddress": null
    },
    {
      "status": "0x1",
      "cumulativeGasUsed": "0x177b304",
      "logs": [
        {
          "address": "0x8FDE145B1289a99C6B15f363309d3cc9276c0b16",
          "topics": [
            "0x81d8f2ab57d328daf9b412be01ea957254525442e8a76a9396ba827a26c5819e",
            "0x0000000000000000000000005fd341ba92c4f6e6b7778ba303d8b1ebd36a9ca0"
          ],
          "data": "0x00000000000000000000000000000000000000000000000000000000000000000000000000000000000000000000000000000000000000000000000000000019",
          "blockHash": "0x794d1b093aace22e90f79c4e6a81cc517479d4c5bb5f972ed17541cdd9d13215",
          "blockNumber": "0x6d0deb",
          "transactionHash": "0x6452768e236fa742a787f2659e835d10d83059761c028f9f414f369f8f6b4fda",
          "transactionIndex": "0x302",
          "logIndex": "0x53",
          "removed": false
        },
        {
          "address": "0x8FDE145B1289a99C6B15f363309d3cc9276c0b16",
          "topics": [
            "0xf08bc43f75af7913db7e4ca1a6a71163e4bcf63300c7a2c6d027b7f3f34f150c",
            "0x0000000000000000000000005fd341ba92c4f6e6b7778ba303d8b1ebd36a9ca0"
          ],
          "data": "0x00000000000000000000000000000000000000000000000000000000000000060000000000000000000000000000000000000000000000000000000000000019",
          "blockHash": "0x794d1b093aace22e90f79c4e6a81cc517479d4c5bb5f972ed17541cdd9d13215",
          "blockNumber": "0x6d0deb",
          "transactionHash": "0x6452768e236fa742a787f2659e835d10d83059761c028f9f414f369f8f6b4fda",
          "transactionIndex": "0x302",
          "logIndex": "0x54",
          "removed": false
        }
      ],
      "logsBloom": "0x00000000000000000000000000000000000008000000000000000000000000000000000000000000000000000400000000000000000000000000000000000000000000000000000000000000000000000080000000000000000000000000000000000000000000040000000000000000000000000000000800000000000000000000800000000000000000000000000000000000000000000000000004000000000000000000000000000000000000000000000000000001040000000000000000000000000100000000000000000000000000000000010000000000000000000000000000000000000000000000000000000000000000000000000000004000",
      "type": "0x2",
      "transactionHash": "0x6452768e236fa742a787f2659e835d10d83059761c028f9f414f369f8f6b4fda",
      "transactionIndex": "0x302",
      "blockHash": "0x794d1b093aace22e90f79c4e6a81cc517479d4c5bb5f972ed17541cdd9d13215",
      "blockNumber": "0x6d0deb",
      "gasUsed": "0x15b30",
      "effectiveGasPrice": "0x101cb465a",
      "from": "0xDDC9b558908E28279147D441BF626D4E3e5A5163",
      "to": "0x8FDE145B1289a99C6B15f363309d3cc9276c0b16",
      "contractAddress": null
    },
    {
      "status": "0x1",
      "cumulativeGasUsed": "0x1790e34",
      "logs": [
        {
          "address": "0x8FDE145B1289a99C6B15f363309d3cc9276c0b16",
          "topics": [
            "0x81d8f2ab57d328daf9b412be01ea957254525442e8a76a9396ba827a26c5819e",
            "0x00000000000000000000000063c9c938be90e0692840e310e917af1de40e314b"
          ],
          "data": "0x00000000000000000000000000000000000000000000000000000000000000000000000000000000000000000000000000000000000000000000000000000019",
          "blockHash": "0x794d1b093aace22e90f79c4e6a81cc517479d4c5bb5f972ed17541cdd9d13215",
          "blockNumber": "0x6d0deb",
          "transactionHash": "0x9084d3935c6c366e67bffef8be90c059606dabd1a578212d136912c28d647fd8",
          "transactionIndex": "0x303",
          "logIndex": "0x55",
          "removed": false
        },
        {
          "address": "0x8FDE145B1289a99C6B15f363309d3cc9276c0b16",
          "topics": [
            "0xf08bc43f75af7913db7e4ca1a6a71163e4bcf63300c7a2c6d027b7f3f34f150c",
            "0x00000000000000000000000063c9c938be90e0692840e310e917af1de40e314b"
          ],
          "data": "0x00000000000000000000000000000000000000000000000000000000000000120000000000000000000000000000000000000000000000000000000000000019",
          "blockHash": "0x794d1b093aace22e90f79c4e6a81cc517479d4c5bb5f972ed17541cdd9d13215",
          "blockNumber": "0x6d0deb",
          "transactionHash": "0x9084d3935c6c366e67bffef8be90c059606dabd1a578212d136912c28d647fd8",
          "transactionIndex": "0x303",
          "logIndex": "0x56",
          "removed": false
        }
      ],
      "logsBloom": "0x00000000000000000010000000000000000008000000000000000000000000000000000000000000000000000000000000000000000000000000000000000000000000000000000000000000000000000080000000000000000000000000000000000000000000040000000000000000000000000000000800000000000000000000800000000000000000000000000000000000000000000000000000000000000000000000000000000000000000000000000000000001040000000000000000000000000100000000000000000000000000000000010000000000000000400000000000000000000000008000000000000000000000000000000000000000",
      "type": "0x2",
      "transactionHash": "0x9084d3935c6c366e67bffef8be90c059606dabd1a578212d136912c28d647fd8",
      "transactionIndex": "0x303",
      "blockHash": "0x794d1b093aace22e90f79c4e6a81cc517479d4c5bb5f972ed17541cdd9d13215",
      "blockNumber": "0x6d0deb",
      "gasUsed": "0x15b30",
      "effectiveGasPrice": "0x101cb465a",
      "from": "0xDDC9b558908E28279147D441BF626D4E3e5A5163",
      "to": "0x8FDE145B1289a99C6B15f363309d3cc9276c0b16",
      "contractAddress": null
    }
  ],
  "libraries": [],
  "pending": [],
  "returns": {},
  "timestamp": 1732503493,
  "chain": 11155111,
  "commit": "870449e"
}