{
  "transactions": [
    {
      "hash": "0xff9f14fa3ce1eecd41f7ba53fc6642cbd7a995979a8f7cf7a9a27aca6df44d3c",
      "transactionType": "CALL",
      "contractName": null,
      "contractAddress": "0x8FDE145B1289a99C6B15f363309d3cc9276c0b16",
      "function": "changeAsset(address,uint8,uint8,address)",
      "arguments": [
        "0x63c9C938be90E0692840E310e917aF1De40e314B",
        "18",
        "25",
        "0x6662cBF86b2d15a46D031457737300D0363aD342"
      ],
      "transaction": {
        "from": "0xDDC9b558908E28279147D441BF626D4E3e5A5163",
        "to": "0x8FDE145B1289a99C6B15f363309d3cc9276c0b16",
        "gas": "0xe2cd",
        "value": "0x0",
        "input": "0xe3024f2b00000000000000000000000063c9c938be90e0692840e310e917af1de40e314b000000000000000000000000000000000000000000000000000000000000001200000000000000000000000000000000000000000000000000000000000000190000000000000000000000006662cbf86b2d15a46d031457737300d0363ad342",
        "nonce": "0x51",
        "chainId": "0xaa36a7"
      },
      "additionalContracts": [],
      "isFixedGasLimit": false
    }
  ],
  "receipts": [
    {
      "status": "0x1",
      "cumulativeGasUsed": "0x11050ba",
      "logs": [
        {
          "address": "0x8FDE145B1289a99C6B15f363309d3cc9276c0b16",
          "topics": [
            "0x81d8f2ab57d328daf9b412be01ea957254525442e8a76a9396ba827a26c5819e",
            "0x00000000000000000000000063c9c938be90e0692840e310e917af1de40e314b"
          ],
          "data": "0x00000000000000000000000000000000000000000000000000000000000000190000000000000000000000000000000000000000000000000000000000000019",
          "blockHash": "0x29bf2380480521cfc453bef0a5559a78d6e1702beac93c84048be35aef1c4569",
          "blockNumber": "0x6d7624",
          "transactionHash": "0xff9f14fa3ce1eecd41f7ba53fc6642cbd7a995979a8f7cf7a9a27aca6df44d3c",
          "transactionIndex": "0x1a8",
          "logIndex": "0x92",
          "removed": false
        },
        {
          "address": "0x8FDE145B1289a99C6B15f363309d3cc9276c0b16",
          "topics": [
            "0x83e6290fd71fb89de26d8cee1d86ad3930533a74f5c87f033ac92bf860f3dd8c",
            "0x00000000000000000000000063c9c938be90e0692840e310e917af1de40e314b"
          ],
          "data": "0x00000000000000000000000000000000000000000000000000000000000000120000000000000000000000000000000000000000000000000000000000000019",
          "blockHash": "0x29bf2380480521cfc453bef0a5559a78d6e1702beac93c84048be35aef1c4569",
          "blockNumber": "0x6d7624",
          "transactionHash": "0xff9f14fa3ce1eecd41f7ba53fc6642cbd7a995979a8f7cf7a9a27aca6df44d3c",
          "transactionIndex": "0x1a8",
          "logIndex": "0x93",
          "removed": false
        }
      ],
      "logsBloom": "0x00000000000000000010000000000000000008000000000000000000000000000000000000000000000000000000000000020000800000000000000000000000000000000000000000000000000000000080000000000000000000000000000000000000000000040000000000000000000000000000000800000000000000000000000000000000000000000000000000000000000000000000000000000000000000000000000000000000000000000000000000000001040000000000000000000000000000000000000000000000000000000000000000000000000000400000000000000000000000008000000000000000000000000000000000080000",
      "type": "0x2",
      "transactionHash": "0xff9f14fa3ce1eecd41f7ba53fc6642cbd7a995979a8f7cf7a9a27aca6df44d3c",
      "transactionIndex": "0x1a8",
      "blockHash": "0x29bf2380480521cfc453bef0a5559a78d6e1702beac93c84048be35aef1c4569",
      "blockNumber": "0x6d7624",
      "gasUsed": "0xa434",
      "effectiveGasPrice": "0x19dde6",
      "from": "0xDDC9b558908E28279147D441BF626D4E3e5A5163",
      "to": "0x8FDE145B1289a99C6B15f363309d3cc9276c0b16",
      "contractAddress": null
    }
  ],
  "libraries": [],
  "pending": [],
  "returns": {},
  "timestamp": 1732843937,
  "chain": 11155111,
  "commit": "7a5242a"
}