{
  "transactions": [
    {
      "hash": "0x3a9b719e8b24b5523daf3d0a765eb6514a199bc1a0bf05a9ae0cd5f177aad3ff",
      "transactionType": "CALL",
      "contractName": null,
      "contractAddress": "0x8FDE145B1289a99C6B15f363309d3cc9276c0b16",
      "function": "changeAsset(address,uint8,uint8,address)",
      "arguments": [
        "0xC98F51755976811c1D71d895DA2A73b46Dfbc918",
        "18",
        "75",
        "0x99E354BA3D62259140a7f148E6848a30acF39c29"
      ],
      "transaction": {
        "from": "0xDDC9b558908E28279147D441BF626D4E3e5A5163",
        "to": "0x8FDE145B1289a99C6B15f363309d3cc9276c0b16",
        "gas": "0x10096",
        "value": "0x0",
        "input": "0xe3024f2b000000000000000000000000c98f51755976811c1d71d895da2a73b46dfbc9180000000000000000000000000000000000000000000000000000000000000012000000000000000000000000000000000000000000000000000000000000004b00000000000000000000000099e354ba3d62259140a7f148e6848a30acf39c29",
        "nonce": "0x63",
        "chainId": "0xaa36a7"
      },
      "additionalContracts": [],
      "isFixedGasLimit": false
    },
    {
      "hash": "0x6a09e2109505a1bde52d227e56d9740f933f884392ee693de6274016b503cac8",
      "transactionType": "CALL",
      "contractName": null,
      "contractAddress": "0x8FDE145B1289a99C6B15f363309d3cc9276c0b16",
      "function": "changeAsset(address,uint8,uint8,address)",
      "arguments": [
        "0x4F12d4e3FE59Ad54f7e9704B71467eB368b2F498",
        "18",
        "50",
        "0xD3a9443a0948D6c7a56F7aDB3363b60a72945166"
      ],
      "transaction": {
        "from": "0xDDC9b558908E28279147D441BF626D4E3e5A5163",
        "to": "0x8FDE145B1289a99C6B15f363309d3cc9276c0b16",
        "gas": "0x10096",
        "value": "0x0",
        "input": "0xe3024f2b0000000000000000000000004f12d4e3fe59ad54f7e9704b71467eb368b2f49800000000000000000000000000000000000000000000000000000000000000120000000000000000000000000000000000000000000000000000000000000032000000000000000000000000d3a9443a0948d6c7a56f7adb3363b60a72945166",
        "nonce": "0x64",
        "chainId": "0xaa36a7"
      },
      "additionalContracts": [],
      "isFixedGasLimit": false
    },
    {
      "hash": "0xe3e8138072ce9454e42dd90d179f578a591b64dd5468b8438995029a5792ea11",
      "transactionType": "CALL",
      "contractName": null,
      "contractAddress": "0x8FDE145B1289a99C6B15f363309d3cc9276c0b16",
      "function": "changeAsset(address,uint8,uint8,address)",
      "arguments": [
        "0x5Fd341Ba92C4F6e6B7778Ba303D8B1EBd36A9cA0",
        "18",
        "25",
        "0x5a773d04fbf4de670E195dBE710d630ae4CF81E2"
      ],
      "transaction": {
        "from": "0xDDC9b558908E28279147D441BF626D4E3e5A5163",
        "to": "0x8FDE145B1289a99C6B15f363309d3cc9276c0b16",
        "gas": "0xe098",
        "value": "0x0",
        "input": "0xe3024f2b0000000000000000000000005fd341ba92c4f6e6b7778ba303d8b1ebd36a9ca0000000000000000000000000000000000000000000000000000000000000001200000000000000000000000000000000000000000000000000000000000000190000000000000000000000005a773d04fbf4de670e195dbe710d630ae4cf81e2",
        "nonce": "0x65",
        "chainId": "0xaa36a7"
      },
      "additionalContracts": [],
      "isFixedGasLimit": false
    },
    {
      "hash": "0x6b6451892ee1a1dfd88f2240512b16f84157c3d82d129be65ed293a3018f221e",
      "transactionType": "CALL",
      "contractName": null,
      "contractAddress": "0x8FDE145B1289a99C6B15f363309d3cc9276c0b16",
      "function": "changeAsset(address,uint8,uint8,address)",
      "arguments": [
        "0x63c9C938be90E0692840E310e917aF1De40e314B",
        "18",
        "50",
        "0x6662cBF86b2d15a46D031457737300D0363aD342"
      ],
      "transaction": {
        "from": "0xDDC9b558908E28279147D441BF626D4E3e5A5163",
        "to": "0x8FDE145B1289a99C6B15f363309d3cc9276c0b16",
        "gas": "0xd40d",
        "value": "0x0",
        "input": "0xe3024f2b00000000000000000000000063c9c938be90e0692840e310e917af1de40e314b000000000000000000000000000000000000000000000000000000000000001200000000000000000000000000000000000000000000000000000000000000320000000000000000000000006662cbf86b2d15a46d031457737300d0363ad342",
        "nonce": "0x66",
        "chainId": "0xaa36a7"
      },
      "additionalContracts": [],
      "isFixedGasLimit": false
    }
  ],
  "receipts": [
    {
      "status": "0x1",
      "cumulativeGasUsed": "0x1a3c276",
      "logs": [
        {
          "address": "0x8FDE145B1289a99C6B15f363309d3cc9276c0b16",
          "topics": [
            "0x81d8f2ab57d328daf9b412be01ea957254525442e8a76a9396ba827a26c5819e",
            "0x000000000000000000000000c98f51755976811c1d71d895da2a73b46dfbc918"
          ],
          "data": "0x0000000000000000000000000000000000000000000000000000000000000032000000000000000000000000000000000000000000000000000000000000004b",
          "blockHash": "0x8c445e29e715bdfe0a8b6da86083256f27b8f17c5e510479df507c46bb44e596",
          "blockNumber": "0x6db817",
          "transactionHash": "0x3a9b719e8b24b5523daf3d0a765eb6514a199bc1a0bf05a9ae0cd5f177aad3ff",
          "transactionIndex": "0x26d",
          "logIndex": "0xff",
          "removed": false
        },
        {
          "address": "0x8FDE145B1289a99C6B15f363309d3cc9276c0b16",
          "topics": [
            "0x83e6290fd71fb89de26d8cee1d86ad3930533a74f5c87f033ac92bf860f3dd8c",
            "0x000000000000000000000000c98f51755976811c1d71d895da2a73b46dfbc918"
          ],
          "data": "0x0000000000000000000000000000000000000000000000000000000000000012000000000000000000000000000000000000000000000000000000000000004b",
          "blockHash": "0x8c445e29e715bdfe0a8b6da86083256f27b8f17c5e510479df507c46bb44e596",
          "blockNumber": "0x6db817",
          "transactionHash": "0x3a9b719e8b24b5523daf3d0a765eb6514a199bc1a0bf05a9ae0cd5f177aad3ff",
          "transactionIndex": "0x26d",
          "logIndex": "0x100",
          "removed": false
        }
      ],
      "logsBloom": "0x00000000000000000000000000000000000008000000000000000000000000000000000000000000000000000000000000020000800040000000000000000000000000000000000000000000000000000080000000000000000000000000000000000000000000040000000000000000000000000000000800000000000000000000000000000000008000000000000000000000000000000000000000000000000000000000000000000000000000000000000000000001040000000000000000000000000000000000000000000000000000000000000000000000000000000000000000000000000000000400000000000000000000000000000000080000",
      "type": "0x2",
      "transactionHash": "0x3a9b719e8b24b5523daf3d0a765eb6514a199bc1a0bf05a9ae0cd5f177aad3ff",
      "transactionIndex": "0x26d",
      "blockHash": "0x8c445e29e715bdfe0a8b6da86083256f27b8f17c5e510479df507c46bb44e596",
      "blockNumber": "0x6db817",
      "gasUsed": "0xaf72",
      "effectiveGasPrice": "0x131bab4e2",
      "from": "0xDDC9b558908E28279147D441BF626D4E3e5A5163",
      "to": "0x8FDE145B1289a99C6B15f363309d3cc9276c0b16",
      "contractAddress": null
    },
    {
      "status": "0x1",
      "cumulativeGasUsed": "0x1a4c3f0",
      "logs": [
        {
          "address": "0x8FDE145B1289a99C6B15f363309d3cc9276c0b16",
          "topics": [
            "0x81d8f2ab57d328daf9b412be01ea957254525442e8a76a9396ba827a26c5819e",
            "0x0000000000000000000000004f12d4e3fe59ad54f7e9704b71467eb368b2f498"
          ],
          "data": "0x000000000000000000000000000000000000000000000000000000000000004b0000000000000000000000000000000000000000000000000000000000000032",
          "blockHash": "0x8c445e29e715bdfe0a8b6da86083256f27b8f17c5e510479df507c46bb44e596",
          "blockNumber": "0x6db817",
          "transactionHash": "0x6a09e2109505a1bde52d227e56d9740f933f884392ee693de6274016b503cac8",
          "transactionIndex": "0x26f",
          "logIndex": "0x101",
          "removed": false
        },
        {
          "address": "0x8FDE145B1289a99C6B15f363309d3cc9276c0b16",
          "topics": [
            "0x83e6290fd71fb89de26d8cee1d86ad3930533a74f5c87f033ac92bf860f3dd8c",
            "0x0000000000000000000000004f12d4e3fe59ad54f7e9704b71467eb368b2f498"
          ],
          "data": "0x00000000000000000000000000000000000000000000000000000000000000120000000000000000000000000000000000000000000000000000000000000032",
          "blockHash": "0x8c445e29e715bdfe0a8b6da86083256f27b8f17c5e510479df507c46bb44e596",
          "blockNumber": "0x6db817",
          "transactionHash": "0x6a09e2109505a1bde52d227e56d9740f933f884392ee693de6274016b503cac8",
          "transactionIndex": "0x26f",
          "logIndex": "0x102",
          "removed": false
        }
      ],
      "logsBloom": "0x0000000000000000000000000000000000000800000000000000000000000000000000000000000000000000000000000002000080000000000000000000000000000000000000000000000000000000008000000000000000000000000000000000000000000004000000000000000000000000000000080000000000000000000000000000000000000000000000000000000000000000000000000000000000000000000000000000000000000000000000000000000104000000000000000000000020000000c000000000000000000000000000000000000000000000000000000000000000000000000000000000000000000000000000000000080000",
      "type": "0x2",
      "transactionHash": "0x6a09e2109505a1bde52d227e56d9740f933f884392ee693de6274016b503cac8",
      "transactionIndex": "0x26f",
      "blockHash": "0x8c445e29e715bdfe0a8b6da86083256f27b8f17c5e510479df507c46bb44e596",
      "blockNumber": "0x6db817",
      "gasUsed": "0xaf72",
      "effectiveGasPrice": "0x131bab4e2",
      "from": "0xDDC9b558908E28279147D441BF626D4E3e5A5163",
      "to": "0x8FDE145B1289a99C6B15f363309d3cc9276c0b16",
      "contractAddress": null
    },
    {
      "status": "0x1",
      "cumulativeGasUsed": "0x1a55d82",
      "logs": [
        {
          "address": "0x8FDE145B1289a99C6B15f363309d3cc9276c0b16",
          "topics": [
            "0x81d8f2ab57d328daf9b412be01ea957254525442e8a76a9396ba827a26c5819e",
            "0x0000000000000000000000005fd341ba92c4f6e6b7778ba303d8b1ebd36a9ca0"
          ],
          "data": "0x00000000000000000000000000000000000000000000000000000000000000190000000000000000000000000000000000000000000000000000000000000019",
          "blockHash": "0x8c445e29e715bdfe0a8b6da86083256f27b8f17c5e510479df507c46bb44e596",
          "blockNumber": "0x6db817",
          "transactionHash": "0xe3e8138072ce9454e42dd90d179f578a591b64dd5468b8438995029a5792ea11",
          "transactionIndex": "0x270",
          "logIndex": "0x103",
          "removed": false
        },
        {
          "address": "0x8FDE145B1289a99C6B15f363309d3cc9276c0b16",
          "topics": [
            "0x83e6290fd71fb89de26d8cee1d86ad3930533a74f5c87f033ac92bf860f3dd8c",
            "0x0000000000000000000000005fd341ba92c4f6e6b7778ba303d8b1ebd36a9ca0"
          ],
          "data": "0x00000000000000000000000000000000000000000000000000000000000000120000000000000000000000000000000000000000000000000000000000000019",
          "blockHash": "0x8c445e29e715bdfe0a8b6da86083256f27b8f17c5e510479df507c46bb44e596",
          "blockNumber": "0x6db817",
          "transactionHash": "0xe3e8138072ce9454e42dd90d179f578a591b64dd5468b8438995029a5792ea11",
          "transactionIndex": "0x270",
          "logIndex": "0x104",
          "removed": false
        }
      ],
      "logsBloom": "0x00000000000000000000000000000000000008000000000000000000000000000000000000000000000000000400000000020000800000000000000000000000000000000000000000000000000000000080000000000000000000000000000000000000000000040000000000000000000000000000000800000000000000000000000000000000000000000000000000000000000000000000000004000000000000000000000000000000000000000000000000000001040000000000000000000000000000000000000000000000000000000000000000000000000000000000000000000000000000000000000000000000000000000000000000084000",
      "type": "0x2",
      "transactionHash": "0xe3e8138072ce9454e42dd90d179f578a591b64dd5468b8438995029a5792ea11",
      "transactionIndex": "0x270",
      "blockHash": "0x8c445e29e715bdfe0a8b6da86083256f27b8f17c5e510479df507c46bb44e596",
      "blockNumber": "0x6db817",
      "gasUsed": "0x9992",
      "effectiveGasPrice": "0x131bab4e2",
      "from": "0xDDC9b558908E28279147D441BF626D4E3e5A5163",
      "to": "0x8FDE145B1289a99C6B15f363309d3cc9276c0b16",
      "contractAddress": null
    },
    {
      "status": "0x1",
      "cumulativeGasUsed": "0x1a5f708",
      "logs": [
        {
          "address": "0x8FDE145B1289a99C6B15f363309d3cc9276c0b16",
          "topics": [
            "0x81d8f2ab57d328daf9b412be01ea957254525442e8a76a9396ba827a26c5819e",
            "0x00000000000000000000000063c9c938be90e0692840e310e917af1de40e314b"
          ],
          "data": "0x00000000000000000000000000000000000000000000000000000000000000320000000000000000000000000000000000000000000000000000000000000032",
          "blockHash": "0x8c445e29e715bdfe0a8b6da86083256f27b8f17c5e510479df507c46bb44e596",
          "blockNumber": "0x6db817",
          "transactionHash": "0x6b6451892ee1a1dfd88f2240512b16f84157c3d82d129be65ed293a3018f221e",
          "transactionIndex": "0x271",
          "logIndex": "0x105",
          "removed": false
        },
        {
          "address": "0x8FDE145B1289a99C6B15f363309d3cc9276c0b16",
          "topics": [
            "0x83e6290fd71fb89de26d8cee1d86ad3930533a74f5c87f033ac92bf860f3dd8c",
            "0x00000000000000000000000063c9c938be90e0692840e310e917af1de40e314b"
          ],
          "data": "0x00000000000000000000000000000000000000000000000000000000000000120000000000000000000000000000000000000000000000000000000000000032",
          "blockHash": "0x8c445e29e715bdfe0a8b6da86083256f27b8f17c5e510479df507c46bb44e596",
          "blockNumber": "0x6db817",
          "transactionHash": "0x6b6451892ee1a1dfd88f2240512b16f84157c3d82d129be65ed293a3018f221e",
          "transactionIndex": "0x271",
          "logIndex": "0x106",
          "removed": false
        }
      ],
      "logsBloom": "0x00000000000000000010000000000000000008000000000000000000000000000000000000000000000000000000000000020000800000000000000000000000000000000000000000000000000000000080000000000000000000000000000000000000000000040000000000000000000000000000000800000000000000000000000000000000000000000000000000000000000000000000000000000000000000000000000000000000000000000000000000000001040000000000000000000000000000000000000000000000000000000000000000000000000000400000000000000000000000008000000000000000000000000000000000080000",
      "type": "0x2",
      "transactionHash": "0x6b6451892ee1a1dfd88f2240512b16f84157c3d82d129be65ed293a3018f221e",
      "transactionIndex": "0x271",
      "blockHash": "0x8c445e29e715bdfe0a8b6da86083256f27b8f17c5e510479df507c46bb44e596",
      "blockNumber": "0x6db817",
      "gasUsed": "0x9986",
      "effectiveGasPrice": "0x131bab4e2",
      "from": "0xDDC9b558908E28279147D441BF626D4E3e5A5163",
      "to": "0x8FDE145B1289a99C6B15f363309d3cc9276c0b16",
      "contractAddress": null
    }
  ],
  "libraries": [],
  "pending": [],
  "returns": {},
  "timestamp": 1733068791,
  "chain": 11155111,
  "commit": "562c4bb"
}