{
  "transactions": [
    {
      "hash": "0xbb644fefd545972a825b5d9c45997943781e105eab0857a5a13ad6f70c8df7a0",
      "transactionType": "CALL",
      "contractName": null,
      "contractAddress": "0x8FDE145B1289a99C6B15f363309d3cc9276c0b16",
      "function": "changeAsset(address,uint8,uint8,address)",
      "arguments": [
        "0xC98F51755976811c1D71d895DA2A73b46Dfbc918",
        "6",
        "25",
        "0x99E354BA3D62259140a7f148E6848a30acF39c29"
      ],
      "transaction": {
        "from": "0xDDC9b558908E28279147D441BF626D4E3e5A5163",
        "to": "0x8FDE145B1289a99C6B15f363309d3cc9276c0b16",
        "gas": "0xe2de",
        "value": "0x0",
        "input": "0xe3024f2b000000000000000000000000c98f51755976811c1d71d895da2a73b46dfbc9180000000000000000000000000000000000000000000000000000000000000006000000000000000000000000000000000000000000000000000000000000001900000000000000000000000099e354ba3d62259140a7f148e6848a30acf39c29",
        "nonce": "0x4e",
        "chainId": "0xaa36a7"
      },
      "additionalContracts": [],
      "isFixedGasLimit": false
    },
    {
      "hash": "0xf2545089ef643433aa4fda7b8a2e9103851816434b93634c30cda81e8650e74e",
      "transactionType": "CALL",
      "contractName": null,
      "contractAddress": "0x8FDE145B1289a99C6B15f363309d3cc9276c0b16",
      "function": "changeAsset(address,uint8,uint8,address)",
      "arguments": [
        "0x4F12d4e3FE59Ad54f7e9704B71467eB368b2F498",
        "18",
        "25",
        "0xD3a9443a0948D6c7a56F7aDB3363b60a72945166"
      ],
      "transaction": {
        "from": "0xDDC9b558908E28279147D441BF626D4E3e5A5163",
        "to": "0x8FDE145B1289a99C6B15f363309d3cc9276c0b16",
        "gas": "0xe2de",
        "value": "0x0",
        "input": "0xe3024f2b0000000000000000000000004f12d4e3fe59ad54f7e9704b71467eb368b2f49800000000000000000000000000000000000000000000000000000000000000120000000000000000000000000000000000000000000000000000000000000019000000000000000000000000d3a9443a0948d6c7a56f7adb3363b60a72945166",
        "nonce": "0x4f",
        "chainId": "0xaa36a7"
      },
      "additionalContracts": [],
      "isFixedGasLimit": false
    },
    {
      "hash": "0x4ed47d048eac8fabdcee86b532a7ffa5dfe54d8e1e7018e8646a84f9e63b4aa3",
      "transactionType": "CALL",
      "contractName": null,
      "contractAddress": "0x8FDE145B1289a99C6B15f363309d3cc9276c0b16",
      "function": "changeAsset(address,uint8,uint8,address)",
      "arguments": [
        "0x5Fd341Ba92C4F6e6B7778Ba303D8B1EBd36A9cA0",
        "6",
        "25",
        "0x5a773d04fbf4de670E195dBE710d630ae4CF81E2"
      ],
      "transaction": {
        "from": "0xDDC9b558908E28279147D441BF626D4E3e5A5163",
        "to": "0x8FDE145B1289a99C6B15f363309d3cc9276c0b16",
        "gas": "0xe2de",
        "value": "0x0",
        "input": "0xe3024f2b0000000000000000000000005fd341ba92c4f6e6b7778ba303d8b1ebd36a9ca0000000000000000000000000000000000000000000000000000000000000000600000000000000000000000000000000000000000000000000000000000000190000000000000000000000005a773d04fbf4de670e195dbe710d630ae4cf81e2",
        "nonce": "0x50",
        "chainId": "0xaa36a7"
      },
      "additionalContracts": [],
      "isFixedGasLimit": false
    },
    {
      "hash": null,
      "transactionType": "CALL",
      "contractName": null,
      "contractAddress": "0x8FDE145B1289a99C6B15f363309d3cc9276c0b16",
      "function": "changeAsset(address,uint8,uint8,address)",
      "arguments": [
        "0x63c9C938be90E0692840E310e917aF1De40e314B",
        "18",
        "25",
        "0x6662cBF86b2d15a46D031457737300D0363aD342"
      ],
      "transaction": {
        "from": "0xDDC9b558908E28279147D441BF626D4E3e5A5163",
        "to": "0x8FDE145B1289a99C6B15f363309d3cc9276c0b16",
        "gas": "0xe2cd",
        "value": "0x0",
        "input": "0xe3024f2b00000000000000000000000063c9c938be90e0692840e310e917af1de40e314b000000000000000000000000000000000000000000000000000000000000001200000000000000000000000000000000000000000000000000000000000000190000000000000000000000006662cbf86b2d15a46d031457737300d0363ad342",
        "nonce": "0x51",
        "chainId": "0xaa36a7"
      },
      "additionalContracts": [],
      "isFixedGasLimit": false
    }
  ],
  "receipts": [],
  "libraries": [],
  "pending": [
    "0xbb644fefd545972a825b5d9c45997943781e105eab0857a5a13ad6f70c8df7a0",
    "0xf2545089ef643433aa4fda7b8a2e9103851816434b93634c30cda81e8650e74e",
    "0x4ed47d048eac8fabdcee86b532a7ffa5dfe54d8e1e7018e8646a84f9e63b4aa3"
  ],
  "returns": {},
  "timestamp": 1732843751,
  "chain": 11155111,
  "commit": "7a5242a"
}