{
  "transactions": [
    {
      "hash": "0x85ab57df195f5c8e94aa5e7dc5973a4b5c857cd5d675f6d6ada9a5ff1b62d312",
      "transactionType": "CALL",
      "contractName": null,
      "contractAddress": "0x2DC4Da4832604f886A81120dB11108057f6D6BAf",
      "function": "setNewImplementation(address)",
      "arguments": [
        "0x68A610FA4766952c91A35BbeDf3f6A02065eCacB"
      ],
      "transaction": {
        "from": "0xDDC9b558908E28279147D441BF626D4E3e5A5163",
        "to": "0x2DC4Da4832604f886A81120dB11108057f6D6BAf",
        "gas": "0xd1f3",
        "value": "0x0",
        "input": "0xadb3ce9200000000000000000000000068a610fa4766952c91a35bbedf3f6a02065ecacb",
        "nonce": "0x52",
        "chainId": "0x3039"
      },
      "additionalContracts": [],
      "isFixedGasLimit": false
    }
  ],
  "receipts": [
    {
      "status": "0x1",
      "cumulativeGasUsed": "0x9800",
      "logs": [],
      "logsBloom": "0x00000000000000000000000000000000000000000000000000000000000000000000000000000000000000000000000000000000000000000000000000000000000000000000000000000000000000000000000000000000000000000000000000000000000000000000000000000000000000000000000000000000000000000000000000000000000000000000000000000000000000000000000000000000000000000000000000000000000000000000000000000000000000000000000000000000000000000000000000000000000000000000000000000000000000000000000000000000000000000000000000000000000000000000000000000000",
      "type": "0x2",
      "transactionHash": "0x85ab57df195f5c8e94aa5e7dc5973a4b5c857cd5d675f6d6ada9a5ff1b62d312",
      "transactionIndex": "0x0",
      "blockHash": "0x20c654bf90b9e0e91c364f21a84024c525105bee17da5c0500acd0eca7c4c1d3",
      "blockNumber": "0x145527e",
      "gasUsed": "0x9800",
      "effectiveGasPrice": "0x3",
      "blobGasUsed": "0x0",
      "from": "0xDDC9b558908E28279147D441BF626D4E3e5A5163",
      "to": "0x2DC4Da4832604f886A81120dB11108057f6D6BAf",
      "contractAddress": null
    }
  ],
  "libraries": [],
  "pending": [],
  "returns": {},
  "timestamp": 1733658066,
  "chain": 12345,
  "commit": "f6ae516"
}