{
  "transactions": [
    {
      "hash": "0xe2170368f94d75321e7c01715102bc68c3b45f714281d4fca0e9a81a1e533f79",
      "transactionType": "CALL",
      "contractName": "CustomERC20",
      "contractAddress": "0x4F12d4e3FE59Ad54f7e9704B71467eB368b2F498",
      "function": "transfer(address,uint256)",
      "arguments": [
        "0x5118470D402d840a0091c6574F7D8ee5C32e0551",
        "10000000000000000000000"
      ],
      "transaction": {
        "from": "0xDDC9b558908E28279147D441BF626D4E3e5A5163",
        "to": "0x4F12d4e3FE59Ad54f7e9704B71467eB368b2F498",
        "gas": "0x124de",
        "value": "0x0",
        "input": "0xa9059cbb0000000000000000000000005118470d402d840a0091c6574f7d8ee5c32e055100000000000000000000000000000000000000000000021e19e0c9bab2400000",
        "nonce": "0xd",
        "chainId": "0xaa36a7"
      },
      "additionalContracts": [],
      "isFixedGasLimit": false
    },
    {
      "hash": "0xee2ec10358d2df16af29332ef2a5e59c3400cf4106acb343279c335b07ab4dda",
      "transactionType": "CALL",
      "contractName": "CustomERC20",
      "contractAddress": "0x4F12d4e3FE59Ad54f7e9704B71467eB368b2F498",
      "function": "transfer(address,uint256)",
      "arguments": [
        "0x3cA5f5caa07b47c5c6c85afC684A482d2cE9a5e4",
        "10000000000000000000000"
      ],
      "transaction": {
        "from": "0xDDC9b558908E28279147D441BF626D4E3e5A5163",
        "to": "0x4F12d4e3FE59Ad54f7e9704B71467eB368b2F498",
        "gas": "0x114a9",
        "value": "0x0",
        "input": "0xa9059cbb0000000000000000000000003ca5f5caa07b47c5c6c85afc684a482d2ce9a5e400000000000000000000000000000000000000000000021e19e0c9bab2400000",
        "nonce": "0xe",
        "chainId": "0xaa36a7"
      },
      "additionalContracts": [],
      "isFixedGasLimit": false
    },
    {
      "hash": "0x1a2e90fe336b75b5e9e81f9527670d4f2abb0c2da954cde26d57f334d6e5218e",
      "transactionType": "CALL",
      "contractName": "CustomERC20",
      "contractAddress": "0xC98F51755976811c1D71d895DA2A73b46Dfbc918",
      "function": "transfer(address,uint256)",
      "arguments": [
        "0x5118470D402d840a0091c6574F7D8ee5C32e0551",
        "10000000000000000000000"
      ],
      "transaction": {
        "from": "0xDDC9b558908E28279147D441BF626D4E3e5A5163",
        "to": "0xC98F51755976811c1D71d895DA2A73b46Dfbc918",
        "gas": "0x124de",
        "value": "0x0",
        "input": "0xa9059cbb0000000000000000000000005118470d402d840a0091c6574f7d8ee5c32e055100000000000000000000000000000000000000000000021e19e0c9bab2400000",
        "nonce": "0xf",
        "chainId": "0xaa36a7"
      },
      "additionalContracts": [],
      "isFixedGasLimit": false
    },
    {
      "hash": null,
      "transactionType": "CALL",
      "contractName": "CustomERC20",
      "contractAddress": "0xC98F51755976811c1D71d895DA2A73b46Dfbc918",
      "function": "transfer(address,uint256)",
      "arguments": [
        "0x3cA5f5caa07b47c5c6c85afC684A482d2cE9a5e4",
        "10000000000000000000000"
      ],
      "transaction": {
        "from": "0xDDC9b558908E28279147D441BF626D4E3e5A5163",
        "to": "0xC98F51755976811c1D71d895DA2A73b46Dfbc918",
        "gas": "0x114a9",
        "value": "0x0",
        "input": "0xa9059cbb0000000000000000000000003ca5f5caa07b47c5c6c85afc684a482d2ce9a5e400000000000000000000000000000000000000000000021e19e0c9bab2400000",
        "nonce": "0x10",
        "chainId": "0xaa36a7"
      },
      "additionalContracts": [],
      "isFixedGasLimit": false
    },
    {
      "hash": null,
      "transactionType": "CALL",
      "contractName": "CustomERC20",
      "contractAddress": "0x5Fd341Ba92C4F6e6B7778Ba303D8B1EBd36A9cA0",
      "function": "transfer(address,uint256)",
      "arguments": [
        "0x5118470D402d840a0091c6574F7D8ee5C32e0551",
        "10000000000000000000000"
      ],
      "transaction": {
        "from": "0xDDC9b558908E28279147D441BF626D4E3e5A5163",
        "to": "0x5Fd341Ba92C4F6e6B7778Ba303D8B1EBd36A9cA0",
        "gas": "0x124de",
        "value": "0x0",
        "input": "0xa9059cbb0000000000000000000000005118470d402d840a0091c6574f7d8ee5c32e055100000000000000000000000000000000000000000000021e19e0c9bab2400000",
        "nonce": "0x11",
        "chainId": "0xaa36a7"
      },
      "additionalContracts": [],
      "isFixedGasLimit": false
    },
    {
      "hash": null,
      "transactionType": "CALL",
      "contractName": "CustomERC20",
      "contractAddress": "0x5Fd341Ba92C4F6e6B7778Ba303D8B1EBd36A9cA0",
      "function": "transfer(address,uint256)",
      "arguments": [
        "0x3cA5f5caa07b47c5c6c85afC684A482d2cE9a5e4",
        "10000000000000000000000"
      ],
      "transaction": {
        "from": "0xDDC9b558908E28279147D441BF626D4E3e5A5163",
        "to": "0x5Fd341Ba92C4F6e6B7778Ba303D8B1EBd36A9cA0",
        "gas": "0x114a9",
        "value": "0x0",
        "input": "0xa9059cbb0000000000000000000000003ca5f5caa07b47c5c6c85afc684a482d2ce9a5e400000000000000000000000000000000000000000000021e19e0c9bab2400000",
        "nonce": "0x12",
        "chainId": "0xaa36a7"
      },
      "additionalContracts": [],
      "isFixedGasLimit": false
    },
    {
      "hash": null,
      "transactionType": "CALL",
      "contractName": "CustomERC20",
      "contractAddress": "0x63c9C938be90E0692840E310e917aF1De40e314B",
      "function": "transfer(address,uint256)",
      "arguments": [
        "0x5118470D402d840a0091c6574F7D8ee5C32e0551",
        "10000000000000000000000"
      ],
      "transaction": {
        "from": "0xDDC9b558908E28279147D441BF626D4E3e5A5163",
        "to": "0x63c9C938be90E0692840E310e917aF1De40e314B",
        "gas": "0x124de",
        "value": "0x0",
        "input": "0xa9059cbb0000000000000000000000005118470d402d840a0091c6574f7d8ee5c32e055100000000000000000000000000000000000000000000021e19e0c9bab2400000",
        "nonce": "0x13",
        "chainId": "0xaa36a7"
      },
      "additionalContracts": [],
      "isFixedGasLimit": false
    },
    {
      "hash": null,
      "transactionType": "CALL",
      "contractName": "CustomERC20",
      "contractAddress": "0x63c9C938be90E0692840E310e917aF1De40e314B",
      "function": "transfer(address,uint256)",
      "arguments": [
        "0x3cA5f5caa07b47c5c6c85afC684A482d2cE9a5e4",
        "10000000000000000000000"
      ],
      "transaction": {
        "from": "0xDDC9b558908E28279147D441BF626D4E3e5A5163",
        "to": "0x63c9C938be90E0692840E310e917aF1De40e314B",
        "gas": "0x114a9",
        "value": "0x0",
        "input": "0xa9059cbb0000000000000000000000003ca5f5caa07b47c5c6c85afc684a482d2ce9a5e400000000000000000000000000000000000000000000021e19e0c9bab2400000",
        "nonce": "0x14",
        "chainId": "0xaa36a7"
      },
      "additionalContracts": [],
      "isFixedGasLimit": false
    }
  ],
  "receipts": [],
  "libraries": [],
  "pending": [
    "0xe2170368f94d75321e7c01715102bc68c3b45f714281d4fca0e9a81a1e533f79",
    "0xee2ec10358d2df16af29332ef2a5e59c3400cf4106acb343279c335b07ab4dda",
    "0x1a2e90fe336b75b5e9e81f9527670d4f2abb0c2da954cde26d57f334d6e5218e"
  ],
  "returns": {},
  "timestamp": 1732458053,
  "chain": 11155111,
  "commit": "56e4f85"
}