{
  "transactions": [
    {
      "hash": "0x26d51745a7e2287d304da090ec5774c226804228f917b87e07981e617eec8939",
      "transactionType": "CALL",
      "contractName": "CustomERC20",
      "contractAddress": "0x4F12d4e3FE59Ad54f7e9704B71467eB368b2F498",
      "function": "transfer(address,uint256)",
      "arguments": [
        "0x5118470D402d840a0091c6574F7D8ee5C32e0551",
        "10000000000000000000000"
      ],
      "transaction": {
        "from": "0xDDC9b558908E28279147D441BF626D4E3e5A5163",
        "to": "0x4F12d4e3FE59Ad54f7e9704B71467eB368b2F498",
        "gas": "0xb856",
        "value": "0x0",
        "input": "0xa9059cbb0000000000000000000000005118470d402d840a0091c6574f7d8ee5c32e055100000000000000000000000000000000000000000000021e19e0c9bab2400000",
        "nonce": "0x10",
        "chainId": "0xaa36a7"
      },
      "additionalContracts": [],
      "isFixedGasLimit": false
    },
    {
      "hash": "0x95cadd6adc44956ee3298511b0f4bf3b7ac9bf050753044751002727c381aa2e",
      "transactionType": "CALL",
      "contractName": "CustomERC20",
      "contractAddress": "0x4F12d4e3FE59Ad54f7e9704B71467eB368b2F498",
      "function": "transfer(address,uint256)",
      "arguments": [
        "0x3cA5f5caa07b47c5c6c85afC684A482d2cE9a5e4",
        "10000000000000000000000"
      ],
      "transaction": {
        "from": "0xDDC9b558908E28279147D441BF626D4E3e5A5163",
        "to": "0x4F12d4e3FE59Ad54f7e9704B71467eB368b2F498",
        "gas": "0xc33f",
        "value": "0x0",
        "input": "0xa9059cbb0000000000000000000000003ca5f5caa07b47c5c6c85afc684a482d2ce9a5e400000000000000000000000000000000000000000000021e19e0c9bab2400000",
        "nonce": "0x11",
        "chainId": "0xaa36a7"
      },
      "additionalContracts": [],
      "isFixedGasLimit": false
    },
    {
      "hash": "0xd500eb9a41224fc0617f5e5c83eab530930d37da5be02e0245340d2fe450c16d",
      "transactionType": "CALL",
      "contractName": "CustomERC20",
      "contractAddress": "0xC98F51755976811c1D71d895DA2A73b46Dfbc918",
      "function": "transfer(address,uint256)",
      "arguments": [
        "0x5118470D402d840a0091c6574F7D8ee5C32e0551",
        "10000000000000000000000"
      ],
      "transaction": {
        "from": "0xDDC9b558908E28279147D441BF626D4E3e5A5163",
        "to": "0xC98F51755976811c1D71d895DA2A73b46Dfbc918",
        "gas": "0xb856",
        "value": "0x0",
        "input": "0xa9059cbb0000000000000000000000005118470d402d840a0091c6574f7d8ee5c32e055100000000000000000000000000000000000000000000021e19e0c9bab2400000",
        "nonce": "0x12",
        "chainId": "0xaa36a7"
      },
      "additionalContracts": [],
      "isFixedGasLimit": false
    },
    {
      "hash": "0xd9d058e45085b720311ea0e51f360e64180df7ebfdf432d6aad126730ef6049e",
      "transactionType": "CALL",
      "contractName": "CustomERC20",
      "contractAddress": "0xC98F51755976811c1D71d895DA2A73b46Dfbc918",
      "function": "transfer(address,uint256)",
      "arguments": [
        "0x3cA5f5caa07b47c5c6c85afC684A482d2cE9a5e4",
        "10000000000000000000000"
      ],
      "transaction": {
        "from": "0xDDC9b558908E28279147D441BF626D4E3e5A5163",
        "to": "0xC98F51755976811c1D71d895DA2A73b46Dfbc918",
        "gas": "0x114a9",
        "value": "0x0",
        "input": "0xa9059cbb0000000000000000000000003ca5f5caa07b47c5c6c85afc684a482d2ce9a5e400000000000000000000000000000000000000000000021e19e0c9bab2400000",
        "nonce": "0x13",
        "chainId": "0xaa36a7"
      },
      "additionalContracts": [],
      "isFixedGasLimit": false
    },
    {
      "hash": "0xd5a5a9a75b4dfd6777c69ba3a952c0acae384a5f755c04b0ab1b50a6141c4427",
      "transactionType": "CALL",
      "contractName": "CustomERC20",
      "contractAddress": "0x5Fd341Ba92C4F6e6B7778Ba303D8B1EBd36A9cA0",
      "function": "transfer(address,uint256)",
      "arguments": [
        "0x5118470D402d840a0091c6574F7D8ee5C32e0551",
        "10000000000000000000000"
      ],
      "transaction": {
        "from": "0xDDC9b558908E28279147D441BF626D4E3e5A5163",
        "to": "0x5Fd341Ba92C4F6e6B7778Ba303D8B1EBd36A9cA0",
        "gas": "0x124de",
        "value": "0x0",
        "input": "0xa9059cbb0000000000000000000000005118470d402d840a0091c6574f7d8ee5c32e055100000000000000000000000000000000000000000000021e19e0c9bab2400000",
        "nonce": "0x14",
        "chainId": "0xaa36a7"
      },
      "additionalContracts": [],
      "isFixedGasLimit": false
    },
    {
      "hash": "0x614bfe97158df67ee0e40372cac36b5f88faf1b61566dbe51e99fb12aee02786",
      "transactionType": "CALL",
      "contractName": "CustomERC20",
      "contractAddress": "0x5Fd341Ba92C4F6e6B7778Ba303D8B1EBd36A9cA0",
      "function": "transfer(address,uint256)",
      "arguments": [
        "0x3cA5f5caa07b47c5c6c85afC684A482d2cE9a5e4",
        "10000000000000000000000"
      ],
      "transaction": {
        "from": "0xDDC9b558908E28279147D441BF626D4E3e5A5163",
        "to": "0x5Fd341Ba92C4F6e6B7778Ba303D8B1EBd36A9cA0",
        "gas": "0x114a9",
        "value": "0x0",
        "input": "0xa9059cbb0000000000000000000000003ca5f5caa07b47c5c6c85afc684a482d2ce9a5e400000000000000000000000000000000000000000000021e19e0c9bab2400000",
        "nonce": "0x15",
        "chainId": "0xaa36a7"
      },
      "additionalContracts": [],
      "isFixedGasLimit": false
    },
    {
      "hash": "0x73d23b26aefa424a087ccc01f93109d3210e47e89777b639cfe69caf690b14a3",
      "transactionType": "CALL",
      "contractName": "CustomERC20",
      "contractAddress": "0x63c9C938be90E0692840E310e917aF1De40e314B",
      "function": "transfer(address,uint256)",
      "arguments": [
        "0x5118470D402d840a0091c6574F7D8ee5C32e0551",
        "10000000000000000000000"
      ],
      "transaction": {
        "from": "0xDDC9b558908E28279147D441BF626D4E3e5A5163",
        "to": "0x63c9C938be90E0692840E310e917aF1De40e314B",
        "gas": "0x124de",
        "value": "0x0",
        "input": "0xa9059cbb0000000000000000000000005118470d402d840a0091c6574f7d8ee5c32e055100000000000000000000000000000000000000000000021e19e0c9bab2400000",
        "nonce": "0x16",
        "chainId": "0xaa36a7"
      },
      "additionalContracts": [],
      "isFixedGasLimit": false
    },
    {
      "hash": "0xd6076fd2452966c192021f89e1b74b6a71ac51a1b9eb8fcb712d100e5d7dd9bd",
      "transactionType": "CALL",
      "contractName": "CustomERC20",
      "contractAddress": "0x63c9C938be90E0692840E310e917aF1De40e314B",
      "function": "transfer(address,uint256)",
      "arguments": [
        "0x3cA5f5caa07b47c5c6c85afC684A482d2cE9a5e4",
        "10000000000000000000000"
      ],
      "transaction": {
        "from": "0xDDC9b558908E28279147D441BF626D4E3e5A5163",
        "to": "0x63c9C938be90E0692840E310e917aF1De40e314B",
        "gas": "0x114a9",
        "value": "0x0",
        "input": "0xa9059cbb0000000000000000000000003ca5f5caa07b47c5c6c85afc684a482d2ce9a5e400000000000000000000000000000000000000000000021e19e0c9bab2400000",
        "nonce": "0x17",
        "chainId": "0xaa36a7"
      },
      "additionalContracts": [],
      "isFixedGasLimit": false
    }
  ],
  "receipts": [
    {
      "status": "0x1",
      "cumulativeGasUsed": "0x54a7c3",
      "logs": [
        {
          "address": "0x4F12d4e3FE59Ad54f7e9704B71467eB368b2F498",
          "topics": [
            "0xddf252ad1be2c89b69c2b068fc378daa952ba7f163c4a11628f55a4df523b3ef",
            "0x000000000000000000000000ddc9b558908e28279147d441bf626d4e3e5a5163",
            "0x0000000000000000000000005118470d402d840a0091c6574f7d8ee5c32e0551"
          ],
          "data": "0x00000000000000000000000000000000000000000000021e19e0c9bab2400000",
          "blockHash": "0xf5d4271a54a94fd40103dc6c734c30c02011140fd7f1666264c4a53f45a4b0e0",
          "blockNumber": "0x6d0017",
          "transactionHash": "0x26d51745a7e2287d304da090ec5774c226804228f917b87e07981e617eec8939",
          "transactionIndex": "0x38",
          "logIndex": "0x4a",
          "removed": false
        }
      ],
      "logsBloom": "0x00000000000000000000000000002000000000000000000000000000000000000000000000000000000000000000000000000000000000000000000000000000000000000000000000000008000000000000000000000000000000000000000000000000000000000000000000000000000000000000000000000010000000000000000000000000000000000000000000000200000000000000000000000000000000000000000100000000080800000000000000000000000000002000000000000002000000000000000000000000000200000000000000000000000000000000010000000000000000000000000000000000000000000000000000000010",
      "type": "0x2",
      "transactionHash": "0x26d51745a7e2287d304da090ec5774c226804228f917b87e07981e617eec8939",
      "transactionIndex": "0x38",
      "blockHash": "0xf5d4271a54a94fd40103dc6c734c30c02011140fd7f1666264c4a53f45a4b0e0",
      "blockNumber": "0x6d0017",
      "gasUsed": "0x8575",
      "effectiveGasPrice": "0x269fc33eb",
      "from": "0xDDC9b558908E28279147D441BF626D4E3e5A5163",
      "to": "0x4F12d4e3FE59Ad54f7e9704B71467eB368b2F498",
      "contractAddress": null
    },
    {
      "status": "0x1",
      "cumulativeGasUsed": "0x58d708",
      "logs": [
        {
          "address": "0x4F12d4e3FE59Ad54f7e9704B71467eB368b2F498",
          "topics": [
            "0xddf252ad1be2c89b69c2b068fc378daa952ba7f163c4a11628f55a4df523b3ef",
            "0x000000000000000000000000ddc9b558908e28279147d441bf626d4e3e5a5163",
            "0x0000000000000000000000003ca5f5caa07b47c5c6c85afc684a482d2ce9a5e4"
          ],
          "data": "0x00000000000000000000000000000000000000000000021e19e0c9bab2400000",
          "blockHash": "0xf5d4271a54a94fd40103dc6c734c30c02011140fd7f1666264c4a53f45a4b0e0",
          "blockNumber": "0x6d0017",
          "transactionHash": "0x95cadd6adc44956ee3298511b0f4bf3b7ac9bf050753044751002727c381aa2e",
          "transactionIndex": "0x3c",
          "logIndex": "0x50",
          "removed": false
        }
      ],
      "logsBloom": "0x00000000800000000000000000002000000000000000000000000000000000000000000000000000000000000000000000000000000000000000000000000000000000000000000000000008000000000000000000000000000000000000000000000000000000000000000000000000000000000000000000000010000000000000000000000000000000000000000000000000000000000000000000000000000000000000000000000000080800000000000000000000000000000000000000000002000000000000000000000000000200000000000000000000000000000000050000000800000000000000000000000000000000000000000000000010",
      "type": "0x2",
      "transactionHash": "0x95cadd6adc44956ee3298511b0f4bf3b7ac9bf050753044751002727c381aa2e",
      "transactionIndex": "0x3c",
      "blockHash": "0xf5d4271a54a94fd40103dc6c734c30c02011140fd7f1666264c4a53f45a4b0e0",
      "blockNumber": "0x6d0017",
      "gasUsed": "0x8581",
      "effectiveGasPrice": "0x269fc33eb",
      "from": "0xDDC9b558908E28279147D441BF626D4E3e5A5163",
      "to": "0x4F12d4e3FE59Ad54f7e9704B71467eB368b2F498",
      "contractAddress": null
    },
    {
      "status": "0x1",
      "cumulativeGasUsed": "0x5c5b31",
      "logs": [
        {
          "address": "0xC98F51755976811c1D71d895DA2A73b46Dfbc918",
          "topics": [
            "0xddf252ad1be2c89b69c2b068fc378daa952ba7f163c4a11628f55a4df523b3ef",
            "0x000000000000000000000000ddc9b558908e28279147d441bf626d4e3e5a5163",
            "0x0000000000000000000000005118470d402d840a0091c6574f7d8ee5c32e0551"
          ],
          "data": "0x00000000000000000000000000000000000000000000021e19e0c9bab2400000",
          "blockHash": "0xf5d4271a54a94fd40103dc6c734c30c02011140fd7f1666264c4a53f45a4b0e0",
          "blockNumber": "0x6d0017",
          "transactionHash": "0xd500eb9a41224fc0617f5e5c83eab530930d37da5be02e0245340d2fe450c16d",
          "transactionIndex": "0x3f",
          "logIndex": "0x57",
          "removed": false
        }
      ],
      "logsBloom": "0x00000000000000000000000020002000000000000000000000000000000000000000000000000000000000000000000000000000000000000000000000000000000000000000000000000008000000000000000000000000000000000000000000000000000000000000000000000000000000000000000000000010000000000000000000000000000000000000000000000200000000000000000000000000000000000000000100000000020000000000000000000000000000002000000000000002000000000000000000000000000000000000000000000000000000000000010000000000000000000000020000000000000000000000000000000010",
      "type": "0x2",
      "transactionHash": "0xd500eb9a41224fc0617f5e5c83eab530930d37da5be02e0245340d2fe450c16d",
      "transactionIndex": "0x3f",
      "blockHash": "0xf5d4271a54a94fd40103dc6c734c30c02011140fd7f1666264c4a53f45a4b0e0",
      "blockNumber": "0x6d0017",
      "gasUsed": "0x8575",
      "effectiveGasPrice": "0x269fc33eb",
      "from": "0xDDC9b558908E28279147D441BF626D4E3e5A5163",
      "to": "0xC98F51755976811c1D71d895DA2A73b46Dfbc918",
      "contractAddress": null
    },
    {
      "status": "0x1",
      "cumulativeGasUsed": "0x5d237e",
      "logs": [
        {
          "address": "0xC98F51755976811c1D71d895DA2A73b46Dfbc918",
          "topics": [
            "0xddf252ad1be2c89b69c2b068fc378daa952ba7f163c4a11628f55a4df523b3ef",
            "0x000000000000000000000000ddc9b558908e28279147d441bf626d4e3e5a5163",
            "0x0000000000000000000000003ca5f5caa07b47c5c6c85afc684a482d2ce9a5e4"
          ],
          "data": "0x00000000000000000000000000000000000000000000021e19e0c9bab2400000",
          "blockHash": "0xf5d4271a54a94fd40103dc6c734c30c02011140fd7f1666264c4a53f45a4b0e0",
          "blockNumber": "0x6d0017",
          "transactionHash": "0xd9d058e45085b720311ea0e51f360e64180df7ebfdf432d6aad126730ef6049e",
          "transactionIndex": "0x40",
          "logIndex": "0x58",
          "removed": false
        }
      ],
      "logsBloom": "0x00000000800000000000000020002000000000000000000000000000000000000000000000000000000000000000000000000000000000000000000000000000000000000000000000000008000000000000000000000000000000000000000000000000000000000000000000000000000000000000000000000010000000000000000000000000000000000000000000000000000000000000000000000000000000000000000000000000020000000000000000000000000000000000000000000002000000000000000000000000000000000000000000000000000000000000050000000800000000000000020000000000000000000000000000000010",
      "type": "0x2",
      "transactionHash": "0xd9d058e45085b720311ea0e51f360e64180df7ebfdf432d6aad126730ef6049e",
      "transactionIndex": "0x40",
      "blockHash": "0xf5d4271a54a94fd40103dc6c734c30c02011140fd7f1666264c4a53f45a4b0e0",
      "blockNumber": "0x6d0017",
      "gasUsed": "0xc84d",
      "effectiveGasPrice": "0x269fc33eb",
      "from": "0xDDC9b558908E28279147D441BF626D4E3e5A5163",
      "to": "0xC98F51755976811c1D71d895DA2A73b46Dfbc918",
      "contractAddress": null
    },
    {
      "status": "0x1",
      "cumulativeGasUsed": "0x629854",
      "logs": [
        {
          "address": "0x5Fd341Ba92C4F6e6B7778Ba303D8B1EBd36A9cA0",
          "topics": [
            "0xddf252ad1be2c89b69c2b068fc378daa952ba7f163c4a11628f55a4df523b3ef",
            "0x000000000000000000000000ddc9b558908e28279147d441bf626d4e3e5a5163",
            "0x0000000000000000000000005118470d402d840a0091c6574f7d8ee5c32e0551"
          ],
          "data": "0x00000000000000000000000000000000000000000000021e19e0c9bab2400000",
          "blockHash": "0xf5d4271a54a94fd40103dc6c734c30c02011140fd7f1666264c4a53f45a4b0e0",
          "blockNumber": "0x6d0017",
          "transactionHash": "0xd5a5a9a75b4dfd6777c69ba3a952c0acae384a5f755c04b0ab1b50a6141c4427",
          "transactionIndex": "0x42",
          "logIndex": "0x5a",
          "removed": false
        }
      ],
      "logsBloom": "0x00000000000000000000000000002000000000000000000000000000000000000000000000000000000000000000000000000000000000000000000000000000000000000000000000000008000000000000000000000000000000000000000000000000000000000040000000000000000000000000000000000010000000000000000000000000001000000000000000000200000000000000000000000000000000000000000100000000000000000000000000000000000000002000000000000002000000000080000000000000000000000000000000000000000000000000010000000000000000000000000000000000000000000000000000000010",
      "type": "0x2",
      "transactionHash": "0xd5a5a9a75b4dfd6777c69ba3a952c0acae384a5f755c04b0ab1b50a6141c4427",
      "transactionIndex": "0x42",
      "blockHash": "0xf5d4271a54a94fd40103dc6c734c30c02011140fd7f1666264c4a53f45a4b0e0",
      "blockNumber": "0x6d0017",
      "gasUsed": "0xc841",
      "effectiveGasPrice": "0x269fc33eb",
      "from": "0xDDC9b558908E28279147D441BF626D4E3e5A5163",
      "to": "0x5Fd341Ba92C4F6e6B7778Ba303D8B1EBd36A9cA0",
      "contractAddress": null
    },
    {
      "status": "0x1",
      "cumulativeGasUsed": "0x6360a1",
      "logs": [
        {
          "address": "0x5Fd341Ba92C4F6e6B7778Ba303D8B1EBd36A9cA0",
          "topics": [
            "0xddf252ad1be2c89b69c2b068fc378daa952ba7f163c4a11628f55a4df523b3ef",
            "0x000000000000000000000000ddc9b558908e28279147d441bf626d4e3e5a5163",
            "0x0000000000000000000000003ca5f5caa07b47c5c6c85afc684a482d2ce9a5e4"
          ],
          "data": "0x00000000000000000000000000000000000000000000021e19e0c9bab2400000",
          "blockHash": "0xf5d4271a54a94fd40103dc6c734c30c02011140fd7f1666264c4a53f45a4b0e0",
          "blockNumber": "0x6d0017",
          "transactionHash": "0x614bfe97158df67ee0e40372cac36b5f88faf1b61566dbe51e99fb12aee02786",
          "transactionIndex": "0x43",
          "logIndex": "0x5b",
          "removed": false
        }
      ],
      "logsBloom": "0x00000000800000000000000000002000000000000000000000000000000000000000000000000000000000000000000000000000000000000000000000000000000000000000000000000008000000000000000000000000000000000000000000000000000000000040000000000000000000000000000000000010000000000000000000000000001000000000000000000000000000000000000000000000000000000000000000000000000000000000000000000000000000000000000000000002000000000080000000000000000000000000000000000000000000000000050000000800000000000000000000000000000000000000000000000010",
      "type": "0x2",
      "transactionHash": "0x614bfe97158df67ee0e40372cac36b5f88faf1b61566dbe51e99fb12aee02786",
      "transactionIndex": "0x43",
      "blockHash": "0xf5d4271a54a94fd40103dc6c734c30c02011140fd7f1666264c4a53f45a4b0e0",
      "blockNumber": "0x6d0017",
      "gasUsed": "0xc84d",
      "effectiveGasPrice": "0x269fc33eb",
      "from": "0xDDC9b558908E28279147D441BF626D4E3e5A5163",
      "to": "0x5Fd341Ba92C4F6e6B7778Ba303D8B1EBd36A9cA0",
      "contractAddress": null
    },
    {
      "status": "0x1",
      "cumulativeGasUsed": "0x6428e2",
      "logs": [
        {
          "address": "0x63c9C938be90E0692840E310e917aF1De40e314B",
          "topics": [
            "0xddf252ad1be2c89b69c2b068fc378daa952ba7f163c4a11628f55a4df523b3ef",
            "0x000000000000000000000000ddc9b558908e28279147d441bf626d4e3e5a5163",
            "0x0000000000000000000000005118470d402d840a0091c6574f7d8ee5c32e0551"
          ],
          "data": "0x00000000000000000000000000000000000000000000021e19e0c9bab2400000",
          "blockHash": "0xf5d4271a54a94fd40103dc6c734c30c02011140fd7f1666264c4a53f45a4b0e0",
          "blockNumber": "0x6d0017",
          "transactionHash": "0x73d23b26aefa424a087ccc01f93109d3210e47e89777b639cfe69caf690b14a3",
          "transactionIndex": "0x44",
          "logIndex": "0x5c",
          "removed": false
        }
      ],
      "logsBloom": "0x00000000000000000000000000002000000000000000000000000000000000000000000000000000000000000000000000000000000000000000000000000000000000000000000000020008000000000000000000000000000000000000000000000000000000000000000000000000000000000000000000000010000000000000000000000000000000000000000000000200000000000000000000000080000000000000000100000000000000000000800000000000000000002000000000000002000000000000000000000000000000000000000000000000000000000000010000000000000000000000000000000000000000000000000000000010",
      "type": "0x2",
      "transactionHash": "0x73d23b26aefa424a087ccc01f93109d3210e47e89777b639cfe69caf690b14a3",
      "transactionIndex": "0x44",
      "blockHash": "0xf5d4271a54a94fd40103dc6c734c30c02011140fd7f1666264c4a53f45a4b0e0",
      "blockNumber": "0x6d0017",
      "gasUsed": "0xc841",
      "effectiveGasPrice": "0x269fc33eb",
      "from": "0xDDC9b558908E28279147D441BF626D4E3e5A5163",
      "to": "0x63c9C938be90E0692840E310e917aF1De40e314B",
      "contractAddress": null
    },
    {
      "status": "0x1",
      "cumulativeGasUsed": "0x64f12f",
      "logs": [
        {
          "address": "0x63c9C938be90E0692840E310e917aF1De40e314B",
          "topics": [
            "0xddf252ad1be2c89b69c2b068fc378daa952ba7f163c4a11628f55a4df523b3ef",
            "0x000000000000000000000000ddc9b558908e28279147d441bf626d4e3e5a5163",
            "0x0000000000000000000000003ca5f5caa07b47c5c6c85afc684a482d2ce9a5e4"
          ],
          "data": "0x00000000000000000000000000000000000000000000021e19e0c9bab2400000",
          "blockHash": "0xf5d4271a54a94fd40103dc6c734c30c02011140fd7f1666264c4a53f45a4b0e0",
          "blockNumber": "0x6d0017",
          "transactionHash": "0xd6076fd2452966c192021f89e1b74b6a71ac51a1b9eb8fcb712d100e5d7dd9bd",
          "transactionIndex": "0x45",
          "logIndex": "0x5d",
          "removed": false
        }
      ],
      "logsBloom": "0x00000000800000000000000000002000000000000000000000000000000000000000000000000000000000000000000000000000000000000000000000000000000000000000000000020008000000000000000000000000000000000000000000000000000000000000000000000000000000000000000000000010000000000000000000000000000000000000000000000000000000000000000000000080000000000000000000000000000000000000800000000000000000000000000000000002000000000000000000000000000000000000000000000000000000000000050000000800000000000000000000000000000000000000000000000010",
      "type": "0x2",
      "transactionHash": "0xd6076fd2452966c192021f89e1b74b6a71ac51a1b9eb8fcb712d100e5d7dd9bd",
      "transactionIndex": "0x45",
      "blockHash": "0xf5d4271a54a94fd40103dc6c734c30c02011140fd7f1666264c4a53f45a4b0e0",
      "blockNumber": "0x6d0017",
      "gasUsed": "0xc84d",
      "effectiveGasPrice": "0x269fc33eb",
      "from": "0xDDC9b558908E28279147D441BF626D4E3e5A5163",
      "to": "0x63c9C938be90E0692840E310e917aF1De40e314B",
      "contractAddress": null
    }
  ],
  "libraries": [],
  "pending": [],
  "returns": {},
  "timestamp": 1732458295,
  "chain": 11155111,
  "commit": "56e4f85"
}