{
  "transactions": [
    {
      "hash": "0xf8c9a0b94da633ac15eccc5add578680bdb41170d36756596499fd22906062e6",
      "transactionType": "CALL",
      "contractName": null,
      "contractAddress": "0x8FDE145B1289a99C6B15f363309d3cc9276c0b16",
      "function": "setNewImplementation(address)",
      "arguments": [
        "0x8E2180109be219bae0773CED076518EFbf28F5B6"
      ],
      "transaction": {
        "from": "0xDDC9b558908E28279147D441BF626D4E3e5A5163",
        "to": "0x8FDE145B1289a99C6B15f363309d3cc9276c0b16",
        "gas": "0x1705c",
        "value": "0x0",
        "input": "0xadb3ce920000000000000000000000008e2180109be219bae0773ced076518efbf28f5b6",
        "nonce": "0x33",
        "chainId": "0xaa36a7"
      },
      "additionalContracts": [],
      "isFixedGasLimit": false
    }
  ],
  "receipts": [
    {
      "status": "0x1",
      "cumulativeGasUsed": "0xe9b21d",
      "logs": [],
      "logsBloom": "0x00000000000000000000000000000000000000000000000000000000000000000000000000000000000000000000000000000000000000000000000000000000000000000000000000000000000000000000000000000000000000000000000000000000000000000000000000000000000000000000000000000000000000000000000000000000000000000000000000000000000000000000000000000000000000000000000000000000000000000000000000000000000000000000000000000000000000000000000000000000000000000000000000000000000000000000000000000000000000000000000000000000000000000000000000000000",
      "type": "0x2",
      "transactionHash": "0xf8c9a0b94da633ac15eccc5add578680bdb41170d36756596499fd22906062e6",
      "transactionIndex": "0x167",
      "blockHash": "0x6d2728acf80519baf49f20badc113dfc45de6436cf4d2934035d6bcd72418b88",
      "blockNumber": "0x6d6b63",
      "gasUsed": "0x10ab0",
      "effectiveGasPrice": "0xa897a09c",
      "from": "0xDDC9b558908E28279147D441BF626D4E3e5A5163",
      "to": "0x8FDE145B1289a99C6B15f363309d3cc9276c0b16",
      "contractAddress": null
    }
  ],
  "libraries": [],
  "pending": [],
  "returns": {},
  "timestamp": 1732809006,
  "chain": 11155111,
  "commit": "7a5242a"
}