{
  "transactions": [
    {
      "hash": "0x6fcf0f9b3ebfe2914911ccc7a0dd122214fb78a5de2390d12d4e3015fff1cfe8",
      "transactionType": "CALL",
      "contractName": null,
      "contractAddress": "0x2DC4Da4832604f886A81120dB11108057f6D6BAf",
      "function": "setBentoUSD(address)",
      "arguments": [
        "0xfeD4BB1f4Ce7C74e23BE2B968E2962431726d4f3"
      ],
      "transaction": {
        "from": "0xDDC9b558908E28279147D441BF626D4E3e5A5163",
        "to": "0x2DC4Da4832604f886A81120dB11108057f6D6BAf",
        "gas": "0x11bf9",
        "value": "0x0",
        "input": "0xb5c705b5000000000000000000000000fed4bb1f4ce7c74e23be2b968e2962431726d4f3",
        "nonce": "0x32",
        "chainId": "0x3039"
      },
      "additionalContracts": [],
      "isFixedGasLimit": false
    },
    {
      "hash": "0xb4718c08b31000a8c179614f44f0b4b420c3232b2492b68c9087b4334a2494ab",
      "transactionType": "CALL",
      "contractName": null,
      "contractAddress": "0x2DC4Da4832604f886A81120dB11108057f6D6BAf",
      "function": "setOracleRouter(address)",
      "arguments": [
        "0x8274713D419da3531DfAe1e9ed89d6F9c359cc4d"
      ],
      "transaction": {
        "from": "0xDDC9b558908E28279147D441BF626D4E3e5A5163",
        "to": "0x2DC4Da4832604f886A81120dB11108057f6D6BAf",
        "gas": "0x11a8d",
        "value": "0x0",
        "input": "0x4d69ee0e0000000000000000000000008274713d419da3531dfae1e9ed89d6f9c359cc4d",
        "nonce": "0x33",
        "chainId": "0x3039"
      },
      "additionalContracts": [],
      "isFixedGasLimit": false
    },
    {
      "hash": "0x8cdb20992d093575960566790c259ee4e51dcdce4518f36e2fccbba3ce2a29e2",
      "transactionType": "CALL",
      "contractName": null,
      "contractAddress": "0x8274713D419da3531DfAe1e9ed89d6F9c359cc4d",
      "function": "addFeed(address,address,uint256,uint8)",
      "arguments": [
        "0x6B175474E89094C44Da98b954EedeAC495271d0F",
        "0xAed0c38402a5d19df6E4c03F4E2DceD6e29c1ee9",
        "86400",
        "8"
      ],
      "transaction": {
        "from": "0xDDC9b558908E28279147D441BF626D4E3e5A5163",
        "to": "0x8274713D419da3531DfAe1e9ed89d6F9c359cc4d",
        "gas": "0x1bbee",
        "value": "0x0",
        "input": "0xe81668fc0000000000000000000000006b175474e89094c44da98b954eedeac495271d0f000000000000000000000000aed0c38402a5d19df6e4c03f4e2dced6e29c1ee900000000000000000000000000000000000000000000000000000000000151800000000000000000000000000000000000000000000000000000000000000008",
        "nonce": "0x34",
        "chainId": "0x3039"
      },
      "additionalContracts": [],
      "isFixedGasLimit": false
    },
    {
      "hash": "0xd25a95cfefd57887ec174d143827a970616c493792f1ee7e76cdc20d11db11b3",
      "transactionType": "CALL",
      "contractName": null,
      "contractAddress": "0x8274713D419da3531DfAe1e9ed89d6F9c359cc4d",
      "function": "addFeed(address,address,uint256,uint8)",
      "arguments": [
        "0xA0b86991c6218b36c1d19D4a2e9Eb0cE3606eB48",
        "0x8fFfFfd4AfB6115b954Bd326cbe7B4BA576818f6",
        "86400",
        "8"
      ],
      "transaction": {
        "from": "0xDDC9b558908E28279147D441BF626D4E3e5A5163",
        "to": "0x8274713D419da3531DfAe1e9ed89d6F9c359cc4d",
        "gas": "0x1bbee",
        "value": "0x0",
        "input": "0xe81668fc000000000000000000000000a0b86991c6218b36c1d19d4a2e9eb0ce3606eb480000000000000000000000008fffffd4afb6115b954bd326cbe7b4ba576818f600000000000000000000000000000000000000000000000000000000000151800000000000000000000000000000000000000000000000000000000000000008",
        "nonce": "0x35",
        "chainId": "0x3039"
      },
      "additionalContracts": [],
      "isFixedGasLimit": false
    },
    {
      "hash": "0xbdb333787bc0fad58e99133a9d0da08681f9dc669ef02537f5f69e015fcdd92c",
      "transactionType": "CALL",
      "contractName": null,
      "contractAddress": "0x8274713D419da3531DfAe1e9ed89d6F9c359cc4d",
      "function": "addFeed(address,address,uint256,uint8)",
      "arguments": [
        "0xdAC17F958D2ee523a2206206994597C13D831ec7",
        "0x3E7d1eAB13ad0104d2750B8863b489D65364e32D",
        "86400",
        "8"
      ],
      "transaction": {
        "from": "0xDDC9b558908E28279147D441BF626D4E3e5A5163",
        "to": "0x8274713D419da3531DfAe1e9ed89d6F9c359cc4d",
        "gas": "0x1bbee",
        "value": "0x0",
        "input": "0xe81668fc000000000000000000000000dac17f958d2ee523a2206206994597c13d831ec70000000000000000000000003e7d1eab13ad0104d2750b8863b489d65364e32d00000000000000000000000000000000000000000000000000000000000151800000000000000000000000000000000000000000000000000000000000000008",
        "nonce": "0x36",
        "chainId": "0x3039"
      },
      "additionalContracts": [],
      "isFixedGasLimit": false
    },
    {
      "hash": "0x72f336ff884211389d8c428a69c3bb2955615b47ca0ebfb3a83e78aa26053818",
      "transactionType": "CALL",
      "contractName": null,
      "contractAddress": "0x8274713D419da3531DfAe1e9ed89d6F9c359cc4d",
      "function": "addFeed(address,address,uint256,uint8)",
      "arguments": [
        "0x4c9EDD5852cd905f086C759E8383e09bff1E68B3",
        "0xa569d910839Ae8865Da8F8e70FfFb0cBA869F961",
        "86400",
        "8"
      ],
      "transaction": {
        "from": "0xDDC9b558908E28279147D441BF626D4E3e5A5163",
        "to": "0x8274713D419da3531DfAe1e9ed89d6F9c359cc4d",
        "gas": "0x1bbee",
        "value": "0x0",
        "input": "0xe81668fc0000000000000000000000004c9edd5852cd905f086c759e8383e09bff1e68b3000000000000000000000000a569d910839ae8865da8f8e70fffb0cba869f96100000000000000000000000000000000000000000000000000000000000151800000000000000000000000000000000000000000000000000000000000000008",
        "nonce": "0x37",
        "chainId": "0x3039"
      },
      "additionalContracts": [],
      "isFixedGasLimit": false
    },
    {
      "hash": "0xac9482207b808bb54765fbc1d014205636cfdcce53c08315f5ca7ba7ecd8bc8a",
      "transactionType": "CALL",
      "contractName": null,
      "contractAddress": "0x2DC4Da4832604f886A81120dB11108057f6D6BAf",
      "function": "setAsset(address,uint8,uint32,address)",
      "arguments": [
        "0xA0b86991c6218b36c1d19D4a2e9Eb0cE3606eB48",
        "6",
        "375",
        "0xBEEF01735c132Ada46AA9aA4c54623cAA92A64CB"
      ],
      "transaction": {
        "from": "0xDDC9b558908E28279147D441BF626D4E3e5A5163",
        "to": "0x2DC4Da4832604f886A81120dB11108057f6D6BAf",
        "gas": "0x2c22b",
        "value": "0x0",
        "input": "0xb0ce3dfa000000000000000000000000a0b86991c6218b36c1d19d4a2e9eb0ce3606eb4800000000000000000000000000000000000000000000000000000000000000060000000000000000000000000000000000000000000000000000000000000177000000000000000000000000beef01735c132ada46aa9aa4c54623caa92a64cb",
        "nonce": "0x38",
        "chainId": "0x3039"
      },
      "additionalContracts": [],
      "isFixedGasLimit": false
    },
    {
      "hash": "0xec2e581ced1dcfd056ef3c0b1a191c3220f29ef3a9af3a8cd72cfc794859b2e8",
      "transactionType": "CALL",
      "contractName": null,
      "contractAddress": "0x2DC4Da4832604f886A81120dB11108057f6D6BAf",
      "function": "setAsset(address,uint8,uint32,address)",
      "arguments": [
        "0x6B175474E89094C44Da98b954EedeAC495271d0F",
        "18",
        "250",
        "0x83F20F44975D03b1b09e64809B757c47f942BEeA"
      ],
      "transaction": {
        "from": "0xDDC9b558908E28279147D441BF626D4E3e5A5163",
        "to": "0x2DC4Da4832604f886A81120dB11108057f6D6BAf",
        "gas": "0x1e258",
        "value": "0x0",
        "input": "0xb0ce3dfa0000000000000000000000006b175474e89094c44da98b954eedeac495271d0f000000000000000000000000000000000000000000000000000000000000001200000000000000000000000000000000000000000000000000000000000000fa00000000000000000000000083f20f44975d03b1b09e64809b757c47f942beea",
        "nonce": "0x39",
        "chainId": "0x3039"
      },
      "additionalContracts": [],
      "isFixedGasLimit": false
    },
    {
      "hash": "0xc01c3f800895d7ac4ff6eafb48e6f2226b124d52b33ee2535f1fe802ef9bd048",
      "transactionType": "CALL",
      "contractName": null,
      "contractAddress": "0x2DC4Da4832604f886A81120dB11108057f6D6BAf",
      "function": "setAsset(address,uint8,uint32,address)",
      "arguments": [
        "0xdAC17F958D2ee523a2206206994597C13D831ec7",
        "6",
        "125",
        "0xbEef047a543E45807105E51A8BBEFCc5950fcfBa"
      ],
      "transaction": {
        "from": "0xDDC9b558908E28279147D441BF626D4E3e5A5163",
        "to": "0x2DC4Da4832604f886A81120dB11108057f6D6BAf",
        "gas": "0x1e258",
        "value": "0x0",
        "input": "0xb0ce3dfa000000000000000000000000dac17f958d2ee523a2206206994597c13d831ec70000000000000000000000000000000000000000000000000000000000000006000000000000000000000000000000000000000000000000000000000000007d000000000000000000000000beef047a543e45807105e51a8bbefcc5950fcfba",
        "nonce": "0x3a",
        "chainId": "0x3039"
      },
      "additionalContracts": [],
      "isFixedGasLimit": false
    },
    {
      "hash": "0x8c05e655ea8886ab53276ed10d3bf6adea009c265c6626e0c0663c60a1244004",
      "transactionType": "CALL",
      "contractName": null,
      "contractAddress": "0x2DC4Da4832604f886A81120dB11108057f6D6BAf",
      "function": "setAsset(address,uint8,uint32,address)",
      "arguments": [
        "0x4c9EDD5852cd905f086C759E8383e09bff1E68B3",
        "18",
        "250",
        "0x9D39A5DE30e57443BfF2A8307A4256c8797A3497"
      ],
      "transaction": {
        "from": "0xDDC9b558908E28279147D441BF626D4E3e5A5163",
        "to": "0x2DC4Da4832604f886A81120dB11108057f6D6BAf",
        "gas": "0x1e258",
        "value": "0x0",
        "input": "0xb0ce3dfa0000000000000000000000004c9edd5852cd905f086c759e8383e09bff1e68b3000000000000000000000000000000000000000000000000000000000000001200000000000000000000000000000000000000000000000000000000000000fa0000000000000000000000009d39a5de30e57443bff2a8307a4256c8797a3497",
        "nonce": "0x3b",
        "chainId": "0x3039"
      },
      "additionalContracts": [],
      "isFixedGasLimit": false
    },
    {
      "hash": "0xc0f6f4a29c9688268ae0aea3aabd728290af6ac0852630bdedd1a1b998b06168",
      "transactionType": "CREATE",
      "contractName": "Generalized4626Strategy",
      "contractAddress": "0xFD7aEcA9181964B82529d6B7e974B0c443CD9D40",
      "function": null,
      "arguments": [
        "0xA0b86991c6218b36c1d19D4a2e9Eb0cE3606eB48",
        "0xBEEF01735c132Ada46AA9aA4c54623cAA92A64CB",
        "0x2DC4Da4832604f886A81120dB11108057f6D6BAf"
      ],
      "transaction": {
        "from": "0xDDC9b558908E28279147D441BF626D4E3e5A5163",
        "gas": "0x972f1",
        "value": "0x0",
        "input": "0x60e0806040523461020a57606081610a50803803809161001f8285610223565b83398101031261020a576100328161025c565b61004a60406100436020850161025c565b930161025c565b608083905260a082905260c052604051636eb1769f60e11b81523060048201526001600160a01b039283166024820181905292909116602082604481845afa918215610217576000926101de575b5060001982018092116101c85760008060405193602085019063095ea7b360e01b82528660248701526044860152604485526100d5606486610223565b84519082855af16100e4610270565b81610199575b508061018f575b15610149575b6040516106b99081610397823960805181818161014b015281816102a60152818161045e0152610534015260a05181610576015260c05181818160770152818160db0152818161024d01526104160152f35b610182610187936040519063095ea7b360e01b60208301526024820152600060448201526044815261017c606482610223565b826102c7565b6102c7565b3880806100f7565b50803b15156100f1565b80518015925082156101ae575b5050386100ea565b6101c192506020809183010191016102af565b38806101a6565b634e487b7160e01b600052601160045260246000fd5b9091506020813d60201161020f575b816101fa60209383610223565b8101031261020a57519038610098565b600080fd5b3d91506101ed565b6040513d6000823e3d90fd5b601f909101601f19168101906001600160401b0382119082101761024657604052565b634e487b7160e01b600052604160045260246000fd5b51906001600160a01b038216820361020a57565b3d156102aa573d906001600160401b038211610246576040519161029e601f8201601f191660200184610223565b82523d6000602084013e565b606090565b9081602091031261020a5751801515810361020a5790565b6000806102f09260018060a01b03169360208151910182865af16102e9610270565b9083610335565b805190811515918261031a575b50506103065750565b635274afe760e01b60005260045260246000fd5b61032d92506020809183010191016102af565b1538806102fd565b9061035b575080511561034a57805190602001fd5b630a12f52160e11b60005260046000fd5b8151158061038d575b61036c575090565b639996b31560e01b60009081526001600160a01b0391909116600452602490fd5b50803b1561036456fe608080604052600436101561001357600080fd5b60003560e01c9081631083f76114610563575080636c9fa59e1461051e578063853828b614610403578063b6b55f251461023a578063f3fef3a3146100ab5763f851a4401461006157600080fd5b346100a65760003660031901126100a6576040517f00000000000000000000000000000000000000000000000000000000000000006001600160a01b03168152602090f35b600080fd5b346100a65760403660031901126100a6576004356001600160a01b038116908181036100a65760243591610109337f00000000000000000000000000000000000000000000000000000000000000006001600160a01b0316146105a5565b82156101f557156101b757604051632d182be560e21b815260048101929092526001600160a01b031660248201523060448201526020818060648101038160007f00000000000000000000000000000000000000000000000000000000000000006001600160a01b03165af180156101ab5761018157005b6101a29060203d6020116101a4575b61019a81836105fb565b810190610633565b005b503d610190565b6040513d6000823e3d90fd5b60405162461bcd60e51b8152602060048201526016602482015275135d5cdd081cdc1958da599e481c9958da5c1a595b9d60521b6044820152606490fd5b60405162461bcd60e51b815260206004820152601760248201527f4d75737420776974686472617720736f6d657468696e670000000000000000006044820152606490fd5b346100a65760203660031901126100a6577f00000000000000000000000000000000000000000000000000000000000000006001600160a01b03166102803382146105a5565b604051636e553f6560e01b815260048035908201526024810182905260208160448160007f00000000000000000000000000000000000000000000000000000000000000006001600160a01b03165af19081156101ab576000916103cf575b6000806103426103b98683806103426103568a604051906103016040836105fb565b601082526f2932b1b2b4bb32b21039b430b932b99d60811b6020830152604051938492632d839cb360e21b6020850152604060248501526064840190610642565b90604483015203601f1981018352826105fb565b6020815191016a636f6e736f6c652e6c6f675afa506040519061037a6040836105fb565b600e82526d39b2b732103a379030b236b4b71d60911b602083015260405193849263319af33360e01b6020850152604060248501526064840190610642565b6020815191016a636f6e736f6c652e6c6f675afa005b90506020813d6020116103fb575b816103ea602093836105fb565b810103126100a657516103426102df565b3d91506103dd565b346100a65760003660031901126100a6577f0000000000000000000000000000000000000000000000000000000000000000610449336001600160a01b038316146105a5565b6040516370a0823160e01b81523060048201527f00000000000000000000000000000000000000000000000000000000000000006001600160a01b031691602082602481865afa9182156101ab576000926104e8575b50604051635d043b2960e11b815260048101929092526001600160a01b0316602482015230604482015290602090829081600081606481015b03925af180156101ab5761018157005b91506020823d602011610516575b81610503602093836105fb565b810103126100a6579051906104d861049f565b3d91506104f6565b346100a65760003660031901126100a6576040517f00000000000000000000000000000000000000000000000000000000000000006001600160a01b03168152602090f35b346100a65760003660031901126100a6577f00000000000000000000000000000000000000000000000000000000000000006001600160a01b03168152602090f35b156105ac57565b60405162461bcd60e51b815260206004820152602160248201527f4f6e6c792061646d696e2063616e2063616c6c20746869732066756e6374696f6044820152603760f91b6064820152608490fd5b90601f8019910116810190811067ffffffffffffffff82111761061d57604052565b634e487b7160e01b600052604160045260246000fd5b908160209103126100a6575190565b919082519283825260005b84811061066e575050826000602080949584010152601f8019910116010190565b8060208092840101518282860101520161064d56fea2646970667358221220b33b1e7606ae1a227b1f3aa2a230d64efd15d3ce166b198ba07c007b1ac0e05a64736f6c634300081b0033000000000000000000000000a0b86991c6218b36c1d19d4a2e9eb0ce3606eb48000000000000000000000000beef01735c132ada46aa9aa4c54623caa92a64cb0000000000000000000000002dc4da4832604f886a81120db11108057f6d6baf",
        "nonce": "0x3c",
        "chainId": "0x3039"
      },
      "additionalContracts": [],
      "isFixedGasLimit": false
    },
    {
      "hash": "0x06d6253e00feddf31ab598efb6f0ce1532025ec6f90396b68a9e51498db04056",
      "transactionType": "CREATE",
      "contractName": "Generalized4626Strategy",
      "contractAddress": "0xF6B96abDD83E224b311Fb2109B364a32Ef960CD9",
      "function": null,
      "arguments": [
        "0x6B175474E89094C44Da98b954EedeAC495271d0F",
        "0x83F20F44975D03b1b09e64809B757c47f942BEeA",
        "0x2DC4Da4832604f886A81120dB11108057f6D6BAf"
      ],
      "transaction": {
        "from": "0xDDC9b558908E28279147D441BF626D4E3e5A5163",
        "gas": "0x93f0d",
        "value": "0x0",
        "input": "0x60e0806040523461020a57606081610a50803803809161001f8285610223565b83398101031261020a576100328161025c565b61004a60406100436020850161025c565b930161025c565b608083905260a082905260c052604051636eb1769f60e11b81523060048201526001600160a01b039283166024820181905292909116602082604481845afa918215610217576000926101de575b5060001982018092116101c85760008060405193602085019063095ea7b360e01b82528660248701526044860152604485526100d5606486610223565b84519082855af16100e4610270565b81610199575b508061018f575b15610149575b6040516106b99081610397823960805181818161014b015281816102a60152818161045e0152610534015260a05181610576015260c05181818160770152818160db0152818161024d01526104160152f35b610182610187936040519063095ea7b360e01b60208301526024820152600060448201526044815261017c606482610223565b826102c7565b6102c7565b3880806100f7565b50803b15156100f1565b80518015925082156101ae575b5050386100ea565b6101c192506020809183010191016102af565b38806101a6565b634e487b7160e01b600052601160045260246000fd5b9091506020813d60201161020f575b816101fa60209383610223565b8101031261020a57519038610098565b600080fd5b3d91506101ed565b6040513d6000823e3d90fd5b601f909101601f19168101906001600160401b0382119082101761024657604052565b634e487b7160e01b600052604160045260246000fd5b51906001600160a01b038216820361020a57565b3d156102aa573d906001600160401b038211610246576040519161029e601f8201601f191660200184610223565b82523d6000602084013e565b606090565b9081602091031261020a5751801515810361020a5790565b6000806102f09260018060a01b03169360208151910182865af16102e9610270565b9083610335565b805190811515918261031a575b50506103065750565b635274afe760e01b60005260045260246000fd5b61032d92506020809183010191016102af565b1538806102fd565b9061035b575080511561034a57805190602001fd5b630a12f52160e11b60005260046000fd5b8151158061038d575b61036c575090565b639996b31560e01b60009081526001600160a01b0391909116600452602490fd5b50803b1561036456fe608080604052600436101561001357600080fd5b60003560e01c9081631083f76114610563575080636c9fa59e1461051e578063853828b614610403578063b6b55f251461023a578063f3fef3a3146100ab5763f851a4401461006157600080fd5b346100a65760003660031901126100a6576040517f00000000000000000000000000000000000000000000000000000000000000006001600160a01b03168152602090f35b600080fd5b346100a65760403660031901126100a6576004356001600160a01b038116908181036100a65760243591610109337f00000000000000000000000000000000000000000000000000000000000000006001600160a01b0316146105a5565b82156101f557156101b757604051632d182be560e21b815260048101929092526001600160a01b031660248201523060448201526020818060648101038160007f00000000000000000000000000000000000000000000000000000000000000006001600160a01b03165af180156101ab5761018157005b6101a29060203d6020116101a4575b61019a81836105fb565b810190610633565b005b503d610190565b6040513d6000823e3d90fd5b60405162461bcd60e51b8152602060048201526016602482015275135d5cdd081cdc1958da599e481c9958da5c1a595b9d60521b6044820152606490fd5b60405162461bcd60e51b815260206004820152601760248201527f4d75737420776974686472617720736f6d657468696e670000000000000000006044820152606490fd5b346100a65760203660031901126100a6577f00000000000000000000000000000000000000000000000000000000000000006001600160a01b03166102803382146105a5565b604051636e553f6560e01b815260048035908201526024810182905260208160448160007f00000000000000000000000000000000000000000000000000000000000000006001600160a01b03165af19081156101ab576000916103cf575b6000806103426103b98683806103426103568a604051906103016040836105fb565b601082526f2932b1b2b4bb32b21039b430b932b99d60811b6020830152604051938492632d839cb360e21b6020850152604060248501526064840190610642565b90604483015203601f1981018352826105fb565b6020815191016a636f6e736f6c652e6c6f675afa506040519061037a6040836105fb565b600e82526d39b2b732103a379030b236b4b71d60911b602083015260405193849263319af33360e01b6020850152604060248501526064840190610642565b6020815191016a636f6e736f6c652e6c6f675afa005b90506020813d6020116103fb575b816103ea602093836105fb565b810103126100a657516103426102df565b3d91506103dd565b346100a65760003660031901126100a6577f0000000000000000000000000000000000000000000000000000000000000000610449336001600160a01b038316146105a5565b6040516370a0823160e01b81523060048201527f00000000000000000000000000000000000000000000000000000000000000006001600160a01b031691602082602481865afa9182156101ab576000926104e8575b50604051635d043b2960e11b815260048101929092526001600160a01b0316602482015230604482015290602090829081600081606481015b03925af180156101ab5761018157005b91506020823d602011610516575b81610503602093836105fb565b810103126100a6579051906104d861049f565b3d91506104f6565b346100a65760003660031901126100a6576040517f00000000000000000000000000000000000000000000000000000000000000006001600160a01b03168152602090f35b346100a65760003660031901126100a6577f00000000000000000000000000000000000000000000000000000000000000006001600160a01b03168152602090f35b156105ac57565b60405162461bcd60e51b815260206004820152602160248201527f4f6e6c792061646d696e2063616e2063616c6c20746869732066756e6374696f6044820152603760f91b6064820152608490fd5b90601f8019910116810190811067ffffffffffffffff82111761061d57604052565b634e487b7160e01b600052604160045260246000fd5b908160209103126100a6575190565b919082519283825260005b84811061066e575050826000602080949584010152601f8019910116010190565b8060208092840101518282860101520161064d56fea2646970667358221220b33b1e7606ae1a227b1f3aa2a230d64efd15d3ce166b198ba07c007b1ac0e05a64736f6c634300081b00330000000000000000000000006b175474e89094c44da98b954eedeac495271d0f00000000000000000000000083f20f44975d03b1b09e64809b757c47f942beea0000000000000000000000002dc4da4832604f886a81120db11108057f6d6baf",
        "nonce": "0x3d",
        "chainId": "0x3039"
      },
      "additionalContracts": [],
      "isFixedGasLimit": false
    },
    {
      "hash": "0x8f887a35e32c4a22e7df83bf7b52396a095e68b8e52a59e3eb8731c2b849c9a1",
      "transactionType": "CREATE",
      "contractName": "Generalized4626Strategy",
      "contractAddress": "0xA0746Dbeea8a23F4699ce9c4D2905646fEAd27a1",
      "function": null,
      "arguments": [
        "0xdAC17F958D2ee523a2206206994597C13D831ec7",
        "0xbEef047a543E45807105E51A8BBEFCc5950fcfBa",
        "0x2DC4Da4832604f886A81120dB11108057f6D6BAf"
      ],
      "transaction": {
        "from": "0xDDC9b558908E28279147D441BF626D4E3e5A5163",
        "gas": "0x94da9",
        "value": "0x0",
        "input": "0x60e0806040523461020a57606081610a50803803809161001f8285610223565b83398101031261020a576100328161025c565b61004a60406100436020850161025c565b930161025c565b608083905260a082905260c052604051636eb1769f60e11b81523060048201526001600160a01b039283166024820181905292909116602082604481845afa918215610217576000926101de575b5060001982018092116101c85760008060405193602085019063095ea7b360e01b82528660248701526044860152604485526100d5606486610223565b84519082855af16100e4610270565b81610199575b508061018f575b15610149575b6040516106b99081610397823960805181818161014b015281816102a60152818161045e0152610534015260a05181610576015260c05181818160770152818160db0152818161024d01526104160152f35b610182610187936040519063095ea7b360e01b60208301526024820152600060448201526044815261017c606482610223565b826102c7565b6102c7565b3880806100f7565b50803b15156100f1565b80518015925082156101ae575b5050386100ea565b6101c192506020809183010191016102af565b38806101a6565b634e487b7160e01b600052601160045260246000fd5b9091506020813d60201161020f575b816101fa60209383610223565b8101031261020a57519038610098565b600080fd5b3d91506101ed565b6040513d6000823e3d90fd5b601f909101601f19168101906001600160401b0382119082101761024657604052565b634e487b7160e01b600052604160045260246000fd5b51906001600160a01b038216820361020a57565b3d156102aa573d906001600160401b038211610246576040519161029e601f8201601f191660200184610223565b82523d6000602084013e565b606090565b9081602091031261020a5751801515810361020a5790565b6000806102f09260018060a01b03169360208151910182865af16102e9610270565b9083610335565b805190811515918261031a575b50506103065750565b635274afe760e01b60005260045260246000fd5b61032d92506020809183010191016102af565b1538806102fd565b9061035b575080511561034a57805190602001fd5b630a12f52160e11b60005260046000fd5b8151158061038d575b61036c575090565b639996b31560e01b60009081526001600160a01b0391909116600452602490fd5b50803b1561036456fe608080604052600436101561001357600080fd5b60003560e01c9081631083f76114610563575080636c9fa59e1461051e578063853828b614610403578063b6b55f251461023a578063f3fef3a3146100ab5763f851a4401461006157600080fd5b346100a65760003660031901126100a6576040517f00000000000000000000000000000000000000000000000000000000000000006001600160a01b03168152602090f35b600080fd5b346100a65760403660031901126100a6576004356001600160a01b038116908181036100a65760243591610109337f00000000000000000000000000000000000000000000000000000000000000006001600160a01b0316146105a5565b82156101f557156101b757604051632d182be560e21b815260048101929092526001600160a01b031660248201523060448201526020818060648101038160007f00000000000000000000000000000000000000000000000000000000000000006001600160a01b03165af180156101ab5761018157005b6101a29060203d6020116101a4575b61019a81836105fb565b810190610633565b005b503d610190565b6040513d6000823e3d90fd5b60405162461bcd60e51b8152602060048201526016602482015275135d5cdd081cdc1958da599e481c9958da5c1a595b9d60521b6044820152606490fd5b60405162461bcd60e51b815260206004820152601760248201527f4d75737420776974686472617720736f6d657468696e670000000000000000006044820152606490fd5b346100a65760203660031901126100a6577f00000000000000000000000000000000000000000000000000000000000000006001600160a01b03166102803382146105a5565b604051636e553f6560e01b815260048035908201526024810182905260208160448160007f00000000000000000000000000000000000000000000000000000000000000006001600160a01b03165af19081156101ab576000916103cf575b6000806103426103b98683806103426103568a604051906103016040836105fb565b601082526f2932b1b2b4bb32b21039b430b932b99d60811b6020830152604051938492632d839cb360e21b6020850152604060248501526064840190610642565b90604483015203601f1981018352826105fb565b6020815191016a636f6e736f6c652e6c6f675afa506040519061037a6040836105fb565b600e82526d39b2b732103a379030b236b4b71d60911b602083015260405193849263319af33360e01b6020850152604060248501526064840190610642565b6020815191016a636f6e736f6c652e6c6f675afa005b90506020813d6020116103fb575b816103ea602093836105fb565b810103126100a657516103426102df565b3d91506103dd565b346100a65760003660031901126100a6577f0000000000000000000000000000000000000000000000000000000000000000610449336001600160a01b038316146105a5565b6040516370a0823160e01b81523060048201527f00000000000000000000000000000000000000000000000000000000000000006001600160a01b031691602082602481865afa9182156101ab576000926104e8575b50604051635d043b2960e11b815260048101929092526001600160a01b0316602482015230604482015290602090829081600081606481015b03925af180156101ab5761018157005b91506020823d602011610516575b81610503602093836105fb565b810103126100a6579051906104d861049f565b3d91506104f6565b346100a65760003660031901126100a6576040517f00000000000000000000000000000000000000000000000000000000000000006001600160a01b03168152602090f35b346100a65760003660031901126100a6577f00000000000000000000000000000000000000000000000000000000000000006001600160a01b03168152602090f35b156105ac57565b60405162461bcd60e51b815260206004820152602160248201527f4f6e6c792061646d696e2063616e2063616c6c20746869732066756e6374696f6044820152603760f91b6064820152608490fd5b90601f8019910116810190811067ffffffffffffffff82111761061d57604052565b634e487b7160e01b600052604160045260246000fd5b908160209103126100a6575190565b919082519283825260005b84811061066e575050826000602080949584010152601f8019910116010190565b8060208092840101518282860101520161064d56fea2646970667358221220b33b1e7606ae1a227b1f3aa2a230d64efd15d3ce166b198ba07c007b1ac0e05a64736f6c634300081b0033000000000000000000000000dac17f958d2ee523a2206206994597c13d831ec7000000000000000000000000beef047a543e45807105e51a8bbefcc5950fcfba0000000000000000000000002dc4da4832604f886a81120db11108057f6d6baf",
        "nonce": "0x3e",
        "chainId": "0x3039"
      },
      "additionalContracts": [],
      "isFixedGasLimit": false
    },
    {
      "hash": "0x9bddb30275f2a625d68ad75bdc4fd219249d438ed3cd66e1b2554fa9e9e5cd6a",
      "transactionType": "CREATE",
      "contractName": "Generalized4626Strategy",
      "contractAddress": "0xfbB732360d6804a3C26AeBFf6eC38cA81a876D1c",
      "function": null,
      "arguments": [
        "0x4c9EDD5852cd905f086C759E8383e09bff1E68B3",
        "0x9D39A5DE30e57443BfF2A8307A4256c8797A3497",
        "0x2DC4Da4832604f886A81120dB11108057f6D6BAf"
      ],
      "transaction": {
        "from": "0xDDC9b558908E28279147D441BF626D4E3e5A5163",
        "gas": "0x94006",
        "value": "0x0",
        "input": "0x60e0806040523461020a57606081610a50803803809161001f8285610223565b83398101031261020a576100328161025c565b61004a60406100436020850161025c565b930161025c565b608083905260a082905260c052604051636eb1769f60e11b81523060048201526001600160a01b039283166024820181905292909116602082604481845afa918215610217576000926101de575b5060001982018092116101c85760008060405193602085019063095ea7b360e01b82528660248701526044860152604485526100d5606486610223565b84519082855af16100e4610270565b81610199575b508061018f575b15610149575b6040516106b99081610397823960805181818161014b015281816102a60152818161045e0152610534015260a05181610576015260c05181818160770152818160db0152818161024d01526104160152f35b610182610187936040519063095ea7b360e01b60208301526024820152600060448201526044815261017c606482610223565b826102c7565b6102c7565b3880806100f7565b50803b15156100f1565b80518015925082156101ae575b5050386100ea565b6101c192506020809183010191016102af565b38806101a6565b634e487b7160e01b600052601160045260246000fd5b9091506020813d60201161020f575b816101fa60209383610223565b8101031261020a57519038610098565b600080fd5b3d91506101ed565b6040513d6000823e3d90fd5b601f909101601f19168101906001600160401b0382119082101761024657604052565b634e487b7160e01b600052604160045260246000fd5b51906001600160a01b038216820361020a57565b3d156102aa573d906001600160401b038211610246576040519161029e601f8201601f191660200184610223565b82523d6000602084013e565b606090565b9081602091031261020a5751801515810361020a5790565b6000806102f09260018060a01b03169360208151910182865af16102e9610270565b9083610335565b805190811515918261031a575b50506103065750565b635274afe760e01b60005260045260246000fd5b61032d92506020809183010191016102af565b1538806102fd565b9061035b575080511561034a57805190602001fd5b630a12f52160e11b60005260046000fd5b8151158061038d575b61036c575090565b639996b31560e01b60009081526001600160a01b0391909116600452602490fd5b50803b1561036456fe608080604052600436101561001357600080fd5b60003560e01c9081631083f76114610563575080636c9fa59e1461051e578063853828b614610403578063b6b55f251461023a578063f3fef3a3146100ab5763f851a4401461006157600080fd5b346100a65760003660031901126100a6576040517f00000000000000000000000000000000000000000000000000000000000000006001600160a01b03168152602090f35b600080fd5b346100a65760403660031901126100a6576004356001600160a01b038116908181036100a65760243591610109337f00000000000000000000000000000000000000000000000000000000000000006001600160a01b0316146105a5565b82156101f557156101b757604051632d182be560e21b815260048101929092526001600160a01b031660248201523060448201526020818060648101038160007f00000000000000000000000000000000000000000000000000000000000000006001600160a01b03165af180156101ab5761018157005b6101a29060203d6020116101a4575b61019a81836105fb565b810190610633565b005b503d610190565b6040513d6000823e3d90fd5b60405162461bcd60e51b8152602060048201526016602482015275135d5cdd081cdc1958da599e481c9958da5c1a595b9d60521b6044820152606490fd5b60405162461bcd60e51b815260206004820152601760248201527f4d75737420776974686472617720736f6d657468696e670000000000000000006044820152606490fd5b346100a65760203660031901126100a6577f00000000000000000000000000000000000000000000000000000000000000006001600160a01b03166102803382146105a5565b604051636e553f6560e01b815260048035908201526024810182905260208160448160007f00000000000000000000000000000000000000000000000000000000000000006001600160a01b03165af19081156101ab576000916103cf575b6000806103426103b98683806103426103568a604051906103016040836105fb565b601082526f2932b1b2b4bb32b21039b430b932b99d60811b6020830152604051938492632d839cb360e21b6020850152604060248501526064840190610642565b90604483015203601f1981018352826105fb565b6020815191016a636f6e736f6c652e6c6f675afa506040519061037a6040836105fb565b600e82526d39b2b732103a379030b236b4b71d60911b602083015260405193849263319af33360e01b6020850152604060248501526064840190610642565b6020815191016a636f6e736f6c652e6c6f675afa005b90506020813d6020116103fb575b816103ea602093836105fb565b810103126100a657516103426102df565b3d91506103dd565b346100a65760003660031901126100a6577f0000000000000000000000000000000000000000000000000000000000000000610449336001600160a01b038316146105a5565b6040516370a0823160e01b81523060048201527f00000000000000000000000000000000000000000000000000000000000000006001600160a01b031691602082602481865afa9182156101ab576000926104e8575b50604051635d043b2960e11b815260048101929092526001600160a01b0316602482015230604482015290602090829081600081606481015b03925af180156101ab5761018157005b91506020823d602011610516575b81610503602093836105fb565b810103126100a6579051906104d861049f565b3d91506104f6565b346100a65760003660031901126100a6576040517f00000000000000000000000000000000000000000000000000000000000000006001600160a01b03168152602090f35b346100a65760003660031901126100a6577f00000000000000000000000000000000000000000000000000000000000000006001600160a01b03168152602090f35b156105ac57565b60405162461bcd60e51b815260206004820152602160248201527f4f6e6c792061646d696e2063616e2063616c6c20746869732066756e6374696f6044820152603760f91b6064820152608490fd5b90601f8019910116810190811067ffffffffffffffff82111761061d57604052565b634e487b7160e01b600052604160045260246000fd5b908160209103126100a6575190565b919082519283825260005b84811061066e575050826000602080949584010152601f8019910116010190565b8060208092840101518282860101520161064d56fea2646970667358221220b33b1e7606ae1a227b1f3aa2a230d64efd15d3ce166b198ba07c007b1ac0e05a64736f6c634300081b00330000000000000000000000004c9edd5852cd905f086c759e8383e09bff1e68b30000000000000000000000009d39a5de30e57443bff2a8307a4256c8797a34970000000000000000000000002dc4da4832604f886a81120db11108057f6d6baf",
        "nonce": "0x3f",
        "chainId": "0x3039"
      },
      "additionalContracts": [],
      "isFixedGasLimit": false
    },
    {
      "hash": "0x8b33473141a8ccc8f718c5d0dddb687789dfaaa907c3c60d84dca350584a4678",
      "transactionType": "CALL",
      "contractName": null,
      "contractAddress": "0x2DC4Da4832604f886A81120dB11108057f6D6BAf",
      "function": "setStrategy(address,address)",
      "arguments": [
        "0xA0b86991c6218b36c1d19D4a2e9Eb0cE3606eB48",
        "0xFD7aEcA9181964B82529d6B7e974B0c443CD9D40"
      ],
      "transaction": {
        "from": "0xDDC9b558908E28279147D441BF626D4E3e5A5163",
        "to": "0x2DC4Da4832604f886A81120dB11108057f6D6BAf",
        "gas": "0x1177a",
        "value": "0x0",
        "input": "0x72cb5d97000000000000000000000000a0b86991c6218b36c1d19d4a2e9eb0ce3606eb48000000000000000000000000fd7aeca9181964b82529d6b7e974b0c443cd9d40",
        "nonce": "0x40",
        "chainId": "0x3039"
      },
      "additionalContracts": [],
      "isFixedGasLimit": false
    },
    {
      "hash": "0x9042fd8f93c99e68314c1f2b7602ed4d969289df905bffea8d837c55ecebc646",
      "transactionType": "CALL",
      "contractName": null,
      "contractAddress": "0x2DC4Da4832604f886A81120dB11108057f6D6BAf",
      "function": "setStrategy(address,address)",
      "arguments": [
        "0x6B175474E89094C44Da98b954EedeAC495271d0F",
        "0xF6B96abDD83E224b311Fb2109B364a32Ef960CD9"
      ],
      "transaction": {
        "from": "0xDDC9b558908E28279147D441BF626D4E3e5A5163",
        "to": "0x2DC4Da4832604f886A81120dB11108057f6D6BAf",
        "gas": "0x1177a",
        "value": "0x0",
        "input": "0x72cb5d970000000000000000000000006b175474e89094c44da98b954eedeac495271d0f000000000000000000000000f6b96abdd83e224b311fb2109b364a32ef960cd9",
        "nonce": "0x41",
        "chainId": "0x3039"
      },
      "additionalContracts": [],
      "isFixedGasLimit": false
    },
    {
      "hash": "0x03c1706e89e3894cad3ed5095ba0fe31f9313c5d85a851d3109e1734a57af2af",
      "transactionType": "CALL",
      "contractName": null,
      "contractAddress": "0x2DC4Da4832604f886A81120dB11108057f6D6BAf",
      "function": "setStrategy(address,address)",
      "arguments": [
        "0xdAC17F958D2ee523a2206206994597C13D831ec7",
        "0xA0746Dbeea8a23F4699ce9c4D2905646fEAd27a1"
      ],
      "transaction": {
        "from": "0xDDC9b558908E28279147D441BF626D4E3e5A5163",
        "to": "0x2DC4Da4832604f886A81120dB11108057f6D6BAf",
        "gas": "0x1177a",
        "value": "0x0",
        "input": "0x72cb5d97000000000000000000000000dac17f958d2ee523a2206206994597c13d831ec7000000000000000000000000a0746dbeea8a23f4699ce9c4d2905646fead27a1",
        "nonce": "0x42",
        "chainId": "0x3039"
      },
      "additionalContracts": [],
      "isFixedGasLimit": false
    },
    {
      "hash": "0x98eb06f8808ab00c58e143f186268613f191f1f40744f70c3cf8ced4434ad4ed",
      "transactionType": "CALL",
      "contractName": null,
      "contractAddress": "0x2DC4Da4832604f886A81120dB11108057f6D6BAf",
      "function": "setStrategy(address,address)",
      "arguments": [
        "0x4c9EDD5852cd905f086C759E8383e09bff1E68B3",
        "0xfbB732360d6804a3C26AeBFf6eC38cA81a876D1c"
      ],
      "transaction": {
        "from": "0xDDC9b558908E28279147D441BF626D4E3e5A5163",
        "to": "0x2DC4Da4832604f886A81120dB11108057f6D6BAf",
        "gas": "0x1177a",
        "value": "0x0",
        "input": "0x72cb5d970000000000000000000000004c9edd5852cd905f086c759e8383e09bff1e68b3000000000000000000000000fbb732360d6804a3c26aebff6ec38ca81a876d1c",
        "nonce": "0x43",
        "chainId": "0x3039"
      },
      "additionalContracts": [],
      "isFixedGasLimit": false
    }
  ],
  "receipts": [
    {
      "status": "0x1",
      "cumulativeGasUsed": "0xcd98",
      "logs": [
        {
          "address": "0x2DC4Da4832604f886A81120dB11108057f6D6BAf",
          "topics": [
            "0x81b85e876e8723f9d61f238308ea004b759aee15ab163f6bd9b2cde9b20cc618",
            "0x000000000000000000000000fed4bb1f4ce7c74e23be2b968e2962431726d4f3"
          ],
          "data": "0x",
          "blockHash": "0x51da7424e6860084e5707345f709d4b08c96b379e969c7e52e736088fa1c8865",
          "blockNumber": "0x145524b",
          "transactionHash": "0x6fcf0f9b3ebfe2914911ccc7a0dd122214fb78a5de2390d12d4e3015fff1cfe8",
          "transactionIndex": "0x0",
          "logIndex": "0x0",
          "removed": false
        }
      ],
      "logsBloom": "0x00000000000000000000000001000000000000000000000000000000000000000000020000000000000000000000000010000000000000000000000000000000000000000000000000000000000000000000000000000000000000000000000000000000000000000000000000000000000000000000000000000000000000000000000800000000000000000001010000000010000000000000000000000000000000000000000008000000000000000000000000000000000000000000000000000000000000000000000000000000000000000000000100000000000000000000000000000000000000000000000000000000000000000000000000000000",
      "type": "0x2",
      "transactionHash": "0x6fcf0f9b3ebfe2914911ccc7a0dd122214fb78a5de2390d12d4e3015fff1cfe8",
      "transactionIndex": "0x0",
      "blockHash": "0x51da7424e6860084e5707345f709d4b08c96b379e969c7e52e736088fa1c8865",
      "blockNumber": "0x145524b",
      "gasUsed": "0xcd98",
      "effectiveGasPrice": "0x3",
      "blobGasUsed": "0x0",
      "from": "0xDDC9b558908E28279147D441BF626D4E3e5A5163",
      "to": "0x2DC4Da4832604f886A81120dB11108057f6D6BAf",
      "contractAddress": null
    },
    {
      "status": "0x1",
      "cumulativeGasUsed": "0x12f8b",
      "logs": [],
      "logsBloom": "0x00000000000000000000000000000000000000000000000000000000000000000000000000000000000000000000000000000000000000000000000000000000000000000000000000000000000000000000000000000000000000000000000000000000000000000000000000000000000000000000000000000000000000000000000000000000000000000000000000000000000000000000000000000000000000000000000000000000000000000000000000000000000000000000000000000000000000000000000000000000000000000000000000000000000000000000000000000000000000000000000000000000000000000000000000000000",
      "type": "0x2",
      "transactionHash": "0x72f336ff884211389d8c428a69c3bb2955615b47ca0ebfb3a83e78aa26053818",
      "transactionIndex": "0x0",
      "blockHash": "0xf1bca9dfb9cbd8248d62d0ebe6a4bf4c86d0af902fad001127d96062c1aec4f9",
      "blockNumber": "0x145524c",
      "gasUsed": "0x12f8b",
      "effectiveGasPrice": "0x3",
      "blobGasUsed": "0x0",
      "from": "0xDDC9b558908E28279147D441BF626D4E3e5A5163",
      "to": "0x8274713D419da3531DfAe1e9ed89d6F9c359cc4d",
      "contractAddress": null
    },
    {
      "status": "0x1",
      "cumulativeGasUsed": "0x12f8b",
      "logs": [],
      "logsBloom": "0x00000000000000000000000000000000000000000000000000000000000000000000000000000000000000000000000000000000000000000000000000000000000000000000000000000000000000000000000000000000000000000000000000000000000000000000000000000000000000000000000000000000000000000000000000000000000000000000000000000000000000000000000000000000000000000000000000000000000000000000000000000000000000000000000000000000000000000000000000000000000000000000000000000000000000000000000000000000000000000000000000000000000000000000000000000000",
      "type": "0x2",
      "transactionHash": "0xbdb333787bc0fad58e99133a9d0da08681f9dc669ef02537f5f69e015fcdd92c",
      "transactionIndex": "0x0",
      "blockHash": "0x8c49d17c8b4cdf079bd64f1cea9141b8bb7a6914ef50d024b6bff0702aefe0f1",
      "blockNumber": "0x145524d",
      "gasUsed": "0x12f8b",
      "effectiveGasPrice": "0x3",
      "blobGasUsed": "0x0",
      "from": "0xDDC9b558908E28279147D441BF626D4E3e5A5163",
      "to": "0x8274713D419da3531DfAe1e9ed89d6F9c359cc4d",
      "contractAddress": null
    },
    {
      "status": "0x1",
      "cumulativeGasUsed": "0xcc90",
      "logs": [
        {
          "address": "0x2DC4Da4832604f886A81120dB11108057f6D6BAf",
          "topics": [
            "0xb12580e226e25bbb446909adeb7b42f7dd51fc77e9b58f14f321016cbd68c16a",
            "0x0000000000000000000000008274713d419da3531dfae1e9ed89d6f9c359cc4d"
          ],
          "data": "0x",
          "blockHash": "0xa94b256223686b05c7af2bb6e1b2634d1c22ce328941ef8cf0e761995c110a44",
          "blockNumber": "0x145524e",
          "transactionHash": "0xb4718c08b31000a8c179614f44f0b4b420c3232b2492b68c9087b4334a2494ab",
          "transactionIndex": "0x0",
          "logIndex": "0x0",
          "removed": false
        }
      ],
      "logsBloom": "0x00000000000000000000000000000000000000000000000000000000000000000000020000000000000000000000000000000000000000000000000000000000000010000000000000000000000000000000000000000000000000000000000001000000000000000000000000000000000000000000000000000000008000000000000000000000000000000000010000000000002000000000000000000000000000000000000000000000000000000000000000000010000000000000000000000000000000000000000000000000000000000000000100000000000000000000000000000000000000000000000000000000000008000000000000000000",
      "type": "0x2",
      "transactionHash": "0xb4718c08b31000a8c179614f44f0b4b420c3232b2492b68c9087b4334a2494ab",
      "transactionIndex": "0x0",
      "blockHash": "0xa94b256223686b05c7af2bb6e1b2634d1c22ce328941ef8cf0e761995c110a44",
      "blockNumber": "0x145524e",
      "gasUsed": "0xcc90",
      "effectiveGasPrice": "0x3",
      "blobGasUsed": "0x0",
      "from": "0xDDC9b558908E28279147D441BF626D4E3e5A5163",
      "to": "0x2DC4Da4832604f886A81120dB11108057f6D6BAf",
      "contractAddress": null
    },
    {
      "status": "0x1",
      "cumulativeGasUsed": "0x12f8b",
      "logs": [],
      "logsBloom": "0x00000000000000000000000000000000000000000000000000000000000000000000000000000000000000000000000000000000000000000000000000000000000000000000000000000000000000000000000000000000000000000000000000000000000000000000000000000000000000000000000000000000000000000000000000000000000000000000000000000000000000000000000000000000000000000000000000000000000000000000000000000000000000000000000000000000000000000000000000000000000000000000000000000000000000000000000000000000000000000000000000000000000000000000000000000000",
      "type": "0x2",
      "transactionHash": "0x8cdb20992d093575960566790c259ee4e51dcdce4518f36e2fccbba3ce2a29e2",
      "transactionIndex": "0x0",
      "blockHash": "0x462a713be4ab23cc1a1b62490b89c72f2182b4b2be75b22f435ef5357f883560",
      "blockNumber": "0x1455250",
      "gasUsed": "0x12f8b",
      "effectiveGasPrice": "0x3",
      "blobGasUsed": "0x0",
      "from": "0xDDC9b558908E28279147D441BF626D4E3e5A5163",
      "to": "0x8274713D419da3531DfAe1e9ed89d6F9c359cc4d",
      "contractAddress": null
    },
    {
      "status": "0x1",
      "cumulativeGasUsed": "0x12f8b",
      "logs": [],
      "logsBloom": "0x00000000000000000000000000000000000000000000000000000000000000000000000000000000000000000000000000000000000000000000000000000000000000000000000000000000000000000000000000000000000000000000000000000000000000000000000000000000000000000000000000000000000000000000000000000000000000000000000000000000000000000000000000000000000000000000000000000000000000000000000000000000000000000000000000000000000000000000000000000000000000000000000000000000000000000000000000000000000000000000000000000000000000000000000000000000",
      "type": "0x2",
      "transactionHash": "0xd25a95cfefd57887ec174d143827a970616c493792f1ee7e76cdc20d11db11b3",
      "transactionIndex": "0x0",
      "blockHash": "0x8d60e33f30f167f11f27d8e6ac5a56d777325169165114c26806a94f75eb7304",
      "blockNumber": "0x1455251",
      "gasUsed": "0x12f8b",
      "effectiveGasPrice": "0x3",
      "blobGasUsed": "0x0",
      "from": "0xDDC9b558908E28279147D441BF626D4E3e5A5163",
      "to": "0x8274713D419da3531DfAe1e9ed89d6F9c359cc4d",
      "contractAddress": null
    },
    {
      "status": "0x1",
      "cumulativeGasUsed": "0x1e2da",
      "logs": [
        {
          "address": "0x2DC4Da4832604f886A81120dB11108057f6D6BAf",
          "topics": [
            "0xfe53ad22d287601d2ed917d8aedf4a9bf6f948833c8b55fbc07d8a4e1cdd7789",
            "0x000000000000000000000000a0b86991c6218b36c1d19d4a2e9eb0ce3606eb48"
          ],
          "data": "0x00000000000000000000000000000000000000000000000000000000000000000000000000000000000000000000000000000000000000000000000000000177",
          "blockHash": "0x1f56e9dd81c48fae91338abd9754f9a92fba18a8176d8026ed222eef991a2a65",
          "blockNumber": "0x1455252",
          "transactionHash": "0xac9482207b808bb54765fbc1d014205636cfdcce53c08315f5ca7ba7ecd8bc8a",
          "transactionIndex": "0x0",
          "logIndex": "0x0",
          "removed": false
        },
        {
          "address": "0x2DC4Da4832604f886A81120dB11108057f6D6BAf",
          "topics": [
            "0x62bd751f51149024e62ea3228318ca127fd1c35241bf764fba1e4b27d255e930",
            "0x000000000000000000000000a0b86991c6218b36c1d19d4a2e9eb0ce3606eb48"
          ],
          "data": "0x00000000000000000000000000000000000000000000000000000000000000060000000000000000000000000000000000000000000000000000000000000177",
          "blockHash": "0x1f56e9dd81c48fae91338abd9754f9a92fba18a8176d8026ed222eef991a2a65",
          "blockNumber": "0x1455252",
          "transactionHash": "0xac9482207b808bb54765fbc1d014205636cfdcce53c08315f5ca7ba7ecd8bc8a",
          "transactionIndex": "0x0",
          "logIndex": "0x1",
          "removed": false
        }
      ],
      "logsBloom": "0x00000000000000000000000000000000000000000000000000000000000000000000020000000000000002000000000000000000000000000000000000000000000000000000000000000000000000000000000000000000000080000000000000000000000000000000000200000000000000000000000000000000000000000000000001000000000200000000010200000000000000000000000000000000000000000000400000000000000000000000000000000000000000000000000000000000000000000000000000000000000000000000000100000000000000000000000000000000000000000000800004000000000000000000000000000000",
      "type": "0x2",
      "transactionHash": "0xac9482207b808bb54765fbc1d014205636cfdcce53c08315f5ca7ba7ecd8bc8a",
      "transactionIndex": "0x0",
      "blockHash": "0x1f56e9dd81c48fae91338abd9754f9a92fba18a8176d8026ed222eef991a2a65",
      "blockNumber": "0x1455252",
      "gasUsed": "0x1e2da",
      "effectiveGasPrice": "0x3",
      "blobGasUsed": "0x0",
      "from": "0xDDC9b558908E28279147D441BF626D4E3e5A5163",
      "to": "0x2DC4Da4832604f886A81120dB11108057f6D6BAf",
      "contractAddress": null
    },
    {
      "status": "0x1",
      "cumulativeGasUsed": "0x15d36",
      "logs": [
        {
          "address": "0x2DC4Da4832604f886A81120dB11108057f6D6BAf",
          "topics": [
            "0xfe53ad22d287601d2ed917d8aedf4a9bf6f948833c8b55fbc07d8a4e1cdd7789",
            "0x000000000000000000000000dac17f958d2ee523a2206206994597c13d831ec7"
          ],
          "data": "0x0000000000000000000000000000000000000000000000000000000000000000000000000000000000000000000000000000000000000000000000000000007d",
          "blockHash": "0xff7cad452e65061b932608ad8447f73ee1cfcb7c8dce120a44baca43703abac4",
          "blockNumber": "0x1455253",
          "transactionHash": "0xc01c3f800895d7ac4ff6eafb48e6f2226b124d52b33ee2535f1fe802ef9bd048",
          "transactionIndex": "0x0",
          "logIndex": "0x0",
          "removed": false
        },
        {
          "address": "0x2DC4Da4832604f886A81120dB11108057f6D6BAf",
          "topics": [
            "0x62bd751f51149024e62ea3228318ca127fd1c35241bf764fba1e4b27d255e930",
            "0x000000000000000000000000dac17f958d2ee523a2206206994597c13d831ec7"
          ],
          "data": "0x0000000000000000000000000000000000000000000000000000000000000006000000000000000000000000000000000000000000000000000000000000007d",
          "blockHash": "0xff7cad452e65061b932608ad8447f73ee1cfcb7c8dce120a44baca43703abac4",
          "blockNumber": "0x1455253",
          "transactionHash": "0xc01c3f800895d7ac4ff6eafb48e6f2226b124d52b33ee2535f1fe802ef9bd048",
          "transactionIndex": "0x0",
          "logIndex": "0x1",
          "removed": false
        }
      ],
      "logsBloom": "0x00000000000000000000000000000000000000000000000000000000000000000000020000000000000000000000000000000000000000000000000000000000000000000000000000000000000000000000000000000000000080000000000000000000000000000000000200000000000000200000000000000000000000000000000001000000000200000000010000000000000000000000000000000000000000000000400000000000000000000000000000000000000000000000004000000000000000000000000000000000000000020000000100000000000000000000000000000000000000000000800000000000000000000000000000000000",
      "type": "0x2",
      "transactionHash": "0xc01c3f800895d7ac4ff6eafb48e6f2226b124d52b33ee2535f1fe802ef9bd048",
      "transactionIndex": "0x0",
      "blockHash": "0xff7cad452e65061b932608ad8447f73ee1cfcb7c8dce120a44baca43703abac4",
      "blockNumber": "0x1455253",
      "gasUsed": "0x15d36",
      "effectiveGasPrice": "0x3",
      "blobGasUsed": "0x0",
      "from": "0xDDC9b558908E28279147D441BF626D4E3e5A5163",
      "to": "0x2DC4Da4832604f886A81120dB11108057f6D6BAf",
      "contractAddress": null
    },
    {
      "status": "0x1",
      "cumulativeGasUsed": "0x71d7b",
      "logs": [
        {
          "address": "0x6B175474E89094C44Da98b954EedeAC495271d0F",
          "topics": [
            "0x8c5be1e5ebec7d5bd14f71427d1e84f3dd0314c0f7b2291e5b200ac8c7c3b925",
            "0x000000000000000000000000a1e0686c3952bd91bb399dd2dfd592dcf73a9caf",
            "0x00000000000000000000000083f20f44975d03b1b09e64809b757c47f942beea"
          ],
          "data": "0xffffffffffffffffffffffffffffffffffffffffffffffffffffffffffffffff",
          "blockHash": "0x2ee587e17fcfb53cac402a5a1a234effcddfffc19e2bfbff4b037fd825659cbb",
          "blockNumber": "0x1455254",
          "transactionHash": "0x06d6253e00feddf31ab598efb6f0ce1532025ec6f90396b68a9e51498db04056",
          "transactionIndex": "0x0",
          "logIndex": "0x0",
          "removed": false
        }
      ],
      "logsBloom": "0x00000000000200000000000000000000000000000000000004000000000000000000000000000000000000000000000000000000000000000000000000200000000000000000000000000008000000000000000000000000080000000000000010000000000000000000000000000000000000000000010000000000000000000000000000000000000000000000000000000000000000000000000000000000020000000001000000000000000000000000000000000000000000000000000000000000000000000000000000000000000002000000000000000000000000000010000000000000000000000000000000000000000000000000004000000000",
      "type": "0x2",
      "transactionHash": "0x06d6253e00feddf31ab598efb6f0ce1532025ec6f90396b68a9e51498db04056",
      "transactionIndex": "0x0",
      "blockHash": "0x2ee587e17fcfb53cac402a5a1a234effcddfffc19e2bfbff4b037fd825659cbb",
      "blockNumber": "0x1455254",
      "gasUsed": "0x71d7b",
      "effectiveGasPrice": "0x3",
      "blobGasUsed": "0x0",
      "from": "0xDDC9b558908E28279147D441BF626D4E3e5A5163",
      "to": null,
      "contractAddress": "0xA1e0686c3952Bd91bB399dd2dFD592dcf73A9CAF"
    },
    {
      "status": "0x1",
      "cumulativeGasUsed": "0x71e3b",
      "logs": [
        {
          "address": "0x4c9EDD5852cd905f086C759E8383e09bff1E68B3",
          "topics": [
            "0x8c5be1e5ebec7d5bd14f71427d1e84f3dd0314c0f7b2291e5b200ac8c7c3b925",
            "0x000000000000000000000000fd7aeca9181964b82529d6b7e974b0c443cd9d40",
            "0x0000000000000000000000009d39a5de30e57443bff2a8307a4256c8797a3497"
          ],
          "data": "0xffffffffffffffffffffffffffffffffffffffffffffffffffffffffffffffff",
          "blockHash": "0xeb10e8e7427ebedb08e87ac24121b64ff2da8fe716f81d33489b33c72f4705d5",
          "blockNumber": "0x1455255",
          "transactionHash": "0x9bddb30275f2a625d68ad75bdc4fd219249d438ed3cd66e1b2554fa9e9e5cd6a",
          "transactionIndex": "0x0",
          "logIndex": "0x0",
          "removed": false
        }
      ],
      "logsBloom": "0x00000000000000000000000000000000000000000000000000000000000000000000000000000000000000000000080800000000000000000000000000200000000000000000000000000004000000000000000000000000000000000000000000000000000000000000000000000000000000000000000000000000000000000100000000000000000000000000001000000000008000000000000000000000020000000000000000000000000000000000000000100000000000000000000000000000000000000000000000000000000000000000000000000040000008000010000000000000000000000000000000000000000000000000000000000000",
      "type": "0x2",
      "transactionHash": "0x9bddb30275f2a625d68ad75bdc4fd219249d438ed3cd66e1b2554fa9e9e5cd6a",
      "transactionIndex": "0x0",
      "blockHash": "0xeb10e8e7427ebedb08e87ac24121b64ff2da8fe716f81d33489b33c72f4705d5",
      "blockNumber": "0x1455255",
      "gasUsed": "0x71e3b",
      "effectiveGasPrice": "0x3",
      "blobGasUsed": "0x0",
      "from": "0xDDC9b558908E28279147D441BF626D4E3e5A5163",
      "to": null,
      "contractAddress": "0xFD7aEcA9181964B82529d6B7e974B0c443CD9D40"
    },
    {
      "status": "0x1",
      "cumulativeGasUsed": "0x15d36",
      "logs": [
        {
          "address": "0x2DC4Da4832604f886A81120dB11108057f6D6BAf",
          "topics": [
            "0xfe53ad22d287601d2ed917d8aedf4a9bf6f948833c8b55fbc07d8a4e1cdd7789",
            "0x0000000000000000000000004c9edd5852cd905f086c759e8383e09bff1e68b3"
          ],
          "data": "0x000000000000000000000000000000000000000000000000000000000000000000000000000000000000000000000000000000000000000000000000000000fa",
          "blockHash": "0xbf85a1dfbd918c7411ee0b70fada41965b96616a2ada5fc1133054842e1e2b58",
          "blockNumber": "0x1455256",
          "transactionHash": "0x8c05e655ea8886ab53276ed10d3bf6adea009c265c6626e0c0663c60a1244004",
          "transactionIndex": "0x0",
          "logIndex": "0x0",
          "removed": false
        },
        {
          "address": "0x2DC4Da4832604f886A81120dB11108057f6D6BAf",
          "topics": [
            "0x62bd751f51149024e62ea3228318ca127fd1c35241bf764fba1e4b27d255e930",
            "0x0000000000000000000000004c9edd5852cd905f086c759e8383e09bff1e68b3"
          ],
          "data": "0x000000000000000000000000000000000000000000000000000000000000001200000000000000000000000000000000000000000000000000000000000000fa",
          "blockHash": "0xbf85a1dfbd918c7411ee0b70fada41965b96616a2ada5fc1133054842e1e2b58",
          "blockNumber": "0x1455256",
          "transactionHash": "0x8c05e655ea8886ab53276ed10d3bf6adea009c265c6626e0c0663c60a1244004",
          "transactionIndex": "0x0",
          "logIndex": "0x1",
          "removed": false
        }
      ],
      "logsBloom": "0x00000000000000000000000000000000000000000000000000000000000000000000020000000000000000000000000000000000000000000000000000000000000000000000000000000000000000000000000000000000000080000000000000000000000000000000000200000000000000000000000000000000000000000000000001000000000200000000010000000001000000000000000000000000000000000000400000000000000000000000000000000000000000000000020000000000000000000000000000000000000000000000000100000000000000000000000000000000000000000000880000000000000000000000000000000000",
      "type": "0x2",
      "transactionHash": "0x8c05e655ea8886ab53276ed10d3bf6adea009c265c6626e0c0663c60a1244004",
      "transactionIndex": "0x0",
      "blockHash": "0xbf85a1dfbd918c7411ee0b70fada41965b96616a2ada5fc1133054842e1e2b58",
      "blockNumber": "0x1455256",
      "gasUsed": "0x15d36",
      "effectiveGasPrice": "0x3",
      "blobGasUsed": "0x0",
      "from": "0xDDC9b558908E28279147D441BF626D4E3e5A5163",
      "to": "0x2DC4Da4832604f886A81120dB11108057f6D6BAf",
      "contractAddress": null
    },
    {
      "status": "0x1",
      "cumulativeGasUsed": "0xca57",
      "logs": [],
      "logsBloom": "0x00000000000000000000000000000000000000000000000000000000000000000000000000000000000000000000000000000000000000000000000000000000000000000000000000000000000000000000000000000000000000000000000000000000000000000000000000000000000000000000000000000000000000000000000000000000000000000000000000000000000000000000000000000000000000000000000000000000000000000000000000000000000000000000000000000000000000000000000000000000000000000000000000000000000000000000000000000000000000000000000000000000000000000000000000000000",
      "type": "0x2",
      "transactionHash": "0x8b33473141a8ccc8f718c5d0dddb687789dfaaa907c3c60d84dca350584a4678",
      "transactionIndex": "0x0",
      "blockHash": "0xe58b5972ebcea54fadf717ec8371b410faa1da4f7611aa5a93ad317f29f44432",
      "blockNumber": "0x1455257",
      "gasUsed": "0xca57",
      "effectiveGasPrice": "0x3",
      "blobGasUsed": "0x0",
      "from": "0xDDC9b558908E28279147D441BF626D4E3e5A5163",
      "to": "0x2DC4Da4832604f886A81120dB11108057f6D6BAf",
      "contractAddress": null
    },
    {
      "status": "0x1",
      "cumulativeGasUsed": "0xca57",
      "logs": [],
      "logsBloom": "0x00000000000000000000000000000000000000000000000000000000000000000000000000000000000000000000000000000000000000000000000000000000000000000000000000000000000000000000000000000000000000000000000000000000000000000000000000000000000000000000000000000000000000000000000000000000000000000000000000000000000000000000000000000000000000000000000000000000000000000000000000000000000000000000000000000000000000000000000000000000000000000000000000000000000000000000000000000000000000000000000000000000000000000000000000000000",
      "type": "0x2",
      "transactionHash": "0x9042fd8f93c99e68314c1f2b7602ed4d969289df905bffea8d837c55ecebc646",
      "transactionIndex": "0x0",
      "blockHash": "0xed983c80afa50a84f9a8716b4c42ff022a061d22fecdbd60843d56b84cf77385",
      "blockNumber": "0x1455258",
      "gasUsed": "0xca57",
      "effectiveGasPrice": "0x3",
      "blobGasUsed": "0x0",
      "from": "0xDDC9b558908E28279147D441BF626D4E3e5A5163",
      "to": "0x2DC4Da4832604f886A81120dB11108057f6D6BAf",
      "contractAddress": null
    },
    {
      "status": "0x1",
      "cumulativeGasUsed": "0xca57",
      "logs": [],
      "logsBloom": "0x00000000000000000000000000000000000000000000000000000000000000000000000000000000000000000000000000000000000000000000000000000000000000000000000000000000000000000000000000000000000000000000000000000000000000000000000000000000000000000000000000000000000000000000000000000000000000000000000000000000000000000000000000000000000000000000000000000000000000000000000000000000000000000000000000000000000000000000000000000000000000000000000000000000000000000000000000000000000000000000000000000000000000000000000000000000",
      "type": "0x2",
      "transactionHash": "0x03c1706e89e3894cad3ed5095ba0fe31f9313c5d85a851d3109e1734a57af2af",
      "transactionIndex": "0x0",
      "blockHash": "0x8a323dd1d00393f766fb41112bd44ef06360e9dd69daeb32a86920d955d60d98",
      "blockNumber": "0x1455259",
      "gasUsed": "0xca57",
      "effectiveGasPrice": "0x3",
      "blobGasUsed": "0x0",
      "from": "0xDDC9b558908E28279147D441BF626D4E3e5A5163",
      "to": "0x2DC4Da4832604f886A81120dB11108057f6D6BAf",
      "contractAddress": null
    },
    {
      "status": "0x1",
      "cumulativeGasUsed": "0x74566",
      "logs": [
        {
          "address": "0xA0b86991c6218b36c1d19D4a2e9Eb0cE3606eB48",
          "topics": [
            "0x8c5be1e5ebec7d5bd14f71427d1e84f3dd0314c0f7b2291e5b200ac8c7c3b925",
            "0x00000000000000000000000036ac86022e915932829476e42750d2302dd98213",
            "0x000000000000000000000000beef01735c132ada46aa9aa4c54623caa92a64cb"
          ],
          "data": "0xffffffffffffffffffffffffffffffffffffffffffffffffffffffffffffffff",
          "blockHash": "0x5a87946dec90119f8ab7947de6fade755d5aec89ad635ac334fe612adc6b9252",
          "blockNumber": "0x145525a",
          "transactionHash": "0xc0f6f4a29c9688268ae0aea3aabd728290af6ac0852630bdedd1a1b998b06168",
          "transactionIndex": "0x0",
          "logIndex": "0x0",
          "removed": false
        }
      ],
      "logsBloom": "0x00000000000000000000000000000000000000000000000000000200000000000000000000000000000000000000000000000000000000000000000000200000000000000000000008000000000000000000000000000000000000000000000000000000000000000000000000000000000000000000000000000000000000000000000000000000000000080000000000000000010000000000000000000000020000000000200000000000000000000000000000000040000000000000000000000000000000000000000000000000000000000000000000000000000000000018000000200000000000000200000000000000000000000000000000000000",
      "type": "0x2",
      "transactionHash": "0xc0f6f4a29c9688268ae0aea3aabd728290af6ac0852630bdedd1a1b998b06168",
      "transactionIndex": "0x0",
      "blockHash": "0x5a87946dec90119f8ab7947de6fade755d5aec89ad635ac334fe612adc6b9252",
      "blockNumber": "0x145525a",
      "gasUsed": "0x74566",
      "effectiveGasPrice": "0x3",
      "blobGasUsed": "0x0",
      "from": "0xDDC9b558908E28279147D441BF626D4E3e5A5163",
      "to": null,
      "contractAddress": "0x36Ac86022E915932829476e42750d2302Dd98213"
    },
    {
      "status": "0x1",
      "cumulativeGasUsed": "0x728b8",
      "logs": [
        {
          "address": "0xdAC17F958D2ee523a2206206994597C13D831ec7",
          "topics": [
            "0x8c5be1e5ebec7d5bd14f71427d1e84f3dd0314c0f7b2291e5b200ac8c7c3b925",
            "0x00000000000000000000000099e354ba3d62259140a7f148e6848a30acf39c29",
            "0x000000000000000000000000beef047a543e45807105e51a8bbefcc5950fcfba"
          ],
          "data": "0xffffffffffffffffffffffffffffffffffffffffffffffffffffffffffffffff",
          "blockHash": "0xcc3afd45ab1ac744e12b4d15896acd9ec3b7a9efede64be051e8728bbaf6fcd6",
          "blockNumber": "0x145525b",
          "transactionHash": "0x8f887a35e32c4a22e7df83bf7b52396a095e68b8e52a59e3eb8731c2b849c9a1",
          "transactionIndex": "0x0",
          "logIndex": "0x0",
          "removed": false
        }
      ],
      "logsBloom": "0x00000000000000000000000000000000000000000000000000000000000000000000000000000000000000000000010000000000000000000000000000200000000020000000000000000000000000000000000000000000000000000000000000000000000000000000000000000000000000000000000000000000000000000000000000000000000000000000000000004000000000000000000000100000020010000000040000004080000000000000000000000000000000000000000000000000000000000000000000000000000000000000000000000000000000000010000000008000000000000000000000000000000000000000000000000000",
      "type": "0x2",
      "transactionHash": "0x8f887a35e32c4a22e7df83bf7b52396a095e68b8e52a59e3eb8731c2b849c9a1",
      "transactionIndex": "0x0",
      "blockHash": "0xcc3afd45ab1ac744e12b4d15896acd9ec3b7a9efede64be051e8728bbaf6fcd6",
      "blockNumber": "0x145525b",
      "gasUsed": "0x728b8",
      "effectiveGasPrice": "0x3",
      "blobGasUsed": "0x0",
      "from": "0xDDC9b558908E28279147D441BF626D4E3e5A5163",
      "to": null,
      "contractAddress": "0x99E354BA3D62259140a7f148E6848a30acF39c29"
    },
    {
      "status": "0x1",
      "cumulativeGasUsed": "0xca57",
      "logs": [],
      "logsBloom": "0x00000000000000000000000000000000000000000000000000000000000000000000000000000000000000000000000000000000000000000000000000000000000000000000000000000000000000000000000000000000000000000000000000000000000000000000000000000000000000000000000000000000000000000000000000000000000000000000000000000000000000000000000000000000000000000000000000000000000000000000000000000000000000000000000000000000000000000000000000000000000000000000000000000000000000000000000000000000000000000000000000000000000000000000000000000000",
      "type": "0x2",
      "transactionHash": "0x98eb06f8808ab00c58e143f186268613f191f1f40744f70c3cf8ced4434ad4ed",
      "transactionIndex": "0x0",
      "blockHash": "0xa2b9d7dc78b29c9a97bc19834b8241a78d54adefb1b630a6f740eb976d2588b4",
      "blockNumber": "0x145525c",
      "gasUsed": "0xca57",
      "effectiveGasPrice": "0x3",
      "blobGasUsed": "0x0",
      "from": "0xDDC9b558908E28279147D441BF626D4E3e5A5163",
      "to": "0x2DC4Da4832604f886A81120dB11108057f6D6BAf",
      "contractAddress": null
    }
  ],
  "libraries": [],
  "pending": [],
  "returns": {},
  "timestamp": 1733409538,
  "chain": 12345,
  "commit": "6d07e8d"
}