{
  "transactions": [
    {
      "hash": "0xa52ef3d9fff8c7e7260c112ccec8c0c84b4d14cb20f1b5c90f5c0c77e1bc7061",
      "transactionType": "CALL",
      "contractName": null,
      "contractAddress": "0x8274713D419da3531DfAe1e9ed89d6F9c359cc4d",
      "function": "addFeed(address,address,uint256,uint8)",
      "arguments": [
        "0x6B175474E89094C44Da98b954EedeAC495271d0F",
        "0xAed0c38402a5d19df6E4c03F4E2DceD6e29c1ee9",
        "86400",
        "8"
      ],
      "transaction": {
        "from": "0xDDC9b558908E28279147D441BF626D4E3e5A5163",
        "to": "0x8274713D419da3531DfAe1e9ed89d6F9c359cc4d",
        "gas": "0xd88e",
        "value": "0x0",
        "input": "0xe81668fc0000000000000000000000006b175474e89094c44da98b954eedeac495271d0f000000000000000000000000aed0c38402a5d19df6e4c03f4e2dced6e29c1ee900000000000000000000000000000000000000000000000000000000000151800000000000000000000000000000000000000000000000000000000000000008",
        "nonce": "0x44",
        "chainId": "0x3039"
      },
      "additionalContracts": [],
      "isFixedGasLimit": false
    },
    {
      "hash": "0xba397aab498b4daf1b938c2452eb08eae8858b447995a6c1bf05f6c609bf3ea4",
      "transactionType": "CALL",
      "contractName": null,
      "contractAddress": "0x2DC4Da4832604f886A81120dB11108057f6D6BAf",
      "function": "setAsset(address,uint8,uint32,address)",
      "arguments": [
        "0x6B175474E89094C44Da98b954EedeAC495271d0F",
        "18",
        "250",
        "0x83F20F44975D03b1b09e64809B757c47f942BEeA"
      ],
      "transaction": {
        "from": "0xDDC9b558908E28279147D441BF626D4E3e5A5163",
        "to": "0x2DC4Da4832604f886A81120dB11108057f6D6BAf",
        "gas": "0x1e258",
        "value": "0x0",
        "input": "0xb0ce3dfa0000000000000000000000006b175474e89094c44da98b954eedeac495271d0f000000000000000000000000000000000000000000000000000000000000001200000000000000000000000000000000000000000000000000000000000000fa00000000000000000000000083f20f44975d03b1b09e64809b757c47f942beea",
        "nonce": "0x45",
        "chainId": "0x3039"
      },
      "additionalContracts": [],
      "isFixedGasLimit": false
    },
    {
      "hash": "0x9de68a2de852b67ea5ec6860b765ecad6753ab9358739d1e9ebe9c967852deca",
      "transactionType": "CREATE",
      "contractName": "Generalized4626Strategy",
      "contractAddress": "0xf7e023880A22B50308C713f15cEd4412a49C6853",
      "function": null,
      "arguments": [
        "0xA0b86991c6218b36c1d19D4a2e9Eb0cE3606eB48",
        "0xBEEF01735c132Ada46AA9aA4c54623cAA92A64CB",
        "0x2DC4Da4832604f886A81120dB11108057f6D6BAf"
      ],
      "transaction": {
        "from": "0xDDC9b558908E28279147D441BF626D4E3e5A5163",
        "gas": "0x972f1",
        "value": "0x0",
        "input": "0x60e0806040523461020a57606081610a50803803809161001f8285610223565b83398101031261020a576100328161025c565b61004a60406100436020850161025c565b930161025c565b608083905260a082905260c052604051636eb1769f60e11b81523060048201526001600160a01b039283166024820181905292909116602082604481845afa918215610217576000926101de575b5060001982018092116101c85760008060405193602085019063095ea7b360e01b82528660248701526044860152604485526100d5606486610223565b84519082855af16100e4610270565b81610199575b508061018f575b15610149575b6040516106b99081610397823960805181818161014b015281816102a60152818161045e0152610534015260a05181610576015260c05181818160770152818160db0152818161024d01526104160152f35b610182610187936040519063095ea7b360e01b60208301526024820152600060448201526044815261017c606482610223565b826102c7565b6102c7565b3880806100f7565b50803b15156100f1565b80518015925082156101ae575b5050386100ea565b6101c192506020809183010191016102af565b38806101a6565b634e487b7160e01b600052601160045260246000fd5b9091506020813d60201161020f575b816101fa60209383610223565b8101031261020a57519038610098565b600080fd5b3d91506101ed565b6040513d6000823e3d90fd5b601f909101601f19168101906001600160401b0382119082101761024657604052565b634e487b7160e01b600052604160045260246000fd5b51906001600160a01b038216820361020a57565b3d156102aa573d906001600160401b038211610246576040519161029e601f8201601f191660200184610223565b82523d6000602084013e565b606090565b9081602091031261020a5751801515810361020a5790565b6000806102f09260018060a01b03169360208151910182865af16102e9610270565b9083610335565b805190811515918261031a575b50506103065750565b635274afe760e01b60005260045260246000fd5b61032d92506020809183010191016102af565b1538806102fd565b9061035b575080511561034a57805190602001fd5b630a12f52160e11b60005260046000fd5b8151158061038d575b61036c575090565b639996b31560e01b60009081526001600160a01b0391909116600452602490fd5b50803b1561036456fe608080604052600436101561001357600080fd5b60003560e01c9081631083f76114610563575080636c9fa59e1461051e578063853828b614610403578063b6b55f251461023a578063f3fef3a3146100ab5763f851a4401461006157600080fd5b346100a65760003660031901126100a6576040517f00000000000000000000000000000000000000000000000000000000000000006001600160a01b03168152602090f35b600080fd5b346100a65760403660031901126100a6576004356001600160a01b038116908181036100a65760243591610109337f00000000000000000000000000000000000000000000000000000000000000006001600160a01b0316146105a5565b82156101f557156101b757604051632d182be560e21b815260048101929092526001600160a01b031660248201523060448201526020818060648101038160007f00000000000000000000000000000000000000000000000000000000000000006001600160a01b03165af180156101ab5761018157005b6101a29060203d6020116101a4575b61019a81836105fb565b810190610633565b005b503d610190565b6040513d6000823e3d90fd5b60405162461bcd60e51b8152602060048201526016602482015275135d5cdd081cdc1958da599e481c9958da5c1a595b9d60521b6044820152606490fd5b60405162461bcd60e51b815260206004820152601760248201527f4d75737420776974686472617720736f6d657468696e670000000000000000006044820152606490fd5b346100a65760203660031901126100a6577f00000000000000000000000000000000000000000000000000000000000000006001600160a01b03166102803382146105a5565b604051636e553f6560e01b815260048035908201526024810182905260208160448160007f00000000000000000000000000000000000000000000000000000000000000006001600160a01b03165af19081156101ab576000916103cf575b6000806103426103b98683806103426103568a604051906103016040836105fb565b601082526f2932b1b2b4bb32b21039b430b932b99d60811b6020830152604051938492632d839cb360e21b6020850152604060248501526064840190610642565b90604483015203601f1981018352826105fb565b6020815191016a636f6e736f6c652e6c6f675afa506040519061037a6040836105fb565b600e82526d39b2b732103a379030b236b4b71d60911b602083015260405193849263319af33360e01b6020850152604060248501526064840190610642565b6020815191016a636f6e736f6c652e6c6f675afa005b90506020813d6020116103fb575b816103ea602093836105fb565b810103126100a657516103426102df565b3d91506103dd565b346100a65760003660031901126100a6577f0000000000000000000000000000000000000000000000000000000000000000610449336001600160a01b038316146105a5565b6040516370a0823160e01b81523060048201527f00000000000000000000000000000000000000000000000000000000000000006001600160a01b031691602082602481865afa9182156101ab576000926104e8575b50604051635d043b2960e11b815260048101929092526001600160a01b0316602482015230604482015290602090829081600081606481015b03925af180156101ab5761018157005b91506020823d602011610516575b81610503602093836105fb565b810103126100a6579051906104d861049f565b3d91506104f6565b346100a65760003660031901126100a6576040517f00000000000000000000000000000000000000000000000000000000000000006001600160a01b03168152602090f35b346100a65760003660031901126100a6577f00000000000000000000000000000000000000000000000000000000000000006001600160a01b03168152602090f35b156105ac57565b60405162461bcd60e51b815260206004820152602160248201527f4f6e6c792061646d696e2063616e2063616c6c20746869732066756e6374696f6044820152603760f91b6064820152608490fd5b90601f8019910116810190811067ffffffffffffffff82111761061d57604052565b634e487b7160e01b600052604160045260246000fd5b908160209103126100a6575190565b919082519283825260005b84811061066e575050826000602080949584010152601f8019910116010190565b8060208092840101518282860101520161064d56fea2646970667358221220b33b1e7606ae1a227b1f3aa2a230d64efd15d3ce166b198ba07c007b1ac0e05a64736f6c634300081b0033000000000000000000000000a0b86991c6218b36c1d19d4a2e9eb0ce3606eb48000000000000000000000000beef01735c132ada46aa9aa4c54623caa92a64cb0000000000000000000000002dc4da4832604f886a81120db11108057f6d6baf",
        "nonce": "0x46",
        "chainId": "0x3039"
      },
      "additionalContracts": [],
      "isFixedGasLimit": false
    },
    {
      "hash": "0x91462846a3c74d4be7a4a263d2f58939525d472bf1fd022e186ffaed8a324281",
      "transactionType": "CREATE",
      "contractName": "Generalized4626Strategy",
      "contractAddress": "0xD3f76b87EF16CB00e7c0591DF674419D3695a9fB",
      "function": null,
      "arguments": [
        "0x6B175474E89094C44Da98b954EedeAC495271d0F",
        "0x83F20F44975D03b1b09e64809B757c47f942BEeA",
        "0x2DC4Da4832604f886A81120dB11108057f6D6BAf"
      ],
      "transaction": {
        "from": "0xDDC9b558908E28279147D441BF626D4E3e5A5163",
        "gas": "0x93f0d",
        "value": "0x0",
        "input": "0x60e0806040523461020a57606081610a50803803809161001f8285610223565b83398101031261020a576100328161025c565b61004a60406100436020850161025c565b930161025c565b608083905260a082905260c052604051636eb1769f60e11b81523060048201526001600160a01b039283166024820181905292909116602082604481845afa918215610217576000926101de575b5060001982018092116101c85760008060405193602085019063095ea7b360e01b82528660248701526044860152604485526100d5606486610223565b84519082855af16100e4610270565b81610199575b508061018f575b15610149575b6040516106b99081610397823960805181818161014b015281816102a60152818161045e0152610534015260a05181610576015260c05181818160770152818160db0152818161024d01526104160152f35b610182610187936040519063095ea7b360e01b60208301526024820152600060448201526044815261017c606482610223565b826102c7565b6102c7565b3880806100f7565b50803b15156100f1565b80518015925082156101ae575b5050386100ea565b6101c192506020809183010191016102af565b38806101a6565b634e487b7160e01b600052601160045260246000fd5b9091506020813d60201161020f575b816101fa60209383610223565b8101031261020a57519038610098565b600080fd5b3d91506101ed565b6040513d6000823e3d90fd5b601f909101601f19168101906001600160401b0382119082101761024657604052565b634e487b7160e01b600052604160045260246000fd5b51906001600160a01b038216820361020a57565b3d156102aa573d906001600160401b038211610246576040519161029e601f8201601f191660200184610223565b82523d6000602084013e565b606090565b9081602091031261020a5751801515810361020a5790565b6000806102f09260018060a01b03169360208151910182865af16102e9610270565b9083610335565b805190811515918261031a575b50506103065750565b635274afe760e01b60005260045260246000fd5b61032d92506020809183010191016102af565b1538806102fd565b9061035b575080511561034a57805190602001fd5b630a12f52160e11b60005260046000fd5b8151158061038d575b61036c575090565b639996b31560e01b60009081526001600160a01b0391909116600452602490fd5b50803b1561036456fe608080604052600436101561001357600080fd5b60003560e01c9081631083f76114610563575080636c9fa59e1461051e578063853828b614610403578063b6b55f251461023a578063f3fef3a3146100ab5763f851a4401461006157600080fd5b346100a65760003660031901126100a6576040517f00000000000000000000000000000000000000000000000000000000000000006001600160a01b03168152602090f35b600080fd5b346100a65760403660031901126100a6576004356001600160a01b038116908181036100a65760243591610109337f00000000000000000000000000000000000000000000000000000000000000006001600160a01b0316146105a5565b82156101f557156101b757604051632d182be560e21b815260048101929092526001600160a01b031660248201523060448201526020818060648101038160007f00000000000000000000000000000000000000000000000000000000000000006001600160a01b03165af180156101ab5761018157005b6101a29060203d6020116101a4575b61019a81836105fb565b810190610633565b005b503d610190565b6040513d6000823e3d90fd5b60405162461bcd60e51b8152602060048201526016602482015275135d5cdd081cdc1958da599e481c9958da5c1a595b9d60521b6044820152606490fd5b60405162461bcd60e51b815260206004820152601760248201527f4d75737420776974686472617720736f6d657468696e670000000000000000006044820152606490fd5b346100a65760203660031901126100a6577f00000000000000000000000000000000000000000000000000000000000000006001600160a01b03166102803382146105a5565b604051636e553f6560e01b815260048035908201526024810182905260208160448160007f00000000000000000000000000000000000000000000000000000000000000006001600160a01b03165af19081156101ab576000916103cf575b6000806103426103b98683806103426103568a604051906103016040836105fb565b601082526f2932b1b2b4bb32b21039b430b932b99d60811b6020830152604051938492632d839cb360e21b6020850152604060248501526064840190610642565b90604483015203601f1981018352826105fb565b6020815191016a636f6e736f6c652e6c6f675afa506040519061037a6040836105fb565b600e82526d39b2b732103a379030b236b4b71d60911b602083015260405193849263319af33360e01b6020850152604060248501526064840190610642565b6020815191016a636f6e736f6c652e6c6f675afa005b90506020813d6020116103fb575b816103ea602093836105fb565b810103126100a657516103426102df565b3d91506103dd565b346100a65760003660031901126100a6577f0000000000000000000000000000000000000000000000000000000000000000610449336001600160a01b038316146105a5565b6040516370a0823160e01b81523060048201527f00000000000000000000000000000000000000000000000000000000000000006001600160a01b031691602082602481865afa9182156101ab576000926104e8575b50604051635d043b2960e11b815260048101929092526001600160a01b0316602482015230604482015290602090829081600081606481015b03925af180156101ab5761018157005b91506020823d602011610516575b81610503602093836105fb565b810103126100a6579051906104d861049f565b3d91506104f6565b346100a65760003660031901126100a6576040517f00000000000000000000000000000000000000000000000000000000000000006001600160a01b03168152602090f35b346100a65760003660031901126100a6577f00000000000000000000000000000000000000000000000000000000000000006001600160a01b03168152602090f35b156105ac57565b60405162461bcd60e51b815260206004820152602160248201527f4f6e6c792061646d696e2063616e2063616c6c20746869732066756e6374696f6044820152603760f91b6064820152608490fd5b90601f8019910116810190811067ffffffffffffffff82111761061d57604052565b634e487b7160e01b600052604160045260246000fd5b908160209103126100a6575190565b919082519283825260005b84811061066e575050826000602080949584010152601f8019910116010190565b8060208092840101518282860101520161064d56fea2646970667358221220b33b1e7606ae1a227b1f3aa2a230d64efd15d3ce166b198ba07c007b1ac0e05a64736f6c634300081b00330000000000000000000000006b175474e89094c44da98b954eedeac495271d0f00000000000000000000000083f20f44975d03b1b09e64809b757c47f942beea0000000000000000000000002dc4da4832604f886a81120db11108057f6d6baf",
        "nonce": "0x47",
        "chainId": "0x3039"
      },
      "additionalContracts": [],
      "isFixedGasLimit": false
    },
    {
      "hash": "0x159e2157270697a6af1458224999b615ebe834de4e493600ff2c94461968c220",
      "transactionType": "CREATE",
      "contractName": "Generalized4626Strategy",
      "contractAddress": "0x8Afce2895c93D73B53CCA57b2E27819A76D3BBE1",
      "function": null,
      "arguments": [
        "0xdAC17F958D2ee523a2206206994597C13D831ec7",
        "0xbEef047a543E45807105E51A8BBEFCc5950fcfBa",
        "0x2DC4Da4832604f886A81120dB11108057f6D6BAf"
      ],
      "transaction": {
        "from": "0xDDC9b558908E28279147D441BF626D4E3e5A5163",
        "gas": "0x94da9",
        "value": "0x0",
        "input": "0x60e0806040523461020a57606081610a50803803809161001f8285610223565b83398101031261020a576100328161025c565b61004a60406100436020850161025c565b930161025c565b608083905260a082905260c052604051636eb1769f60e11b81523060048201526001600160a01b039283166024820181905292909116602082604481845afa918215610217576000926101de575b5060001982018092116101c85760008060405193602085019063095ea7b360e01b82528660248701526044860152604485526100d5606486610223565b84519082855af16100e4610270565b81610199575b508061018f575b15610149575b6040516106b99081610397823960805181818161014b015281816102a60152818161045e0152610534015260a05181610576015260c05181818160770152818160db0152818161024d01526104160152f35b610182610187936040519063095ea7b360e01b60208301526024820152600060448201526044815261017c606482610223565b826102c7565b6102c7565b3880806100f7565b50803b15156100f1565b80518015925082156101ae575b5050386100ea565b6101c192506020809183010191016102af565b38806101a6565b634e487b7160e01b600052601160045260246000fd5b9091506020813d60201161020f575b816101fa60209383610223565b8101031261020a57519038610098565b600080fd5b3d91506101ed565b6040513d6000823e3d90fd5b601f909101601f19168101906001600160401b0382119082101761024657604052565b634e487b7160e01b600052604160045260246000fd5b51906001600160a01b038216820361020a57565b3d156102aa573d906001600160401b038211610246576040519161029e601f8201601f191660200184610223565b82523d6000602084013e565b606090565b9081602091031261020a5751801515810361020a5790565b6000806102f09260018060a01b03169360208151910182865af16102e9610270565b9083610335565b805190811515918261031a575b50506103065750565b635274afe760e01b60005260045260246000fd5b61032d92506020809183010191016102af565b1538806102fd565b9061035b575080511561034a57805190602001fd5b630a12f52160e11b60005260046000fd5b8151158061038d575b61036c575090565b639996b31560e01b60009081526001600160a01b0391909116600452602490fd5b50803b1561036456fe608080604052600436101561001357600080fd5b60003560e01c9081631083f76114610563575080636c9fa59e1461051e578063853828b614610403578063b6b55f251461023a578063f3fef3a3146100ab5763f851a4401461006157600080fd5b346100a65760003660031901126100a6576040517f00000000000000000000000000000000000000000000000000000000000000006001600160a01b03168152602090f35b600080fd5b346100a65760403660031901126100a6576004356001600160a01b038116908181036100a65760243591610109337f00000000000000000000000000000000000000000000000000000000000000006001600160a01b0316146105a5565b82156101f557156101b757604051632d182be560e21b815260048101929092526001600160a01b031660248201523060448201526020818060648101038160007f00000000000000000000000000000000000000000000000000000000000000006001600160a01b03165af180156101ab5761018157005b6101a29060203d6020116101a4575b61019a81836105fb565b810190610633565b005b503d610190565b6040513d6000823e3d90fd5b60405162461bcd60e51b8152602060048201526016602482015275135d5cdd081cdc1958da599e481c9958da5c1a595b9d60521b6044820152606490fd5b60405162461bcd60e51b815260206004820152601760248201527f4d75737420776974686472617720736f6d657468696e670000000000000000006044820152606490fd5b346100a65760203660031901126100a6577f00000000000000000000000000000000000000000000000000000000000000006001600160a01b03166102803382146105a5565b604051636e553f6560e01b815260048035908201526024810182905260208160448160007f00000000000000000000000000000000000000000000000000000000000000006001600160a01b03165af19081156101ab576000916103cf575b6000806103426103b98683806103426103568a604051906103016040836105fb565b601082526f2932b1b2b4bb32b21039b430b932b99d60811b6020830152604051938492632d839cb360e21b6020850152604060248501526064840190610642565b90604483015203601f1981018352826105fb565b6020815191016a636f6e736f6c652e6c6f675afa506040519061037a6040836105fb565b600e82526d39b2b732103a379030b236b4b71d60911b602083015260405193849263319af33360e01b6020850152604060248501526064840190610642565b6020815191016a636f6e736f6c652e6c6f675afa005b90506020813d6020116103fb575b816103ea602093836105fb565b810103126100a657516103426102df565b3d91506103dd565b346100a65760003660031901126100a6577f0000000000000000000000000000000000000000000000000000000000000000610449336001600160a01b038316146105a5565b6040516370a0823160e01b81523060048201527f00000000000000000000000000000000000000000000000000000000000000006001600160a01b031691602082602481865afa9182156101ab576000926104e8575b50604051635d043b2960e11b815260048101929092526001600160a01b0316602482015230604482015290602090829081600081606481015b03925af180156101ab5761018157005b91506020823d602011610516575b81610503602093836105fb565b810103126100a6579051906104d861049f565b3d91506104f6565b346100a65760003660031901126100a6576040517f00000000000000000000000000000000000000000000000000000000000000006001600160a01b03168152602090f35b346100a65760003660031901126100a6577f00000000000000000000000000000000000000000000000000000000000000006001600160a01b03168152602090f35b156105ac57565b60405162461bcd60e51b815260206004820152602160248201527f4f6e6c792061646d696e2063616e2063616c6c20746869732066756e6374696f6044820152603760f91b6064820152608490fd5b90601f8019910116810190811067ffffffffffffffff82111761061d57604052565b634e487b7160e01b600052604160045260246000fd5b908160209103126100a6575190565b919082519283825260005b84811061066e575050826000602080949584010152601f8019910116010190565b8060208092840101518282860101520161064d56fea2646970667358221220b33b1e7606ae1a227b1f3aa2a230d64efd15d3ce166b198ba07c007b1ac0e05a64736f6c634300081b0033000000000000000000000000dac17f958d2ee523a2206206994597c13d831ec7000000000000000000000000beef047a543e45807105e51a8bbefcc5950fcfba0000000000000000000000002dc4da4832604f886a81120db11108057f6d6baf",
        "nonce": "0x48",
        "chainId": "0x3039"
      },
      "additionalContracts": [],
      "isFixedGasLimit": false
    },
    {
      "hash": "0x8bbdf9e1a1564f10534a5b3a5843b818bc7dc20c278547da058d2c3950029368",
      "transactionType": "CREATE",
      "contractName": "Generalized4626Strategy",
      "contractAddress": "0x000B6D1f05e3E59F49191c617450ad0Bb4B24ab5",
      "function": null,
      "arguments": [
        "0x4c9EDD5852cd905f086C759E8383e09bff1E68B3",
        "0x9D39A5DE30e57443BfF2A8307A4256c8797A3497",
        "0x2DC4Da4832604f886A81120dB11108057f6D6BAf"
      ],
      "transaction": {
        "from": "0xDDC9b558908E28279147D441BF626D4E3e5A5163",
        "gas": "0x94006",
        "value": "0x0",
        "input": "0x60e0806040523461020a57606081610a50803803809161001f8285610223565b83398101031261020a576100328161025c565b61004a60406100436020850161025c565b930161025c565b608083905260a082905260c052604051636eb1769f60e11b81523060048201526001600160a01b039283166024820181905292909116602082604481845afa918215610217576000926101de575b5060001982018092116101c85760008060405193602085019063095ea7b360e01b82528660248701526044860152604485526100d5606486610223565b84519082855af16100e4610270565b81610199575b508061018f575b15610149575b6040516106b99081610397823960805181818161014b015281816102a60152818161045e0152610534015260a05181610576015260c05181818160770152818160db0152818161024d01526104160152f35b610182610187936040519063095ea7b360e01b60208301526024820152600060448201526044815261017c606482610223565b826102c7565b6102c7565b3880806100f7565b50803b15156100f1565b80518015925082156101ae575b5050386100ea565b6101c192506020809183010191016102af565b38806101a6565b634e487b7160e01b600052601160045260246000fd5b9091506020813d60201161020f575b816101fa60209383610223565b8101031261020a57519038610098565b600080fd5b3d91506101ed565b6040513d6000823e3d90fd5b601f909101601f19168101906001600160401b0382119082101761024657604052565b634e487b7160e01b600052604160045260246000fd5b51906001600160a01b038216820361020a57565b3d156102aa573d906001600160401b038211610246576040519161029e601f8201601f191660200184610223565b82523d6000602084013e565b606090565b9081602091031261020a5751801515810361020a5790565b6000806102f09260018060a01b03169360208151910182865af16102e9610270565b9083610335565b805190811515918261031a575b50506103065750565b635274afe760e01b60005260045260246000fd5b61032d92506020809183010191016102af565b1538806102fd565b9061035b575080511561034a57805190602001fd5b630a12f52160e11b60005260046000fd5b8151158061038d575b61036c575090565b639996b31560e01b60009081526001600160a01b0391909116600452602490fd5b50803b1561036456fe608080604052600436101561001357600080fd5b60003560e01c9081631083f76114610563575080636c9fa59e1461051e578063853828b614610403578063b6b55f251461023a578063f3fef3a3146100ab5763f851a4401461006157600080fd5b346100a65760003660031901126100a6576040517f00000000000000000000000000000000000000000000000000000000000000006001600160a01b03168152602090f35b600080fd5b346100a65760403660031901126100a6576004356001600160a01b038116908181036100a65760243591610109337f00000000000000000000000000000000000000000000000000000000000000006001600160a01b0316146105a5565b82156101f557156101b757604051632d182be560e21b815260048101929092526001600160a01b031660248201523060448201526020818060648101038160007f00000000000000000000000000000000000000000000000000000000000000006001600160a01b03165af180156101ab5761018157005b6101a29060203d6020116101a4575b61019a81836105fb565b810190610633565b005b503d610190565b6040513d6000823e3d90fd5b60405162461bcd60e51b8152602060048201526016602482015275135d5cdd081cdc1958da599e481c9958da5c1a595b9d60521b6044820152606490fd5b60405162461bcd60e51b815260206004820152601760248201527f4d75737420776974686472617720736f6d657468696e670000000000000000006044820152606490fd5b346100a65760203660031901126100a6577f00000000000000000000000000000000000000000000000000000000000000006001600160a01b03166102803382146105a5565b604051636e553f6560e01b815260048035908201526024810182905260208160448160007f00000000000000000000000000000000000000000000000000000000000000006001600160a01b03165af19081156101ab576000916103cf575b6000806103426103b98683806103426103568a604051906103016040836105fb565b601082526f2932b1b2b4bb32b21039b430b932b99d60811b6020830152604051938492632d839cb360e21b6020850152604060248501526064840190610642565b90604483015203601f1981018352826105fb565b6020815191016a636f6e736f6c652e6c6f675afa506040519061037a6040836105fb565b600e82526d39b2b732103a379030b236b4b71d60911b602083015260405193849263319af33360e01b6020850152604060248501526064840190610642565b6020815191016a636f6e736f6c652e6c6f675afa005b90506020813d6020116103fb575b816103ea602093836105fb565b810103126100a657516103426102df565b3d91506103dd565b346100a65760003660031901126100a6577f0000000000000000000000000000000000000000000000000000000000000000610449336001600160a01b038316146105a5565b6040516370a0823160e01b81523060048201527f00000000000000000000000000000000000000000000000000000000000000006001600160a01b031691602082602481865afa9182156101ab576000926104e8575b50604051635d043b2960e11b815260048101929092526001600160a01b0316602482015230604482015290602090829081600081606481015b03925af180156101ab5761018157005b91506020823d602011610516575b81610503602093836105fb565b810103126100a6579051906104d861049f565b3d91506104f6565b346100a65760003660031901126100a6576040517f00000000000000000000000000000000000000000000000000000000000000006001600160a01b03168152602090f35b346100a65760003660031901126100a6577f00000000000000000000000000000000000000000000000000000000000000006001600160a01b03168152602090f35b156105ac57565b60405162461bcd60e51b815260206004820152602160248201527f4f6e6c792061646d696e2063616e2063616c6c20746869732066756e6374696f6044820152603760f91b6064820152608490fd5b90601f8019910116810190811067ffffffffffffffff82111761061d57604052565b634e487b7160e01b600052604160045260246000fd5b908160209103126100a6575190565b919082519283825260005b84811061066e575050826000602080949584010152601f8019910116010190565b8060208092840101518282860101520161064d56fea2646970667358221220b33b1e7606ae1a227b1f3aa2a230d64efd15d3ce166b198ba07c007b1ac0e05a64736f6c634300081b00330000000000000000000000004c9edd5852cd905f086c759e8383e09bff1e68b30000000000000000000000009d39a5de30e57443bff2a8307a4256c8797a34970000000000000000000000002dc4da4832604f886a81120db11108057f6d6baf",
        "nonce": "0x49",
        "chainId": "0x3039"
      },
      "additionalContracts": [],
      "isFixedGasLimit": false
    },
    {
      "hash": "0x678b12ddfe9f0162db5825fe670c7b49f62980af8047764fa2e022c3f3bd509e",
      "transactionType": "CALL",
      "contractName": null,
      "contractAddress": "0x2DC4Da4832604f886A81120dB11108057f6D6BAf",
      "function": "setStrategy(address,address)",
      "arguments": [
        "0xA0b86991c6218b36c1d19D4a2e9Eb0cE3606eB48",
        "0xf7e023880A22B50308C713f15cEd4412a49C6853"
      ],
      "transaction": {
        "from": "0xDDC9b558908E28279147D441BF626D4E3e5A5163",
        "to": "0x2DC4Da4832604f886A81120dB11108057f6D6BAf",
        "gas": "0xc63a",
        "value": "0x0",
        "input": "0x72cb5d97000000000000000000000000a0b86991c6218b36c1d19d4a2e9eb0ce3606eb48000000000000000000000000f7e023880a22b50308c713f15ced4412a49c6853",
        "nonce": "0x4a",
        "chainId": "0x3039"
      },
      "additionalContracts": [],
      "isFixedGasLimit": false
    },
    {
      "hash": "0x391f56be0f9d04efbcdafa42c86f8c2d0f2971c9c82cc00ed7f7108b73096c1b",
      "transactionType": "CALL",
      "contractName": null,
      "contractAddress": "0x2DC4Da4832604f886A81120dB11108057f6D6BAf",
      "function": "setStrategy(address,address)",
      "arguments": [
        "0x6B175474E89094C44Da98b954EedeAC495271d0F",
        "0xD3f76b87EF16CB00e7c0591DF674419D3695a9fB"
      ],
      "transaction": {
        "from": "0xDDC9b558908E28279147D441BF626D4E3e5A5163",
        "to": "0x2DC4Da4832604f886A81120dB11108057f6D6BAf",
        "gas": "0xbb26",
        "value": "0x0",
        "input": "0x72cb5d970000000000000000000000006b175474e89094c44da98b954eedeac495271d0f000000000000000000000000d3f76b87ef16cb00e7c0591df674419d3695a9fb",
        "nonce": "0x4b",
        "chainId": "0x3039"
      },
      "additionalContracts": [],
      "isFixedGasLimit": false
    },
    {
      "hash": "0x13230c5a5e185c2352d728a296cd9f3dd61a10bdb0b60df3d79fb63f78fd44e7",
      "transactionType": "CALL",
      "contractName": null,
      "contractAddress": "0x2DC4Da4832604f886A81120dB11108057f6D6BAf",
      "function": "setStrategy(address,address)",
      "arguments": [
        "0xdAC17F958D2ee523a2206206994597C13D831ec7",
        "0x8Afce2895c93D73B53CCA57b2E27819A76D3BBE1"
      ],
      "transaction": {
        "from": "0xDDC9b558908E28279147D441BF626D4E3e5A5163",
        "to": "0x2DC4Da4832604f886A81120dB11108057f6D6BAf",
        "gas": "0xc63a",
        "value": "0x0",
        "input": "0x72cb5d97000000000000000000000000dac17f958d2ee523a2206206994597c13d831ec70000000000000000000000008afce2895c93d73b53cca57b2e27819a76d3bbe1",
        "nonce": "0x4c",
        "chainId": "0x3039"
      },
      "additionalContracts": [],
      "isFixedGasLimit": false
    },
    {
      "hash": "0x233bd872eaca5389299d03545cd960d89526b1fe4823cd5663a46e4d171f57bc",
      "transactionType": "CALL",
      "contractName": null,
      "contractAddress": "0x2DC4Da4832604f886A81120dB11108057f6D6BAf",
      "function": "setStrategy(address,address)",
      "arguments": [
        "0x4c9EDD5852cd905f086C759E8383e09bff1E68B3",
        "0x000B6D1f05e3E59F49191c617450ad0Bb4B24ab5"
      ],
      "transaction": {
        "from": "0xDDC9b558908E28279147D441BF626D4E3e5A5163",
        "to": "0x2DC4Da4832604f886A81120dB11108057f6D6BAf",
        "gas": "0xbb26",
        "value": "0x0",
        "input": "0x72cb5d970000000000000000000000004c9edd5852cd905f086c759e8383e09bff1e68b3000000000000000000000000000b6d1f05e3e59f49191c617450ad0bb4b24ab5",
        "nonce": "0x4d",
        "chainId": "0x3039"
      },
      "additionalContracts": [],
      "isFixedGasLimit": false
    }
  ],
  "receipts": [
    {
      "status": "0x1",
      "cumulativeGasUsed": "0x9413",
      "logs": [],
      "logsBloom": "0x00000000000000000000000000000000000000000000000000000000000000000000000000000000000000000000000000000000000000000000000000000000000000000000000000000000000000000000000000000000000000000000000000000000000000000000000000000000000000000000000000000000000000000000000000000000000000000000000000000000000000000000000000000000000000000000000000000000000000000000000000000000000000000000000000000000000000000000000000000000000000000000000000000000000000000000000000000000000000000000000000000000000000000000000000000000",
      "type": "0x2",
      "transactionHash": "0xa52ef3d9fff8c7e7260c112ccec8c0c84b4d14cb20f1b5c90f5c0c77e1bc7061",
      "transactionIndex": "0x0",
      "blockHash": "0xb8032877e399252567b6459dba76e8f10f8d103061a10710ffa595016f496227",
      "blockNumber": "0x145525d",
      "gasUsed": "0x9413",
      "effectiveGasPrice": "0x3",
      "blobGasUsed": "0x0",
      "from": "0xDDC9b558908E28279147D441BF626D4E3e5A5163",
      "to": "0x8274713D419da3531DfAe1e9ed89d6F9c359cc4d",
      "contractAddress": null
    },
    {
      "status": "0x1",
      "cumulativeGasUsed": "0x728b8",
      "logs": [
        {
          "address": "0xdAC17F958D2ee523a2206206994597C13D831ec7",
          "topics": [
            "0x8c5be1e5ebec7d5bd14f71427d1e84f3dd0314c0f7b2291e5b200ac8c7c3b925",
            "0x0000000000000000000000006662cbf86b2d15a46d031457737300d0363ad342",
            "0x000000000000000000000000beef047a543e45807105e51a8bbefcc5950fcfba"
          ],
          "data": "0xffffffffffffffffffffffffffffffffffffffffffffffffffffffffffffffff",
          "blockHash": "0x0a430392273e989b7cd8d3526e143ff8a8107c85a2ceb3b11f8df10af93cc4aa",
          "blockNumber": "0x145525e",
          "transactionHash": "0x159e2157270697a6af1458224999b615ebe834de4e493600ff2c94461968c220",
          "transactionIndex": "0x0",
          "logIndex": "0x0",
          "removed": false
        }
      ],
      "logsBloom": "0x00000000000000000000000000000000000000000000000000000000000000000000000000000000000000000000010000000000000000000000000000200000000000000000000000000000000000000000000000000000000000000000000000000000000000000000000000000000000000000000004000000000000000000000000000000000000000000000000000004000000000000000000000100100020000000000040000004080000000020000000000000000000000000000000000000000000000000000000000000000000000000000000000000000000000000010000000000000000000000000000000000000000000000000000000000000",
      "type": "0x2",
      "transactionHash": "0x159e2157270697a6af1458224999b615ebe834de4e493600ff2c94461968c220",
      "transactionIndex": "0x0",
      "blockHash": "0x0a430392273e989b7cd8d3526e143ff8a8107c85a2ceb3b11f8df10af93cc4aa",
      "blockNumber": "0x145525e",
      "gasUsed": "0x728b8",
      "effectiveGasPrice": "0x3",
      "blobGasUsed": "0x0",
      "from": "0xDDC9b558908E28279147D441BF626D4E3e5A5163",
      "to": null,
      "contractAddress": "0x6662cBF86b2d15a46D031457737300D0363aD342"
    },
    {
      "status": "0x1",
      "cumulativeGasUsed": "0x74566",
      "logs": [
        {
          "address": "0xA0b86991c6218b36c1d19D4a2e9Eb0cE3606eB48",
          "topics": [
            "0x8c5be1e5ebec7d5bd14f71427d1e84f3dd0314c0f7b2291e5b200ac8c7c3b925",
            "0x000000000000000000000000f7e023880a22b50308c713f15ced4412a49c6853",
            "0x000000000000000000000000beef01735c132ada46aa9aa4c54623caa92a64cb"
          ],
          "data": "0xffffffffffffffffffffffffffffffffffffffffffffffffffffffffffffffff",
          "blockHash": "0x8b53ef87b351c58b36b4c42a45a32dba3198714a5febf975265e1c548ecc0245",
          "blockNumber": "0x145525f",
          "transactionHash": "0x9de68a2de852b67ea5ec6860b765ecad6753ab9358739d1e9ebe9c967852deca",
          "transactionIndex": "0x0",
          "logIndex": "0x0",
          "removed": false
        }
      ],
      "logsBloom": "0x00000000000000000000000000000000000000000000000000000200000000000000000000000000000000000000000000000000000000000000000000200000000000004000000008000000000000000000000080000000000000000000000000000000000000000000000000000000000000000000000000000000000000000000000000000000000000000000000000000000010000000000000000000000020000000000200000000000000000000000000040000000000000000000000000000000000000000000000000000000000000000000000000000000000000000018000000000000000000000200000000000000000000000000000000000000",
      "type": "0x2",
      "transactionHash": "0x9de68a2de852b67ea5ec6860b765ecad6753ab9358739d1e9ebe9c967852deca",
      "transactionIndex": "0x0",
      "blockHash": "0x8b53ef87b351c58b36b4c42a45a32dba3198714a5febf975265e1c548ecc0245",
      "blockNumber": "0x145525f",
      "gasUsed": "0x74566",
      "effectiveGasPrice": "0x3",
      "blobGasUsed": "0x0",
      "from": "0xDDC9b558908E28279147D441BF626D4E3e5A5163",
      "to": null,
      "contractAddress": "0xf7e023880A22B50308C713f15cEd4412a49C6853"
    },
    {
      "status": "0x1",
      "cumulativeGasUsed": "0x71e3b",
      "logs": [
        {
          "address": "0x4c9EDD5852cd905f086C759E8383e09bff1E68B3",
          "topics": [
            "0x8c5be1e5ebec7d5bd14f71427d1e84f3dd0314c0f7b2291e5b200ac8c7c3b925",
            "0x000000000000000000000000d3f76b87ef16cb00e7c0591df674419d3695a9fb",
            "0x0000000000000000000000009d39a5de30e57443bff2a8307a4256c8797a3497"
          ],
          "data": "0xffffffffffffffffffffffffffffffffffffffffffffffffffffffffffffffff",
          "blockHash": "0x569ef028125dc07d839416c9ee2e43e747edbc4b47f0ba75eae8dbbd990826c4",
          "blockNumber": "0x1455260",
          "transactionHash": "0x8bbdf9e1a1564f10534a5b3a5843b818bc7dc20c278547da058d2c3950029368",
          "transactionIndex": "0x0",
          "logIndex": "0x0",
          "removed": false
        }
      ],
      "logsBloom": "0x00000000000000000000000000000000000000000000000000000000000000000000000000000000000000000000000800000000000000000000000000200000000000000000000000000004000000000000000000000000000000000000000000000000000000000000000000200000000000000000000000000000000000000100000000000000000000000000001000000000008000000000000000000000020000000000002000000000000000000000000000100000000000000000000000000000000000000000000000000000000000000000000000000000010000000010000000000000000000000000000000000000000000000000000000000000",
      "type": "0x2",
      "transactionHash": "0x8bbdf9e1a1564f10534a5b3a5843b818bc7dc20c278547da058d2c3950029368",
      "transactionIndex": "0x0",
      "blockHash": "0x569ef028125dc07d839416c9ee2e43e747edbc4b47f0ba75eae8dbbd990826c4",
      "blockNumber": "0x1455260",
      "gasUsed": "0x71e3b",
      "effectiveGasPrice": "0x3",
      "blobGasUsed": "0x0",
      "from": "0xDDC9b558908E28279147D441BF626D4E3e5A5163",
      "to": null,
      "contractAddress": "0xD3f76b87EF16CB00e7c0591DF674419D3695a9fB"
    },
    {
      "status": "0x1",
      "cumulativeGasUsed": "0x71d7b",
      "logs": [
        {
          "address": "0x6B175474E89094C44Da98b954EedeAC495271d0F",
          "topics": [
            "0x8c5be1e5ebec7d5bd14f71427d1e84f3dd0314c0f7b2291e5b200ac8c7c3b925",
            "0x0000000000000000000000008afce2895c93d73b53cca57b2e27819a76d3bbe1",
            "0x00000000000000000000000083f20f44975d03b1b09e64809b757c47f942beea"
          ],
          "data": "0xffffffffffffffffffffffffffffffffffffffffffffffffffffffffffffffff",
          "blockHash": "0xc91bd4f33bc0abd0bd1cda260bc85647e6d30468902c9dffb18044b6b69cf944",
          "blockNumber": "0x1455261",
          "transactionHash": "0x91462846a3c74d4be7a4a263d2f58939525d472bf1fd022e186ffaed8a324281",
          "transactionIndex": "0x0",
          "logIndex": "0x0",
          "removed": false
        }
      ],
      "logsBloom": "0x00000000000000000000000000000000000000000000000000000000000000000000000000000000000000000000000000000000000000000000000000200000000000000000000000000008000000000000000000000000080000000000000010000000000000000000000000000000000000000000010000000000000000000000000000000000000000000000000000000000000000000000000000000000020100000001040000000000000000000000000000000000000000000000000000000000000000002000000000000000000002000000000000000000000000000010000000000000000000000000000000000000000000000000000000000000",
      "type": "0x2",
      "transactionHash": "0x91462846a3c74d4be7a4a263d2f58939525d472bf1fd022e186ffaed8a324281",
      "transactionIndex": "0x0",
      "blockHash": "0xc91bd4f33bc0abd0bd1cda260bc85647e6d30468902c9dffb18044b6b69cf944",
      "blockNumber": "0x1455261",
      "gasUsed": "0x71d7b",
      "effectiveGasPrice": "0x3",
      "blobGasUsed": "0x0",
      "from": "0xDDC9b558908E28279147D441BF626D4E3e5A5163",
      "to": null,
      "contractAddress": "0x8Afce2895c93D73B53CCA57b2E27819A76D3BBE1"
    },
    {
      "status": "0x1",
      "cumulativeGasUsed": "0x15d36",
      "logs": [
        {
          "address": "0x2DC4Da4832604f886A81120dB11108057f6D6BAf",
          "topics": [
            "0xfe53ad22d287601d2ed917d8aedf4a9bf6f948833c8b55fbc07d8a4e1cdd7789",
            "0x0000000000000000000000006b175474e89094c44da98b954eedeac495271d0f"
          ],
          "data": "0x000000000000000000000000000000000000000000000000000000000000000000000000000000000000000000000000000000000000000000000000000000fa",
          "blockHash": "0x2fbb1409cb4a3fffc37b2e6985c450152914121ef2c2107b9d7c20a9e3f1def2",
          "blockNumber": "0x1455262",
          "transactionHash": "0xba397aab498b4daf1b938c2452eb08eae8858b447995a6c1bf05f6c609bf3ea4",
          "transactionIndex": "0x0",
          "logIndex": "0x0",
          "removed": false
        },
        {
          "address": "0x2DC4Da4832604f886A81120dB11108057f6D6BAf",
          "topics": [
            "0x62bd751f51149024e62ea3228318ca127fd1c35241bf764fba1e4b27d255e930",
            "0x0000000000000000000000006b175474e89094c44da98b954eedeac495271d0f"
          ],
          "data": "0x000000000000000000000000000000000000000000000000000000000000001200000000000000000000000000000000000000000000000000000000000000fa",
          "blockHash": "0x2fbb1409cb4a3fffc37b2e6985c450152914121ef2c2107b9d7c20a9e3f1def2",
          "blockNumber": "0x1455262",
          "transactionHash": "0xba397aab498b4daf1b938c2452eb08eae8858b447995a6c1bf05f6c609bf3ea4",
          "transactionIndex": "0x0",
          "logIndex": "0x1",
          "removed": false
        }
      ],
      "logsBloom": "0x00000000000000000000000000000000000000000000000000000000000000000000020000000000000000000000000000000000000000000000000000000000000000000000000000000000000000000000000000000000000080000000000000000000000000000000000200000000000000000000000000000000000000200000000001000000000200000000010000000000000000000000000400000000000000000000400000000000000000000000000000000000000000000000000000000000000000000000000000000000000000000000000100000000000000000000000000000000000000000000800000000000000000100000000000000000",
      "type": "0x2",
      "transactionHash": "0xba397aab498b4daf1b938c2452eb08eae8858b447995a6c1bf05f6c609bf3ea4",
      "transactionIndex": "0x0",
      "blockHash": "0x2fbb1409cb4a3fffc37b2e6985c450152914121ef2c2107b9d7c20a9e3f1def2",
      "blockNumber": "0x1455262",
      "gasUsed": "0x15d36",
      "effectiveGasPrice": "0x3",
      "blobGasUsed": "0x0",
      "from": "0xDDC9b558908E28279147D441BF626D4E3e5A5163",
      "to": "0x2DC4Da4832604f886A81120dB11108057f6D6BAf",
      "contractAddress": null
    },
    {
      "status": "0x1",
      "cumulativeGasUsed": "0x878b",
      "logs": [],
      "logsBloom": "0x00000000000000000000000000000000000000000000000000000000000000000000000000000000000000000000000000000000000000000000000000000000000000000000000000000000000000000000000000000000000000000000000000000000000000000000000000000000000000000000000000000000000000000000000000000000000000000000000000000000000000000000000000000000000000000000000000000000000000000000000000000000000000000000000000000000000000000000000000000000000000000000000000000000000000000000000000000000000000000000000000000000000000000000000000000000",
      "type": "0x2",
      "transactionHash": "0x678b12ddfe9f0162db5825fe670c7b49f62980af8047764fa2e022c3f3bd509e",
      "transactionIndex": "0x0",
      "blockHash": "0x7e9b33b27142a31dd0b677eed4a9b15658d160e6c36f370592ea3d7804b53d6f",
      "blockNumber": "0x1455263",
      "gasUsed": "0x878b",
      "effectiveGasPrice": "0x3",
      "blobGasUsed": "0x0",
      "from": "0xDDC9b558908E28279147D441BF626D4E3e5A5163",
      "to": "0x2DC4Da4832604f886A81120dB11108057f6D6BAf",
      "contractAddress": null
    },
    {
      "status": "0x1",
      "cumulativeGasUsed": "0x877f",
      "logs": [],
      "logsBloom": "0x00000000000000000000000000000000000000000000000000000000000000000000000000000000000000000000000000000000000000000000000000000000000000000000000000000000000000000000000000000000000000000000000000000000000000000000000000000000000000000000000000000000000000000000000000000000000000000000000000000000000000000000000000000000000000000000000000000000000000000000000000000000000000000000000000000000000000000000000000000000000000000000000000000000000000000000000000000000000000000000000000000000000000000000000000000000",
      "type": "0x2",
      "transactionHash": "0x391f56be0f9d04efbcdafa42c86f8c2d0f2971c9c82cc00ed7f7108b73096c1b",
      "transactionIndex": "0x0",
      "blockHash": "0x86843c5832567fcd22e2f921d15f43405b3cef34aaf8d10caaa2109a995a2b86",
      "blockNumber": "0x1455264",
      "gasUsed": "0x877f",
      "effectiveGasPrice": "0x3",
      "blobGasUsed": "0x0",
      "from": "0xDDC9b558908E28279147D441BF626D4E3e5A5163",
      "to": "0x2DC4Da4832604f886A81120dB11108057f6D6BAf",
      "contractAddress": null
    },
    {
      "status": "0x1",
      "cumulativeGasUsed": "0x878b",
      "logs": [],
      "logsBloom": "0x00000000000000000000000000000000000000000000000000000000000000000000000000000000000000000000000000000000000000000000000000000000000000000000000000000000000000000000000000000000000000000000000000000000000000000000000000000000000000000000000000000000000000000000000000000000000000000000000000000000000000000000000000000000000000000000000000000000000000000000000000000000000000000000000000000000000000000000000000000000000000000000000000000000000000000000000000000000000000000000000000000000000000000000000000000000",
      "type": "0x2",
      "transactionHash": "0x13230c5a5e185c2352d728a296cd9f3dd61a10bdb0b60df3d79fb63f78fd44e7",
      "transactionIndex": "0x0",
      "blockHash": "0x58e8a5a41ab8821c01f558b86cb581372c1e5f09e16a3f7a73e351189ea159f9",
      "blockNumber": "0x1455265",
      "gasUsed": "0x878b",
      "effectiveGasPrice": "0x3",
      "blobGasUsed": "0x0",
      "from": "0xDDC9b558908E28279147D441BF626D4E3e5A5163",
      "to": "0x2DC4Da4832604f886A81120dB11108057f6D6BAf",
      "contractAddress": null
    },
    {
      "status": "0x1",
      "cumulativeGasUsed": "0x877f",
      "logs": [],
      "logsBloom": "0x00000000000000000000000000000000000000000000000000000000000000000000000000000000000000000000000000000000000000000000000000000000000000000000000000000000000000000000000000000000000000000000000000000000000000000000000000000000000000000000000000000000000000000000000000000000000000000000000000000000000000000000000000000000000000000000000000000000000000000000000000000000000000000000000000000000000000000000000000000000000000000000000000000000000000000000000000000000000000000000000000000000000000000000000000000000",
      "type": "0x2",
      "transactionHash": "0x233bd872eaca5389299d03545cd960d89526b1fe4823cd5663a46e4d171f57bc",
      "transactionIndex": "0x0",
      "blockHash": "0xebb63c33c2e3e9d4bc7820c803daaccf206b83eebb3a2af8bfa8f80afddd9123",
      "blockNumber": "0x1455266",
      "gasUsed": "0x877f",
      "effectiveGasPrice": "0x3",
      "blobGasUsed": "0x0",
      "from": "0xDDC9b558908E28279147D441BF626D4E3e5A5163",
      "to": "0x2DC4Da4832604f886A81120dB11108057f6D6BAf",
      "contractAddress": null
    }
  ],
  "libraries": [],
  "pending": [],
  "returns": {},
  "timestamp": 1733410244,
  "chain": 12345,
  "commit": "6d07e8d"
}